{
	"data": {
		"bytecode": {
			"linkReferences": {},
			"object": "610160604052348015610010575f80fd5b506040518060400160405280600c81526020017f50687574757265496e6465780000000000000000000000000000000000000000815250806040518060400160405280600181526020017f310000000000000000000000000000000000000000000000000000000000000081525060405180602001604052805f81525060405180602001604052805f81525081600c90816100ab91906104bd565b5080600d90816100bb91906104bd565b5050506100d2600e8361016e60201b90919060201c565b61012081815250506100ee600f8261016e60201b90919060201c565b6101408181525050818051906020012060e08181525050808051906020012061010081815250504660a0818152505061012b6101bb60201b60201c565b608081815250503073ffffffffffffffffffffffffffffffffffffffff1660c08173ffffffffffffffffffffffffffffffffffffffff168152505050505061075c565b5f60208351101561018f576101888361021560201b60201c565b90506101b5565b8261019f8361027a60201b60201c565b5f0190816101ad91906104bd565b5060ff5f1b90505b92915050565b5f7f8b73c3c69bb8fe3d512ecc4cf759cc79239f7b179b0ffacaa9a75d522b39400f60e0516101005146306040516020016101fa9594939291906105f2565b60405160208183030381529060405280519060200120905090565b5f80829050601f8151111561026157826040517f305a27a900000000000000000000000000000000000000000000000000000000815260040161025891906106a9565b60405180910390fd5b80518161026d906106f6565b5f1c175f1b915050919050565b5f819050919050565b5f81519050919050565b7f4e487b71000000000000000000000000000000000000000000000000000000005f52604160045260245ffd5b7f4e487b71000000000000000000000000000000000000000000000000000000005f52602260045260245ffd5b5f60028204905060018216806102fe57607f821691505b602082108103610311576103106102ba565b5b50919050565b5f819050815f5260205f209050919050565b5f6020601f8301049050919050565b5f82821b905092915050565b5f600883026103737fffffffffffffffffffffffffffffffffffffffffffffffffffffffffffffffff82610338565b61037d8683610338565b95508019841693508086168417925050509392505050565b5f819050919050565b5f819050919050565b5f6103c16103bc6103b784610395565b61039e565b610395565b9050919050565b5f819050919050565b6103da836103a7565b6103ee6103e6826103c8565b848454610344565b825550505050565b5f90565b6104026103f6565b61040d8184846103d1565b505050565b5b81811015610430576104255f826103fa565b600181019050610413565b5050565b601f8211156104755761044681610317565b61044f84610329565b8101602085101561045e578190505b61047261046a85610329565b830182610412565b50505b505050565b5f82821c905092915050565b5f6104955f198460080261047a565b1980831691505092915050565b5f6104ad8383610486565b9150826002028217905092915050565b6104c682610283565b67ffffffffffffffff8111156104df576104de61028d565b5b6104e982546102e7565b6104f4828285610434565b5f60209050601f831160018114610525575f8415610513578287015190505b61051d85826104a2565b865550610584565b601f19841661053386610317565b5f5b8281101561055a57848901518255600182019150602085019450602081019050610535565b868310156105775784890151610573601f891682610486565b8355505b6001600288020188555050505b505050505050565b5f819050919050565b61059e8161058c565b82525050565b6105ad81610395565b82525050565b5f73ffffffffffffffffffffffffffffffffffffffff82169050919050565b5f6105dc826105b3565b9050919050565b6105ec816105d2565b82525050565b5f60a0820190506106055f830188610595565b6106126020830187610595565b61061f6040830186610595565b61062c60608301856105a4565b61063960808301846105e3565b9695505050505050565b5f82825260208201905092915050565b8281835e5f83830152505050565b5f601f19601f8301169050919050565b5f61067b82610283565b6106858185610643565b9350610695818560208601610653565b61069e81610661565b840191505092915050565b5f6020820190508181035f8301526106c18184610671565b905092915050565b5f81519050919050565b5f819050602082019050919050565b5f6106ed825161058c565b80915050919050565b5f610700826106c9565b8261070a846106d3565b9050610715816106e2565b92506020821015610755576107507fffffffffffffffffffffffffffffffffffffffffffffffffffffffffffffffff83602003600802610338565b831692505b5050919050565b60805160a05160c05160e051610100516101205161014051613da86107ad5f395f61249a01525f61245f01525f6128e901525f6128c801525f61209501525f6120eb01525f6121140152613da85ff3fe608060405234801561000f575f80fd5b506004361061011f575f3560e01c806370a08231116100ab57806395d89b411161006f57806395d89b4114610323578063a9059cbb14610341578063c45a015514610371578063d505accf1461038f578063dd62ed3e146103ab5761011f565b806370a08231146102655780637b103999146102955780637ecebe00146102b357806384b0196e146102e357806389afcb44146103075761011f565b806323b872dd116100f257806323b872dd146101bf57806328dd9912146101ef578063313ce5671461020d5780633644e5151461022b5780636a627842146102495761011f565b806301ffc9a71461012357806306fdde0314610153578063095ea7b31461017157806318160ddd146101a1575b5f80fd5b61013d600480360381019061013891906130a4565b6103db565b60405161014a91906130e9565b60405180910390f35b61015b610524565b6040516101689190613172565b60405180910390f35b61018b6004803603810190610186919061321f565b6105c7565b60405161019891906130e9565b60405180910390f35b6101a96105e9565b6040516101b6919061326c565b60405180910390f35b6101d960048036038101906101d49190613285565b6105f2565b6040516101e691906130e9565b60405180910390f35b6101f7610620565b60405161020491906132e4565b60405180910390f35b610215610645565b6040516102229190613318565b60405180910390f35b61023361064d565b6040516102409190613349565b60405180910390f35b610263600480360381019061025e9190613362565b61065b565b005b61027f600480360381019061027a9190613362565b611342565b60405161028c919061326c565b60405180910390f35b61029d611388565b6040516102aa91906132e4565b60405180910390f35b6102cd60048036038101906102c89190613362565b6113ad565b6040516102da919061326c565b60405180910390f35b6102eb6113be565b6040516102fe979695949392919061347e565b60405180910390f35b610321600480360381019061031c9190613362565b611463565b005b61032b611c28565b6040516103389190613172565b60405180910390f35b61035b6004803603810190610356919061321f565b611ccb565b60405161036891906130e9565b60405180910390f35b610379611ced565b60405161038691906132e4565b60405180910390f35b6103a960048036038101906103a49190613554565b611d10565b005b6103c560048036038101906103c091906135f1565b611e55565b6040516103d2919061326c565b60405180910390f35b5f7f9797a1de000000000000000000000000000000000000000000000000000000007bffffffffffffffffffffffffffffffffffffffffffffffffffffffff1916827bffffffffffffffffffffffffffffffffffffffffffffffffffffffff191614806104a557507f9d8ff7da000000000000000000000000000000000000000000000000000000007bffffffffffffffffffffffffffffffffffffffffffffffffffffffff1916827bffffffffffffffffffffffffffffffffffffffffffffffffffffffff1916145b8061050d57507f36372b07000000000000000000000000000000000000000000000000000000007bffffffffffffffffffffffffffffffffffffffffffffffffffffffff1916827bffffffffffffffffffffffffffffffffffffffffffffffffffffffff1916145b8061051d575061051c82611ed7565b5b9050919050565b606060025f9054906101000a900473ffffffffffffffffffffffffffffffffffffffff1673ffffffffffffffffffffffffffffffffffffffff1663ed3b559f306040518263ffffffff1660e01b815260040161058091906132e4565b5f60405180830381865afa15801561059a573d5f803e3d5ffd5b505050506040513d5f823e3d601f19601f820116820180604052508101906105c2919061374d565b905090565b5f806105d1611f40565b90506105de818585611f47565b600191505092915050565b5f600b54905090565b5f806105fc611f40565b9050610609858285611f59565b610614858585611fec565b60019150509392505050565b60015f9054906101000a900473ffffffffffffffffffffffffffffffffffffffff1681565b5f6012905090565b5f610656612092565b905090565b5f60025f9054906101000a900473ffffffffffffffffffffffffffffffffffffffff1673ffffffffffffffffffffffffffffffffffffffff1663ae2e933b6040518163ffffffff1660e01b8152600401602060405180830381865afa1580156106c6573d5f803e3d5ffd5b505050506040513d601f19601f820116820180604052508101906106ea91906137a8565b90506106f581612148565b5f60025f9054906101000a900473ffffffffffffffffffffffffffffffffffffffff1673ffffffffffffffffffffffffffffffffffffffff16632630c12f6040518163ffffffff1660e01b8152600401602060405180830381865afa158015610760573d5f803e3d5ffd5b505050506040513d601f19601f8201168201806040525081019061078491906137a8565b90505f807fffffffffffffffffffffffffffffffffffffffffffffffffffffffffffffffff90505f5b6107b76004612297565b811015610d575760025f9054906101000a900473ffffffffffffffffffffffffffffffffffffffff1673ffffffffffffffffffffffffffffffffffffffff166391d148547f86d5cf0a6bdc8d859ba3bdc97043337c82a0e609035f378e419298b6a3e00ae66108308460046122aa90919063ffffffff16565b6040518363ffffffff1660e01b815260040161084d9291906137d3565b602060405180830381865afa158015610868573d5f803e3d5ffd5b505050506040513d601f19601f8201168201806040525081019061088c9190613824565b6108cb576040517f08c379a00000000000000000000000000000000000000000000000000000000081526004016108c290613899565b60405180910390fd5b5f60085f6108e38460046122aa90919063ffffffff16565b73ffffffffffffffffffffffffffffffffffffffff1673ffffffffffffffffffffffffffffffffffffffff1681526020019081526020015f205f9054906101000a900460ff1660ff160315610d4c575f8473ffffffffffffffffffffffffffffffffffffffff1663da0449be6109638460046122aa90919063ffffffff16565b6040518263ffffffff1660e01b815260040161097f91906132e4565b6020604051808303815f875af115801561099b573d5f803e3d5ffd5b505050506040513d601f19601f820116820180604052508101906109bf91906138cb565b90505f60015f9054906101000a900473ffffffffffffffffffffffffffffffffffffffff1673ffffffffffffffffffffffffffffffffffffffff16635e12b644610a138560046122aa90919063ffffffff16565b6040518263ffffffff1660e01b8152600401610a2f91906132e4565b6020604051808303815f875af1158015610a4b573d5f803e3d5ffd5b505050506040513d601f19601f82011682018060405250810190610a6f91906137a8565b90505f8173ffffffffffffffffffffffffffffffffffffffff16638f1c56bd6040518163ffffffff1660e01b8152600401602060405180830381865afa158015610abb573d5f803e3d5ffd5b505050506040513d601f19601f82011682018060405250810190610adf91906138cb565b610af38560046122aa90919063ffffffff16565b73ffffffffffffffffffffffffffffffffffffffff166370a08231846040518263ffffffff1660e01b8152600401610b2b91906132e4565b602060405180830381865afa158015610b46573d5f803e3d5ffd5b505050506040513d601f19601f82011682018060405250810190610b6a91906138cb565b610b749190613923565b90505f60085f610b8e8760046122aa90919063ffffffff16565b73ffffffffffffffffffffffffffffffffffffffff1673ffffffffffffffffffffffffffffffffffffffff1681526020019081526020015f205f9054906101000a900460ff1660ff1684610be29190613956565b90505f610c1760ff80166e010000000000000000000000000000610c069190613956565b83856122c19092919063ffffffff16565b905086811015610c25578096505b5f8473ffffffffffffffffffffffffffffffffffffffff1663bd3c3c00306040518263ffffffff1660e01b8152600401610c5f91906132e4565b602060405180830381865afa158015610c7a573d5f803e3d5ffd5b505050506040513d601f19601f82011682018060405250810190610c9e91906138cb565b90508473ffffffffffffffffffffffffffffffffffffffff16631249c58b6040518163ffffffff1660e01b81526004016020604051808303815f875af1158015610cea573d5f803e3d5ffd5b505050506040513d601f19601f82011682018060405250810190610d0e91906138cb565b505f610d346e01000000000000000000000000000088846122c19092919063ffffffff16565b9050808a610d429190613997565b9950505050505050505b8060010190506107ad565b505f5b610d646006612297565b81101561102d5760025f9054906101000a900473ffffffffffffffffffffffffffffffffffffffff1673ffffffffffffffffffffffffffffffffffffffff166391d148547f4963dcfd342c3f63bd1b992afc723ae72706277470d47567f30dfc6dcee9f11e610ddd8460066122aa90919063ffffffff16565b6040518363ffffffff1660e01b8152600401610dfa9291906137d3565b602060405180830381865afa158015610e15573d5f803e3d5ffd5b505050506040513d601f19601f82011682018060405250810190610e399190613824565b611022575f60015f9054906101000a900473ffffffffffffffffffffffffffffffffffffffff1673ffffffffffffffffffffffffffffffffffffffff16635e12b644610e8f8460066122aa90919063ffffffff16565b6040518263ffffffff1660e01b8152600401610eab91906132e4565b6020604051808303815f875af1158015610ec7573d5f803e3d5ffd5b505050506040513d601f19601f82011682018060405250810190610eeb91906137a8565b73ffffffffffffffffffffffffffffffffffffffff1663bd3c3c00306040518263ffffffff1660e01b8152600401610f2391906132e4565b602060405180830381865afa158015610f3e573d5f803e3d5ffd5b505050506040513d601f19601f82011682018060405250810190610f6291906138cb565b90506110136e0100000000000000000000000000008673ffffffffffffffffffffffffffffffffffffffff1663da0449be610fa78660066122aa90919063ffffffff16565b6040518263ffffffff1660e01b8152600401610fc391906132e4565b6020604051808303815f875af1158015610fdf573d5f803e3d5ffd5b505050506040513d601f19601f8201168201806040525081019061100391906138cb565b836122c19092919063ffffffff16565b8461101e9190613997565b9350505b806001019050610d5a565b507fffffffffffffffffffffffffffffffffffffffffffffffffffffffffffffffff810361105e5761105d6139ca565b5b5f806110686105e9565b146111d4575f83116110af576040517f08c379a00000000000000000000000000000000000000000000000000000000081526004016110a690613a41565b60405180910390fd5b8373ffffffffffffffffffffffffffffffffffffffff1663b8aa4124846110d4610645565b6040518363ffffffff1660e01b81526004016110f1929190613a5f565b602060405180830381865afa15801561110c573d5f803e3d5ffd5b505050506040513d601f19601f8201168201806040525081019061113091906138cb565b6111386105e9565b8573ffffffffffffffffffffffffffffffffffffffff1663b8aa41248561115d610645565b6040518363ffffffff1660e01b815260040161117a929190613a5f565b602060405180830381865afa158015611195573d5f803e3d5ffd5b505050506040513d601f19601f820116820180604052508101906111b991906138cb565b6111c39190613956565b6111cd9190613ab3565b9050611273565b6127108473ffffffffffffffffffffffffffffffffffffffff1663b8aa4124846111fc610645565b6040518363ffffffff1660e01b8152600401611219929190613a5f565b602060405180830381865afa158015611234573d5f803e3d5ffd5b505050506040513d601f19601f8201168201806040525081019061125891906138cb565b6112629190613923565b905061127261dead612710612391565b5b5f61271061ffff168673ffffffffffffffffffffffffffffffffffffffff16635ad88c1a306040518263ffffffff1660e01b81526004016112b491906132e4565b602060405180830381865afa1580156112cf573d5f803e3d5ffd5b505050506040513d601f19601f820116820180604052508101906112f39190613b1a565b61ffff16836113029190613956565b61130c9190613ab3565b90505f81111561132f576113208682612391565b808261132c9190613923565b91505b6113398783612391565b50505050505050565b5f60095f8373ffffffffffffffffffffffffffffffffffffffff1673ffffffffffffffffffffffffffffffffffffffff1681526020019081526020015f20549050919050565b60025f9054906101000a900473ffffffffffffffffffffffffffffffffffffffff1681565b5f6113b782612410565b9050919050565b5f6060805f805f60606113cf612456565b6113d7612491565b46305f801b5f67ffffffffffffffff8111156113f6576113f5613637565b5b6040519080825280602002602001820160405280156114245781602001602082028036833780820191505090505b507f0f00000000000000000000000000000000000000000000000000000000000000959493929190965096509650965096509650965090919293949596565b5f61146d30611342565b90505f81116114b1576040517f08c379a00000000000000000000000000000000000000000000000000000000081526004016114a890613a41565b60405180910390fd5b5f6114bc6004612297565b90505f805b828110156115af5760025f9054906101000a900473ffffffffffffffffffffffffffffffffffffffff1673ffffffffffffffffffffffffffffffffffffffff166391d148547f86d5cf0a6bdc8d859ba3bdc97043337c82a0e609035f378e419298b6a3e00ae661153b8460046122aa90919063ffffffff16565b6040518363ffffffff1660e01b81526004016115589291906137d3565b602060405180830381865afa158015611573573d5f803e3d5ffd5b505050506040513d601f19601f820116820180604052508101906115979190613824565b6115a457600191506115af565b8060010190506114c1565b5080611714575f60025f9054906101000a900473ffffffffffffffffffffffffffffffffffffffff1673ffffffffffffffffffffffffffffffffffffffff1663ae2e933b6040518163ffffffff1660e01b8152600401602060405180830381865afa158015611620573d5f803e3d5ffd5b505050506040513d601f19601f8201168201806040525081019061164491906137a8565b90505f61271061ffff168273ffffffffffffffffffffffffffffffffffffffff1663a7853436306040518263ffffffff1660e01b815260040161168791906132e4565b602060405180830381865afa1580156116a2573d5f803e3d5ffd5b505050506040513d601f19601f820116820180604052508101906116c69190613b1a565b61ffff16866116d59190613956565b6116df9190613ab3565b90505f811115611707576116f4308383611fec565b80856117009190613923565b9450611711565b61171082612148565b5b50505b5f60025f9054906101000a900473ffffffffffffffffffffffffffffffffffffffff1673ffffffffffffffffffffffffffffffffffffffff1663628cf32f6040518163ffffffff1660e01b8152600401602060405180830381865afa15801561177f573d5f803e3d5ffd5b505050506040513d601f19601f820116820180604052508101906117a391906137a8565b90505f8173ffffffffffffffffffffffffffffffffffffffff1662a2e792306040518263ffffffff1660e01b81526004016117de91906132e4565b602060405180830381865afa1580156117f9573d5f803e3d5ffd5b505050506040513d601f19601f8201168201806040525081019061181d91906138cb565b90505f5b61182b6006612297565b856118369190613997565b811015611c15575f8582106118695761186486836118549190613923565b60066122aa90919063ffffffff16565b61187e565b61187d8260046122aa90919063ffffffff16565b5b9050848015611944575060025f9054906101000a900473ffffffffffffffffffffffffffffffffffffffff1673ffffffffffffffffffffffffffffffffffffffff166391d148547f4963dcfd342c3f63bd1b992afc723ae72706277470d47567f30dfc6dcee9f11e836040518363ffffffff1660e01b81526004016119049291906137d3565b602060405180830381865afa15801561191f573d5f803e3d5ffd5b505050506040513d601f19601f820116820180604052508101906119439190613824565b5b1561194f5750611c0a565b5f60015f9054906101000a900473ffffffffffffffffffffffffffffffffffffffff1673ffffffffffffffffffffffffffffffffffffffff16639748e5ca836040518263ffffffff1660e01b81526004016119aa91906132e4565b602060405180830381865afa1580156119c5573d5f803e3d5ffd5b505050506040513d601f19601f820116820180604052508101906119e991906137a8565b90505f8173ffffffffffffffffffffffffffffffffffffffff166370a08231306040518263ffffffff1660e01b8152600401611a2591906132e4565b602060405180830381865afa158015611a40573d5f803e3d5ffd5b505050506040513d601f19601f82011682018060405250810190611a6491906138cb565b90505f611a6f6105e9565b828b611a7b9190613956565b611a859190613ab3565b90505f8103611a975750505050611c0a565b8273ffffffffffffffffffffffffffffffffffffffff1663a9059cbb84836040518363ffffffff1660e01b8152600401611ad2929190613b45565b5f604051808303815f87803b158015611ae9575f80fd5b505af1158015611afb573d5f803e3d5ffd5b505050508273ffffffffffffffffffffffffffffffffffffffff166389afcb448c6040518263ffffffff1660e01b8152600401611b3891906132e4565b6020604051808303815f875af1158015611b54573d5f803e3d5ffd5b505050506040513d601f19601f82011682018060405250810190611b7891906138cb565b505f861115611c05578673ffffffffffffffffffffffffffffffffffffffff1663cabfb7e3858c611ba76105e9565b611bb19190613923565b611bb96105e9565b6040518463ffffffff1660e01b8152600401611bd793929190613b6c565b5f604051808303815f87803b158015611bee575f80fd5b505af1158015611c00573d5f803e3d5ffd5b505050505b505050505b806001019050611821565b50611c2030866124cc565b505050505050565b606060025f9054906101000a900473ffffffffffffffffffffffffffffffffffffffff1673ffffffffffffffffffffffffffffffffffffffff1663554f94ab306040518263ffffffff1660e01b8152600401611c8491906132e4565b5f60405180830381865afa158015611c9e573d5f803e3d5ffd5b505050506040513d5f823e3d601f19601f82011682018060405250810190611cc6919061374d565b905090565b5f80611cd5611f40565b9050611ce2818585611fec565b600191505092915050565b5f8054906101000a900473ffffffffffffffffffffffffffffffffffffffff1681565b83421115611d5557836040517f62791302000000000000000000000000000000000000000000000000000000008152600401611d4c919061326c565b60405180910390fd5b5f7f6e71edae12b1b97f4d1f60370fef10105fa2faae0126114a169c64845d6126c9888888611d838c61254b565b89604051602001611d9996959493929190613ba1565b6040516020818303038152906040528051906020012090505f611dbb8261259e565b90505f611dca828787876125b7565b90508973ffffffffffffffffffffffffffffffffffffffff168173ffffffffffffffffffffffffffffffffffffffff1614611e3e57808a6040517f4b800e46000000000000000000000000000000000000000000000000000000008152600401611e35929190613c00565b60405180910390fd5b611e498a8a8a611f47565b50505050505050505050565b5f600a5f8473ffffffffffffffffffffffffffffffffffffffff1673ffffffffffffffffffffffffffffffffffffffff1681526020019081526020015f205f8373ffffffffffffffffffffffffffffffffffffffff1673ffffffffffffffffffffffffffffffffffffffff1681526020019081526020015f2054905092915050565b5f7f01ffc9a7000000000000000000000000000000000000000000000000000000007bffffffffffffffffffffffffffffffffffffffffffffffffffffffff1916827bffffffffffffffffffffffffffffffffffffffffffffffffffffffff1916149050919050565b5f33905090565b611f5483838360016125e5565b505050565b5f611f648484611e55565b90507fffffffffffffffffffffffffffffffffffffffffffffffffffffffffffffffff811015611fe65781811015611fd7578281836040517ffb8f41b2000000000000000000000000000000000000000000000000000000008152600401611fce93929190613b6c565b60405180910390fd5b611fe584848484035f6125e5565b5b50505050565b61208260025f9054906101000a900473ffffffffffffffffffffffffffffffffffffffff1673ffffffffffffffffffffffffffffffffffffffff1663ae2e933b6040518163ffffffff1660e01b8152600401602060405180830381865afa158015612059573d5f803e3d5ffd5b505050506040513d601f19601f8201168201806040525081019061207d91906137a8565b612148565b61208d8383836127b4565b505050565b5f7f000000000000000000000000000000000000000000000000000000000000000073ffffffffffffffffffffffffffffffffffffffff163073ffffffffffffffffffffffffffffffffffffffff1614801561210d57507f000000000000000000000000000000000000000000000000000000000000000046145b1561213a577f00000000000000000000000000000000000000000000000000000000000000009050612145565b6121426128a4565b90505b90565b5f600354426121579190613923565b90505f811115612293575f6b033b2e3c9fd0803ce8000000806121fe8573ffffffffffffffffffffffffffffffffffffffff16635612e00b306040518263ffffffff1660e01b81526004016121ac91906132e4565b602060405180830381865afa1580156121c7573d5f803e3d5ffd5b505050506040513d601f19601f820116820180604052508101906121eb91906138cb565b856b033b2e3c9fd0803ce8000000612939565b6122089190613923565b6122305f8054906101000a900473ffffffffffffffffffffffffffffffffffffffff16611342565b6122386105e9565b6122429190613923565b61224c9190613956565b6122569190613ab3565b90505f811115612291576122895f8054906101000a900473ffffffffffffffffffffffffffffffffffffffff1682612391565b426003819055505b505b5050565b5f6122a3825f016129f6565b9050919050565b5f6122b7835f0183612a05565b5f1c905092915050565b5f805f80198587098587029250828110838203039150505f81036122f6575f84116122ea575f80fd5b8382049250505061238a565b808411612301575f80fd5b5f8486880990508281118203915080830392505f85600187190116905080860495508084049350600181825f0304019050808302841793505f600287600302189050808702600203810290508087026002038102905080870260020381029050808702600203810290508087026002038102905080870260020381029050808502955050505050505b9392505050565b5f73ffffffffffffffffffffffffffffffffffffffff168273ffffffffffffffffffffffffffffffffffffffff1603612401575f6040517fec442f050000000000000000000000000000000000000000000000000000000081526004016123f891906132e4565b60405180910390fd5b61240c5f8383612a2c565b5050565b5f60105f8373ffffffffffffffffffffffffffffffffffffffff1673ffffffffffffffffffffffffffffffffffffffff1681526020019081526020015f20549050919050565b606061248c600e7f0000000000000000000000000000000000000000000000000000000000000000612c4890919063ffffffff16565b905090565b60606124c7600f7f0000000000000000000000000000000000000000000000000000000000000000612c4890919063ffffffff16565b905090565b5f73ffffffffffffffffffffffffffffffffffffffff168273ffffffffffffffffffffffffffffffffffffffff160361253c575f6040517f96c6fd1e00000000000000000000000000000000000000000000000000000000815260040161253391906132e4565b60405180910390fd5b612547825f83612a2c565b5050565b5f60105f8373ffffffffffffffffffffffffffffffffffffffff1673ffffffffffffffffffffffffffffffffffffffff1681526020019081526020015f205f815480929190600101919050559050919050565b5f6125b06125aa612092565b83612cf5565b9050919050565b5f805f806125c788888888612d35565b9250925092506125d78282612e1c565b829350505050949350505050565b5f73ffffffffffffffffffffffffffffffffffffffff168473ffffffffffffffffffffffffffffffffffffffff1603612655575f6040517fe602df0500000000000000000000000000000000000000000000000000000000815260040161264c91906132e4565b60405180910390fd5b5f73ffffffffffffffffffffffffffffffffffffffff168373ffffffffffffffffffffffffffffffffffffffff16036126c5575f6040517f94280d620000000000000000000000000000000000000000000000000000000081526004016126bc91906132e4565b60405180910390fd5b81600a5f8673ffffffffffffffffffffffffffffffffffffffff1673ffffffffffffffffffffffffffffffffffffffff1681526020019081526020015f205f8573ffffffffffffffffffffffffffffffffffffffff1673ffffffffffffffffffffffffffffffffffffffff1681526020019081526020015f208190555080156127ae578273ffffffffffffffffffffffffffffffffffffffff168473ffffffffffffffffffffffffffffffffffffffff167f8c5be1e5ebec7d5bd14f71427d1e84f3dd0314c0f7b2291e5b200ac8c7c3b925846040516127a5919061326c565b60405180910390a35b50505050565b5f73ffffffffffffffffffffffffffffffffffffffff168373ffffffffffffffffffffffffffffffffffffffff1603612824575f6040517f96c6fd1e00000000000000000000000000000000000000000000000000000000815260040161281b91906132e4565b60405180910390fd5b5f73ffffffffffffffffffffffffffffffffffffffff168273ffffffffffffffffffffffffffffffffffffffff1603612894575f6040517fec442f0500000000000000000000000000000000000000000000000000000000815260040161288b91906132e4565b60405180910390fd5b61289f838383612a2c565b505050565b5f7f8b73c3c69bb8fe3d512ecc4cf759cc79239f7b179b0ffacaa9a75d522b39400f7f00000000000000000000000000000000000000000000000000000000000000007f0000000000000000000000000000000000000000000000000000000000000000463060405160200161291e959493929190613c27565b60405160208183030381529060405280519060200120905090565b5f835f81146129d857600284065f811461295557859250612959565b8392505b50600283046002850494505b84156129d257858602868782041461297b575f80fd5b8181018181101561298a575f80fd5b858104975060028706156129c55787850285898204141589151516156129ae575f80fd5b838101818110156129bd575f80fd5b878104965050505b5050600285049450612965565b506129ee565b835f81146129e8575f92506129ec565b8392505b505b509392505050565b5f815f01805490509050919050565b5f825f018281548110612a1b57612a1a613c78565b5b905f5260205f200154905092915050565b5f73ffffffffffffffffffffffffffffffffffffffff168373ffffffffffffffffffffffffffffffffffffffff1603612a7c5780600b5f828254612a709190613997565b92505081905550612b4c565b5f60095f8573ffffffffffffffffffffffffffffffffffffffff1673ffffffffffffffffffffffffffffffffffffffff1681526020019081526020015f2054905081811015612b06578381836040517fe450d38c000000000000000000000000000000000000000000000000000000008152600401612afd93929190613b6c565b60405180910390fd5b81810360095f8673ffffffffffffffffffffffffffffffffffffffff1673ffffffffffffffffffffffffffffffffffffffff1681526020019081526020015f2081905550505b5f73ffffffffffffffffffffffffffffffffffffffff168273ffffffffffffffffffffffffffffffffffffffff1603612b935780600b5f8282540392505081905550612bde565b8060095f8473ffffffffffffffffffffffffffffffffffffffff1673ffffffffffffffffffffffffffffffffffffffff1681526020019081526020015f205f82825401925050819055505b8173ffffffffffffffffffffffffffffffffffffffff168373ffffffffffffffffffffffffffffffffffffffff167fddf252ad1be2c89b69c2b068fc378daa952ba7f163c4a11628f55a4df523b3ef83604051612c3b919061326c565b60405180910390a3505050565b606060ff5f1b8314612c6457612c5d83612f7e565b9050612cef565b818054612c7090613cd2565b80601f0160208091040260200160405190810160405280929190818152602001828054612c9c90613cd2565b8015612ce75780601f10612cbe57610100808354040283529160200191612ce7565b820191905f5260205f20905b815481529060010190602001808311612cca57829003601f168201915b505050505090505b92915050565b5f6040517f190100000000000000000000000000000000000000000000000000000000000081528360028201528260228201526042812091505092915050565b5f805f7f7fffffffffffffffffffffffffffffff5d576e7357a4501ddfe92f46681b20a0845f1c1115612d71575f600385925092509250612e12565b5f6001888888886040515f8152602001604052604051612d949493929190613d02565b6020604051602081039080840390855afa158015612db4573d5f803e3d5ffd5b5050506020604051035190505f73ffffffffffffffffffffffffffffffffffffffff168173ffffffffffffffffffffffffffffffffffffffff1603612e05575f60015f801b93509350935050612e12565b805f805f1b935093509350505b9450945094915050565b5f6003811115612e2f57612e2e613d45565b5b826003811115612e4257612e41613d45565b5b0315612f7a5760016003811115612e5c57612e5b613d45565b5b826003811115612e6f57612e6e613d45565b5b03612ea6576040517ff645eedf00000000000000000000000000000000000000000000000000000000815260040160405180910390fd5b60026003811115612eba57612eb9613d45565b5b826003811115612ecd57612ecc613d45565b5b03612f1157805f1c6040517ffce698f7000000000000000000000000000000000000000000000000000000008152600401612f08919061326c565b60405180910390fd5b600380811115612f2457612f23613d45565b5b826003811115612f3757612f36613d45565b5b03612f7957806040517fd78bce0c000000000000000000000000000000000000000000000000000000008152600401612f709190613349565b60405180910390fd5b5b5050565b60605f612f8a83612ff0565b90505f602067ffffffffffffffff811115612fa857612fa7613637565b5b6040519080825280601f01601f191660200182016040528015612fda5781602001600182028036833780820191505090505b5090508181528360208201528092505050919050565b5f8060ff835f1c169050601f811115613035576040517fb3512b0c00000000000000000000000000000000000000000000000000000000815260040160405180910390fd5b80915050919050565b5f604051905090565b5f80fd5b5f80fd5b5f7fffffffff0000000000000000000000000000000000000000000000000000000082169050919050565b6130838161304f565b811461308d575f80fd5b50565b5f8135905061309e8161307a565b92915050565b5f602082840312156130b9576130b8613047565b5b5f6130c684828501613090565b91505092915050565b5f8115159050919050565b6130e3816130cf565b82525050565b5f6020820190506130fc5f8301846130da565b92915050565b5f81519050919050565b5f82825260208201905092915050565b8281835e5f83830152505050565b5f601f19601f8301169050919050565b5f61314482613102565b61314e818561310c565b935061315e81856020860161311c565b6131678161312a565b840191505092915050565b5f6020820190508181035f83015261318a818461313a565b905092915050565b5f73ffffffffffffffffffffffffffffffffffffffff82169050919050565b5f6131bb82613192565b9050919050565b6131cb816131b1565b81146131d5575f80fd5b50565b5f813590506131e6816131c2565b92915050565b5f819050919050565b6131fe816131ec565b8114613208575f80fd5b50565b5f81359050613219816131f5565b92915050565b5f806040838503121561323557613234613047565b5b5f613242858286016131d8565b92505060206132538582860161320b565b9150509250929050565b613266816131ec565b82525050565b5f60208201905061327f5f83018461325d565b92915050565b5f805f6060848603121561329c5761329b613047565b5b5f6132a9868287016131d8565b93505060206132ba868287016131d8565b92505060406132cb8682870161320b565b9150509250925092565b6132de816131b1565b82525050565b5f6020820190506132f75f8301846132d5565b92915050565b5f60ff82169050919050565b613312816132fd565b82525050565b5f60208201905061332b5f830184613309565b92915050565b5f819050919050565b61334381613331565b82525050565b5f60208201905061335c5f83018461333a565b92915050565b5f6020828403121561337757613376613047565b5b5f613384848285016131d8565b91505092915050565b5f7fff0000000000000000000000000000000000000000000000000000000000000082169050919050565b6133c18161338d565b82525050565b5f81519050919050565b5f82825260208201905092915050565b5f819050602082019050919050565b6133f9816131ec565b82525050565b5f61340a83836133f0565b60208301905092915050565b5f602082019050919050565b5f61342c826133c7565b61343681856133d1565b9350613441836133e1565b805f5b8381101561347157815161345888826133ff565b975061346383613416565b925050600181019050613444565b5085935050505092915050565b5f60e0820190506134915f83018a6133b8565b81810360208301526134a3818961313a565b905081810360408301526134b7818861313a565b90506134c6606083018761325d565b6134d360808301866132d5565b6134e060a083018561333a565b81810360c08301526134f28184613422565b905098975050505050505050565b613509816132fd565b8114613513575f80fd5b50565b5f8135905061352481613500565b92915050565b61353381613331565b811461353d575f80fd5b50565b5f8135905061354e8161352a565b92915050565b5f805f805f805f60e0888a03121561356f5761356e613047565b5b5f61357c8a828b016131d8565b975050602061358d8a828b016131d8565b965050604061359e8a828b0161320b565b95505060606135af8a828b0161320b565b94505060806135c08a828b01613516565b93505060a06135d18a828b01613540565b92505060c06135e28a828b01613540565b91505092959891949750929550565b5f806040838503121561360757613606613047565b5b5f613614858286016131d8565b9250506020613625858286016131d8565b9150509250929050565b5f80fd5b5f80fd5b7f4e487b71000000000000000000000000000000000000000000000000000000005f52604160045260245ffd5b61366d8261312a565b810181811067ffffffffffffffff8211171561368c5761368b613637565b5b80604052505050565b5f61369e61303e565b90506136aa8282613664565b919050565b5f67ffffffffffffffff8211156136c9576136c8613637565b5b6136d28261312a565b9050602081019050919050565b5f6136f16136ec846136af565b613695565b90508281526020810184848401111561370d5761370c613633565b5b61371884828561311c565b509392505050565b5f82601f8301126137345761373361362f565b5b81516137448482602086016136df565b91505092915050565b5f6020828403121561376257613761613047565b5b5f82015167ffffffffffffffff81111561377f5761377e61304b565b5b61378b84828501613720565b91505092915050565b5f815190506137a2816131c2565b92915050565b5f602082840312156137bd576137bc613047565b5b5f6137ca84828501613794565b91505092915050565b5f6040820190506137e65f83018561333a565b6137f360208301846132d5565b9392505050565b613803816130cf565b811461380d575f80fd5b50565b5f8151905061381e816137fa565b92915050565b5f6020828403121561383957613838613047565b5b5f61384684828501613810565b91505092915050565b7f496e6465783a20494e56414c49445f41535345540000000000000000000000005f82015250565b5f61388360148361310c565b915061388e8261384f565b602082019050919050565b5f6020820190508181035f8301526138b081613877565b9050919050565b5f815190506138c5816131f5565b92915050565b5f602082840312156138e0576138df613047565b5b5f6138ed848285016138b7565b91505092915050565b7f4e487b71000000000000000000000000000000000000000000000000000000005f52601160045260245ffd5b5f61392d826131ec565b9150613938836131ec565b92508282039050818111156139505761394f6138f6565b5b92915050565b5f613960826131ec565b915061396b836131ec565b9250828202613979816131ec565b915082820484148315176139905761398f6138f6565b5b5092915050565b5f6139a1826131ec565b91506139ac836131ec565b92508282019050808211156139c4576139c36138f6565b5b92915050565b7f4e487b71000000000000000000000000000000000000000000000000000000005f52600160045260245ffd5b7f496e6465783a20494e53554646494349454e545f414d4f554e540000000000005f82015250565b5f613a2b601a8361310c565b9150613a36826139f7565b602082019050919050565b5f6020820190508181035f830152613a5881613a1f565b9050919050565b5f604082019050613a725f83018561325d565b613a7f6020830184613309565b9392505050565b7f4e487b71000000000000000000000000000000000000000000000000000000005f52601260045260245ffd5b5f613abd826131ec565b9150613ac8836131ec565b925082613ad857613ad7613a86565b5b828204905092915050565b5f61ffff82169050919050565b613af981613ae3565b8114613b03575f80fd5b50565b5f81519050613b1481613af0565b92915050565b5f60208284031215613b2f57613b2e613047565b5b5f613b3c84828501613b06565b91505092915050565b5f604082019050613b585f8301856132d5565b613b65602083018461325d565b9392505050565b5f606082019050613b7f5f8301866132d5565b613b8c602083018561325d565b613b99604083018461325d565b949350505050565b5f60c082019050613bb45f83018961333a565b613bc160208301886132d5565b613bce60408301876132d5565b613bdb606083018661325d565b613be8608083018561325d565b613bf560a083018461325d565b979650505050505050565b5f604082019050613c135f8301856132d5565b613c2060208301846132d5565b9392505050565b5f60a082019050613c3a5f83018861333a565b613c47602083018761333a565b613c54604083018661333a565b613c61606083018561325d565b613c6e60808301846132d5565b9695505050505050565b7f4e487b71000000000000000000000000000000000000000000000000000000005f52603260045260245ffd5b7f4e487b71000000000000000000000000000000000000000000000000000000005f52602260045260245ffd5b5f6002820490506001821680613ce957607f821691505b602082108103613cfc57613cfb613ca5565b5b50919050565b5f608082019050613d155f83018761333a565b613d226020830186613309565b613d2f604083018561333a565b613d3c606083018461333a565b95945050505050565b7f4e487b71000000000000000000000000000000000000000000000000000000005f52602160045260245ffdfea26469706673582212202d495e18e33d67c1079768f8b75283bf66d6a4efba7be713c87b36729299f09864736f6c634300081a0033",
			"opcodes": "PUSH2 0x160 PUSH1 0x40 MSTORE CALLVALUE DUP1 ISZERO PUSH2 0x10 JUMPI PUSH0 DUP1 REVERT JUMPDEST POP PUSH1 0x40 MLOAD DUP1 PUSH1 0x40 ADD PUSH1 0x40 MSTORE DUP1 PUSH1 0xC DUP2 MSTORE PUSH1 0x20 ADD PUSH32 0x50687574757265496E6465780000000000000000000000000000000000000000 DUP2 MSTORE POP DUP1 PUSH1 0x40 MLOAD DUP1 PUSH1 0x40 ADD PUSH1 0x40 MSTORE DUP1 PUSH1 0x1 DUP2 MSTORE PUSH1 0x20 ADD PUSH32 0x3100000000000000000000000000000000000000000000000000000000000000 DUP2 MSTORE POP PUSH1 0x40 MLOAD DUP1 PUSH1 0x20 ADD PUSH1 0x40 MSTORE DUP1 PUSH0 DUP2 MSTORE POP PUSH1 0x40 MLOAD DUP1 PUSH1 0x20 ADD PUSH1 0x40 MSTORE DUP1 PUSH0 DUP2 MSTORE POP DUP2 PUSH1 0xC SWAP1 DUP2 PUSH2 0xAB SWAP2 SWAP1 PUSH2 0x4BD JUMP JUMPDEST POP DUP1 PUSH1 0xD SWAP1 DUP2 PUSH2 0xBB SWAP2 SWAP1 PUSH2 0x4BD JUMP JUMPDEST POP POP POP PUSH2 0xD2 PUSH1 0xE DUP4 PUSH2 0x16E PUSH1 0x20 SHL SWAP1 SWAP2 SWAP1 PUSH1 0x20 SHR JUMP JUMPDEST PUSH2 0x120 DUP2 DUP2 MSTORE POP POP PUSH2 0xEE PUSH1 0xF DUP3 PUSH2 0x16E PUSH1 0x20 SHL SWAP1 SWAP2 SWAP1 PUSH1 0x20 SHR JUMP JUMPDEST PUSH2 0x140 DUP2 DUP2 MSTORE POP POP DUP2 DUP1 MLOAD SWAP1 PUSH1 0x20 ADD KECCAK256 PUSH1 0xE0 DUP2 DUP2 MSTORE POP POP DUP1 DUP1 MLOAD SWAP1 PUSH1 0x20 ADD KECCAK256 PUSH2 0x100 DUP2 DUP2 MSTORE POP POP CHAINID PUSH1 0xA0 DUP2 DUP2 MSTORE POP POP PUSH2 0x12B PUSH2 0x1BB PUSH1 0x20 SHL PUSH1 0x20 SHR JUMP JUMPDEST PUSH1 0x80 DUP2 DUP2 MSTORE POP POP ADDRESS PUSH20 0xFFFFFFFFFFFFFFFFFFFFFFFFFFFFFFFFFFFFFFFF AND PUSH1 0xC0 DUP2 PUSH20 0xFFFFFFFFFFFFFFFFFFFFFFFFFFFFFFFFFFFFFFFF AND DUP2 MSTORE POP POP POP POP POP PUSH2 0x75C JUMP JUMPDEST PUSH0 PUSH1 0x20 DUP4 MLOAD LT ISZERO PUSH2 0x18F JUMPI PUSH2 0x188 DUP4 PUSH2 0x215 PUSH1 0x20 SHL PUSH1 0x20 SHR JUMP JUMPDEST SWAP1 POP PUSH2 0x1B5 JUMP JUMPDEST DUP3 PUSH2 0x19F DUP4 PUSH2 0x27A PUSH1 0x20 SHL PUSH1 0x20 SHR JUMP JUMPDEST PUSH0 ADD SWAP1 DUP2 PUSH2 0x1AD SWAP2 SWAP1 PUSH2 0x4BD JUMP JUMPDEST POP PUSH1 0xFF PUSH0 SHL SWAP1 POP JUMPDEST SWAP3 SWAP2 POP POP JUMP JUMPDEST PUSH0 PUSH32 0x8B73C3C69BB8FE3D512ECC4CF759CC79239F7B179B0FFACAA9A75D522B39400F PUSH1 0xE0 MLOAD PUSH2 0x100 MLOAD CHAINID ADDRESS PUSH1 0x40 MLOAD PUSH1 0x20 ADD PUSH2 0x1FA SWAP6 SWAP5 SWAP4 SWAP3 SWAP2 SWAP1 PUSH2 0x5F2 JUMP JUMPDEST PUSH1 0x40 MLOAD PUSH1 0x20 DUP2 DUP4 SUB SUB DUP2 MSTORE SWAP1 PUSH1 0x40 MSTORE DUP1 MLOAD SWAP1 PUSH1 0x20 ADD KECCAK256 SWAP1 POP SWAP1 JUMP JUMPDEST PUSH0 DUP1 DUP3 SWAP1 POP PUSH1 0x1F DUP2 MLOAD GT ISZERO PUSH2 0x261 JUMPI DUP3 PUSH1 0x40 MLOAD PUSH32 0x305A27A900000000000000000000000000000000000000000000000000000000 DUP2 MSTORE PUSH1 0x4 ADD PUSH2 0x258 SWAP2 SWAP1 PUSH2 0x6A9 JUMP JUMPDEST PUSH1 0x40 MLOAD DUP1 SWAP2 SUB SWAP1 REVERT JUMPDEST DUP1 MLOAD DUP2 PUSH2 0x26D SWAP1 PUSH2 0x6F6 JUMP JUMPDEST PUSH0 SHR OR PUSH0 SHL SWAP2 POP POP SWAP2 SWAP1 POP JUMP JUMPDEST PUSH0 DUP2 SWAP1 POP SWAP2 SWAP1 POP JUMP JUMPDEST PUSH0 DUP2 MLOAD SWAP1 POP SWAP2 SWAP1 POP JUMP JUMPDEST PUSH32 0x4E487B7100000000000000000000000000000000000000000000000000000000 PUSH0 MSTORE PUSH1 0x41 PUSH1 0x4 MSTORE PUSH1 0x24 PUSH0 REVERT JUMPDEST PUSH32 0x4E487B7100000000000000000000000000000000000000000000000000000000 PUSH0 MSTORE PUSH1 0x22 PUSH1 0x4 MSTORE PUSH1 0x24 PUSH0 REVERT JUMPDEST PUSH0 PUSH1 0x2 DUP3 DIV SWAP1 POP PUSH1 0x1 DUP3 AND DUP1 PUSH2 0x2FE JUMPI PUSH1 0x7F DUP3 AND SWAP2 POP JUMPDEST PUSH1 0x20 DUP3 LT DUP2 SUB PUSH2 0x311 JUMPI PUSH2 0x310 PUSH2 0x2BA JUMP JUMPDEST JUMPDEST POP SWAP2 SWAP1 POP JUMP JUMPDEST PUSH0 DUP2 SWAP1 POP DUP2 PUSH0 MSTORE PUSH1 0x20 PUSH0 KECCAK256 SWAP1 POP SWAP2 SWAP1 POP JUMP JUMPDEST PUSH0 PUSH1 0x20 PUSH1 0x1F DUP4 ADD DIV SWAP1 POP SWAP2 SWAP1 POP JUMP JUMPDEST PUSH0 DUP3 DUP3 SHL SWAP1 POP SWAP3 SWAP2 POP POP JUMP JUMPDEST PUSH0 PUSH1 0x8 DUP4 MUL PUSH2 0x373 PUSH32 0xFFFFFFFFFFFFFFFFFFFFFFFFFFFFFFFFFFFFFFFFFFFFFFFFFFFFFFFFFFFFFFFF DUP3 PUSH2 0x338 JUMP JUMPDEST PUSH2 0x37D DUP7 DUP4 PUSH2 0x338 JUMP JUMPDEST SWAP6 POP DUP1 NOT DUP5 AND SWAP4 POP DUP1 DUP7 AND DUP5 OR SWAP3 POP POP POP SWAP4 SWAP3 POP POP POP JUMP JUMPDEST PUSH0 DUP2 SWAP1 POP SWAP2 SWAP1 POP JUMP JUMPDEST PUSH0 DUP2 SWAP1 POP SWAP2 SWAP1 POP JUMP JUMPDEST PUSH0 PUSH2 0x3C1 PUSH2 0x3BC PUSH2 0x3B7 DUP5 PUSH2 0x395 JUMP JUMPDEST PUSH2 0x39E JUMP JUMPDEST PUSH2 0x395 JUMP JUMPDEST SWAP1 POP SWAP2 SWAP1 POP JUMP JUMPDEST PUSH0 DUP2 SWAP1 POP SWAP2 SWAP1 POP JUMP JUMPDEST PUSH2 0x3DA DUP4 PUSH2 0x3A7 JUMP JUMPDEST PUSH2 0x3EE PUSH2 0x3E6 DUP3 PUSH2 0x3C8 JUMP JUMPDEST DUP5 DUP5 SLOAD PUSH2 0x344 JUMP JUMPDEST DUP3 SSTORE POP POP POP POP JUMP JUMPDEST PUSH0 SWAP1 JUMP JUMPDEST PUSH2 0x402 PUSH2 0x3F6 JUMP JUMPDEST PUSH2 0x40D DUP2 DUP5 DUP5 PUSH2 0x3D1 JUMP JUMPDEST POP POP POP JUMP JUMPDEST JUMPDEST DUP2 DUP2 LT ISZERO PUSH2 0x430 JUMPI PUSH2 0x425 PUSH0 DUP3 PUSH2 0x3FA JUMP JUMPDEST PUSH1 0x1 DUP2 ADD SWAP1 POP PUSH2 0x413 JUMP JUMPDEST POP POP JUMP JUMPDEST PUSH1 0x1F DUP3 GT ISZERO PUSH2 0x475 JUMPI PUSH2 0x446 DUP2 PUSH2 0x317 JUMP JUMPDEST PUSH2 0x44F DUP5 PUSH2 0x329 JUMP JUMPDEST DUP2 ADD PUSH1 0x20 DUP6 LT ISZERO PUSH2 0x45E JUMPI DUP2 SWAP1 POP JUMPDEST PUSH2 0x472 PUSH2 0x46A DUP6 PUSH2 0x329 JUMP JUMPDEST DUP4 ADD DUP3 PUSH2 0x412 JUMP JUMPDEST POP POP JUMPDEST POP POP POP JUMP JUMPDEST PUSH0 DUP3 DUP3 SHR SWAP1 POP SWAP3 SWAP2 POP POP JUMP JUMPDEST PUSH0 PUSH2 0x495 PUSH0 NOT DUP5 PUSH1 0x8 MUL PUSH2 0x47A JUMP JUMPDEST NOT DUP1 DUP4 AND SWAP2 POP POP SWAP3 SWAP2 POP POP JUMP JUMPDEST PUSH0 PUSH2 0x4AD DUP4 DUP4 PUSH2 0x486 JUMP JUMPDEST SWAP2 POP DUP3 PUSH1 0x2 MUL DUP3 OR SWAP1 POP SWAP3 SWAP2 POP POP JUMP JUMPDEST PUSH2 0x4C6 DUP3 PUSH2 0x283 JUMP JUMPDEST PUSH8 0xFFFFFFFFFFFFFFFF DUP2 GT ISZERO PUSH2 0x4DF JUMPI PUSH2 0x4DE PUSH2 0x28D JUMP JUMPDEST JUMPDEST PUSH2 0x4E9 DUP3 SLOAD PUSH2 0x2E7 JUMP JUMPDEST PUSH2 0x4F4 DUP3 DUP3 DUP6 PUSH2 0x434 JUMP JUMPDEST PUSH0 PUSH1 0x20 SWAP1 POP PUSH1 0x1F DUP4 GT PUSH1 0x1 DUP2 EQ PUSH2 0x525 JUMPI PUSH0 DUP5 ISZERO PUSH2 0x513 JUMPI DUP3 DUP8 ADD MLOAD SWAP1 POP JUMPDEST PUSH2 0x51D DUP6 DUP3 PUSH2 0x4A2 JUMP JUMPDEST DUP7 SSTORE POP PUSH2 0x584 JUMP JUMPDEST PUSH1 0x1F NOT DUP5 AND PUSH2 0x533 DUP7 PUSH2 0x317 JUMP JUMPDEST PUSH0 JUMPDEST DUP3 DUP2 LT ISZERO PUSH2 0x55A JUMPI DUP5 DUP10 ADD MLOAD DUP3 SSTORE PUSH1 0x1 DUP3 ADD SWAP2 POP PUSH1 0x20 DUP6 ADD SWAP5 POP PUSH1 0x20 DUP2 ADD SWAP1 POP PUSH2 0x535 JUMP JUMPDEST DUP7 DUP4 LT ISZERO PUSH2 0x577 JUMPI DUP5 DUP10 ADD MLOAD PUSH2 0x573 PUSH1 0x1F DUP10 AND DUP3 PUSH2 0x486 JUMP JUMPDEST DUP4 SSTORE POP JUMPDEST PUSH1 0x1 PUSH1 0x2 DUP9 MUL ADD DUP9 SSTORE POP POP POP JUMPDEST POP POP POP POP POP POP JUMP JUMPDEST PUSH0 DUP2 SWAP1 POP SWAP2 SWAP1 POP JUMP JUMPDEST PUSH2 0x59E DUP2 PUSH2 0x58C JUMP JUMPDEST DUP3 MSTORE POP POP JUMP JUMPDEST PUSH2 0x5AD DUP2 PUSH2 0x395 JUMP JUMPDEST DUP3 MSTORE POP POP JUMP JUMPDEST PUSH0 PUSH20 0xFFFFFFFFFFFFFFFFFFFFFFFFFFFFFFFFFFFFFFFF DUP3 AND SWAP1 POP SWAP2 SWAP1 POP JUMP JUMPDEST PUSH0 PUSH2 0x5DC DUP3 PUSH2 0x5B3 JUMP JUMPDEST SWAP1 POP SWAP2 SWAP1 POP JUMP JUMPDEST PUSH2 0x5EC DUP2 PUSH2 0x5D2 JUMP JUMPDEST DUP3 MSTORE POP POP JUMP JUMPDEST PUSH0 PUSH1 0xA0 DUP3 ADD SWAP1 POP PUSH2 0x605 PUSH0 DUP4 ADD DUP9 PUSH2 0x595 JUMP JUMPDEST PUSH2 0x612 PUSH1 0x20 DUP4 ADD DUP8 PUSH2 0x595 JUMP JUMPDEST PUSH2 0x61F PUSH1 0x40 DUP4 ADD DUP7 PUSH2 0x595 JUMP JUMPDEST PUSH2 0x62C PUSH1 0x60 DUP4 ADD DUP6 PUSH2 0x5A4 JUMP JUMPDEST PUSH2 0x639 PUSH1 0x80 DUP4 ADD DUP5 PUSH2 0x5E3 JUMP JUMPDEST SWAP7 SWAP6 POP POP POP POP POP POP JUMP JUMPDEST PUSH0 DUP3 DUP3 MSTORE PUSH1 0x20 DUP3 ADD SWAP1 POP SWAP3 SWAP2 POP POP JUMP JUMPDEST DUP3 DUP2 DUP4 MCOPY PUSH0 DUP4 DUP4 ADD MSTORE POP POP POP JUMP JUMPDEST PUSH0 PUSH1 0x1F NOT PUSH1 0x1F DUP4 ADD AND SWAP1 POP SWAP2 SWAP1 POP JUMP JUMPDEST PUSH0 PUSH2 0x67B DUP3 PUSH2 0x283 JUMP JUMPDEST PUSH2 0x685 DUP2 DUP6 PUSH2 0x643 JUMP JUMPDEST SWAP4 POP PUSH2 0x695 DUP2 DUP6 PUSH1 0x20 DUP7 ADD PUSH2 0x653 JUMP JUMPDEST PUSH2 0x69E DUP2 PUSH2 0x661 JUMP JUMPDEST DUP5 ADD SWAP2 POP POP SWAP3 SWAP2 POP POP JUMP JUMPDEST PUSH0 PUSH1 0x20 DUP3 ADD SWAP1 POP DUP2 DUP2 SUB PUSH0 DUP4 ADD MSTORE PUSH2 0x6C1 DUP2 DUP5 PUSH2 0x671 JUMP JUMPDEST SWAP1 POP SWAP3 SWAP2 POP POP JUMP JUMPDEST PUSH0 DUP2 MLOAD SWAP1 POP SWAP2 SWAP1 POP JUMP JUMPDEST PUSH0 DUP2 SWAP1 POP PUSH1 0x20 DUP3 ADD SWAP1 POP SWAP2 SWAP1 POP JUMP JUMPDEST PUSH0 PUSH2 0x6ED DUP3 MLOAD PUSH2 0x58C JUMP JUMPDEST DUP1 SWAP2 POP POP SWAP2 SWAP1 POP JUMP JUMPDEST PUSH0 PUSH2 0x700 DUP3 PUSH2 0x6C9 JUMP JUMPDEST DUP3 PUSH2 0x70A DUP5 PUSH2 0x6D3 JUMP JUMPDEST SWAP1 POP PUSH2 0x715 DUP2 PUSH2 0x6E2 JUMP JUMPDEST SWAP3 POP PUSH1 0x20 DUP3 LT ISZERO PUSH2 0x755 JUMPI PUSH2 0x750 PUSH32 0xFFFFFFFFFFFFFFFFFFFFFFFFFFFFFFFFFFFFFFFFFFFFFFFFFFFFFFFFFFFFFFFF DUP4 PUSH1 0x20 SUB PUSH1 0x8 MUL PUSH2 0x338 JUMP JUMPDEST DUP4 AND SWAP3 POP JUMPDEST POP POP SWAP2 SWAP1 POP JUMP JUMPDEST PUSH1 0x80 MLOAD PUSH1 0xA0 MLOAD PUSH1 0xC0 MLOAD PUSH1 0xE0 MLOAD PUSH2 0x100 MLOAD PUSH2 0x120 MLOAD PUSH2 0x140 MLOAD PUSH2 0x3DA8 PUSH2 0x7AD PUSH0 CODECOPY PUSH0 PUSH2 0x249A ADD MSTORE PUSH0 PUSH2 0x245F ADD MSTORE PUSH0 PUSH2 0x28E9 ADD MSTORE PUSH0 PUSH2 0x28C8 ADD MSTORE PUSH0 PUSH2 0x2095 ADD MSTORE PUSH0 PUSH2 0x20EB ADD MSTORE PUSH0 PUSH2 0x2114 ADD MSTORE PUSH2 0x3DA8 PUSH0 RETURN INVALID PUSH1 0x80 PUSH1 0x40 MSTORE CALLVALUE DUP1 ISZERO PUSH2 0xF JUMPI PUSH0 DUP1 REVERT JUMPDEST POP PUSH1 0x4 CALLDATASIZE LT PUSH2 0x11F JUMPI PUSH0 CALLDATALOAD PUSH1 0xE0 SHR DUP1 PUSH4 0x70A08231 GT PUSH2 0xAB JUMPI DUP1 PUSH4 0x95D89B41 GT PUSH2 0x6F JUMPI DUP1 PUSH4 0x95D89B41 EQ PUSH2 0x323 JUMPI DUP1 PUSH4 0xA9059CBB EQ PUSH2 0x341 JUMPI DUP1 PUSH4 0xC45A0155 EQ PUSH2 0x371 JUMPI DUP1 PUSH4 0xD505ACCF EQ PUSH2 0x38F JUMPI DUP1 PUSH4 0xDD62ED3E EQ PUSH2 0x3AB JUMPI PUSH2 0x11F JUMP JUMPDEST DUP1 PUSH4 0x70A08231 EQ PUSH2 0x265 JUMPI DUP1 PUSH4 0x7B103999 EQ PUSH2 0x295 JUMPI DUP1 PUSH4 0x7ECEBE00 EQ PUSH2 0x2B3 JUMPI DUP1 PUSH4 0x84B0196E EQ PUSH2 0x2E3 JUMPI DUP1 PUSH4 0x89AFCB44 EQ PUSH2 0x307 JUMPI PUSH2 0x11F JUMP JUMPDEST DUP1 PUSH4 0x23B872DD GT PUSH2 0xF2 JUMPI DUP1 PUSH4 0x23B872DD EQ PUSH2 0x1BF JUMPI DUP1 PUSH4 0x28DD9912 EQ PUSH2 0x1EF JUMPI DUP1 PUSH4 0x313CE567 EQ PUSH2 0x20D JUMPI DUP1 PUSH4 0x3644E515 EQ PUSH2 0x22B JUMPI DUP1 PUSH4 0x6A627842 EQ PUSH2 0x249 JUMPI PUSH2 0x11F JUMP JUMPDEST DUP1 PUSH4 0x1FFC9A7 EQ PUSH2 0x123 JUMPI DUP1 PUSH4 0x6FDDE03 EQ PUSH2 0x153 JUMPI DUP1 PUSH4 0x95EA7B3 EQ PUSH2 0x171 JUMPI DUP1 PUSH4 0x18160DDD EQ PUSH2 0x1A1 JUMPI JUMPDEST PUSH0 DUP1 REVERT JUMPDEST PUSH2 0x13D PUSH1 0x4 DUP1 CALLDATASIZE SUB DUP2 ADD SWAP1 PUSH2 0x138 SWAP2 SWAP1 PUSH2 0x30A4 JUMP JUMPDEST PUSH2 0x3DB JUMP JUMPDEST PUSH1 0x40 MLOAD PUSH2 0x14A SWAP2 SWAP1 PUSH2 0x30E9 JUMP JUMPDEST PUSH1 0x40 MLOAD DUP1 SWAP2 SUB SWAP1 RETURN JUMPDEST PUSH2 0x15B PUSH2 0x524 JUMP JUMPDEST PUSH1 0x40 MLOAD PUSH2 0x168 SWAP2 SWAP1 PUSH2 0x3172 JUMP JUMPDEST PUSH1 0x40 MLOAD DUP1 SWAP2 SUB SWAP1 RETURN JUMPDEST PUSH2 0x18B PUSH1 0x4 DUP1 CALLDATASIZE SUB DUP2 ADD SWAP1 PUSH2 0x186 SWAP2 SWAP1 PUSH2 0x321F JUMP JUMPDEST PUSH2 0x5C7 JUMP JUMPDEST PUSH1 0x40 MLOAD PUSH2 0x198 SWAP2 SWAP1 PUSH2 0x30E9 JUMP JUMPDEST PUSH1 0x40 MLOAD DUP1 SWAP2 SUB SWAP1 RETURN JUMPDEST PUSH2 0x1A9 PUSH2 0x5E9 JUMP JUMPDEST PUSH1 0x40 MLOAD PUSH2 0x1B6 SWAP2 SWAP1 PUSH2 0x326C JUMP JUMPDEST PUSH1 0x40 MLOAD DUP1 SWAP2 SUB SWAP1 RETURN JUMPDEST PUSH2 0x1D9 PUSH1 0x4 DUP1 CALLDATASIZE SUB DUP2 ADD SWAP1 PUSH2 0x1D4 SWAP2 SWAP1 PUSH2 0x3285 JUMP JUMPDEST PUSH2 0x5F2 JUMP JUMPDEST PUSH1 0x40 MLOAD PUSH2 0x1E6 SWAP2 SWAP1 PUSH2 0x30E9 JUMP JUMPDEST PUSH1 0x40 MLOAD DUP1 SWAP2 SUB SWAP1 RETURN JUMPDEST PUSH2 0x1F7 PUSH2 0x620 JUMP JUMPDEST PUSH1 0x40 MLOAD PUSH2 0x204 SWAP2 SWAP1 PUSH2 0x32E4 JUMP JUMPDEST PUSH1 0x40 MLOAD DUP1 SWAP2 SUB SWAP1 RETURN JUMPDEST PUSH2 0x215 PUSH2 0x645 JUMP JUMPDEST PUSH1 0x40 MLOAD PUSH2 0x222 SWAP2 SWAP1 PUSH2 0x3318 JUMP JUMPDEST PUSH1 0x40 MLOAD DUP1 SWAP2 SUB SWAP1 RETURN JUMPDEST PUSH2 0x233 PUSH2 0x64D JUMP JUMPDEST PUSH1 0x40 MLOAD PUSH2 0x240 SWAP2 SWAP1 PUSH2 0x3349 JUMP JUMPDEST PUSH1 0x40 MLOAD DUP1 SWAP2 SUB SWAP1 RETURN JUMPDEST PUSH2 0x263 PUSH1 0x4 DUP1 CALLDATASIZE SUB DUP2 ADD SWAP1 PUSH2 0x25E SWAP2 SWAP1 PUSH2 0x3362 JUMP JUMPDEST PUSH2 0x65B JUMP JUMPDEST STOP JUMPDEST PUSH2 0x27F PUSH1 0x4 DUP1 CALLDATASIZE SUB DUP2 ADD SWAP1 PUSH2 0x27A SWAP2 SWAP1 PUSH2 0x3362 JUMP JUMPDEST PUSH2 0x1342 JUMP JUMPDEST PUSH1 0x40 MLOAD PUSH2 0x28C SWAP2 SWAP1 PUSH2 0x326C JUMP JUMPDEST PUSH1 0x40 MLOAD DUP1 SWAP2 SUB SWAP1 RETURN JUMPDEST PUSH2 0x29D PUSH2 0x1388 JUMP JUMPDEST PUSH1 0x40 MLOAD PUSH2 0x2AA SWAP2 SWAP1 PUSH2 0x32E4 JUMP JUMPDEST PUSH1 0x40 MLOAD DUP1 SWAP2 SUB SWAP1 RETURN JUMPDEST PUSH2 0x2CD PUSH1 0x4 DUP1 CALLDATASIZE SUB DUP2 ADD SWAP1 PUSH2 0x2C8 SWAP2 SWAP1 PUSH2 0x3362 JUMP JUMPDEST PUSH2 0x13AD JUMP JUMPDEST PUSH1 0x40 MLOAD PUSH2 0x2DA SWAP2 SWAP1 PUSH2 0x326C JUMP JUMPDEST PUSH1 0x40 MLOAD DUP1 SWAP2 SUB SWAP1 RETURN JUMPDEST PUSH2 0x2EB PUSH2 0x13BE JUMP JUMPDEST PUSH1 0x40 MLOAD PUSH2 0x2FE SWAP8 SWAP7 SWAP6 SWAP5 SWAP4 SWAP3 SWAP2 SWAP1 PUSH2 0x347E JUMP JUMPDEST PUSH1 0x40 MLOAD DUP1 SWAP2 SUB SWAP1 RETURN JUMPDEST PUSH2 0x321 PUSH1 0x4 DUP1 CALLDATASIZE SUB DUP2 ADD SWAP1 PUSH2 0x31C SWAP2 SWAP1 PUSH2 0x3362 JUMP JUMPDEST PUSH2 0x1463 JUMP JUMPDEST STOP JUMPDEST PUSH2 0x32B PUSH2 0x1C28 JUMP JUMPDEST PUSH1 0x40 MLOAD PUSH2 0x338 SWAP2 SWAP1 PUSH2 0x3172 JUMP JUMPDEST PUSH1 0x40 MLOAD DUP1 SWAP2 SUB SWAP1 RETURN JUMPDEST PUSH2 0x35B PUSH1 0x4 DUP1 CALLDATASIZE SUB DUP2 ADD SWAP1 PUSH2 0x356 SWAP2 SWAP1 PUSH2 0x321F JUMP JUMPDEST PUSH2 0x1CCB JUMP JUMPDEST PUSH1 0x40 MLOAD PUSH2 0x368 SWAP2 SWAP1 PUSH2 0x30E9 JUMP JUMPDEST PUSH1 0x40 MLOAD DUP1 SWAP2 SUB SWAP1 RETURN JUMPDEST PUSH2 0x379 PUSH2 0x1CED JUMP JUMPDEST PUSH1 0x40 MLOAD PUSH2 0x386 SWAP2 SWAP1 PUSH2 0x32E4 JUMP JUMPDEST PUSH1 0x40 MLOAD DUP1 SWAP2 SUB SWAP1 RETURN JUMPDEST PUSH2 0x3A9 PUSH1 0x4 DUP1 CALLDATASIZE SUB DUP2 ADD SWAP1 PUSH2 0x3A4 SWAP2 SWAP1 PUSH2 0x3554 JUMP JUMPDEST PUSH2 0x1D10 JUMP JUMPDEST STOP JUMPDEST PUSH2 0x3C5 PUSH1 0x4 DUP1 CALLDATASIZE SUB DUP2 ADD SWAP1 PUSH2 0x3C0 SWAP2 SWAP1 PUSH2 0x35F1 JUMP JUMPDEST PUSH2 0x1E55 JUMP JUMPDEST PUSH1 0x40 MLOAD PUSH2 0x3D2 SWAP2 SWAP1 PUSH2 0x326C JUMP JUMPDEST PUSH1 0x40 MLOAD DUP1 SWAP2 SUB SWAP1 RETURN JUMPDEST PUSH0 PUSH32 0x9797A1DE00000000000000000000000000000000000000000000000000000000 PUSH28 0xFFFFFFFFFFFFFFFFFFFFFFFFFFFFFFFFFFFFFFFFFFFFFFFFFFFFFFFF NOT AND DUP3 PUSH28 0xFFFFFFFFFFFFFFFFFFFFFFFFFFFFFFFFFFFFFFFFFFFFFFFFFFFFFFFF NOT AND EQ DUP1 PUSH2 0x4A5 JUMPI POP PUSH32 0x9D8FF7DA00000000000000000000000000000000000000000000000000000000 PUSH28 0xFFFFFFFFFFFFFFFFFFFFFFFFFFFFFFFFFFFFFFFFFFFFFFFFFFFFFFFF NOT AND DUP3 PUSH28 0xFFFFFFFFFFFFFFFFFFFFFFFFFFFFFFFFFFFFFFFFFFFFFFFFFFFFFFFF NOT AND EQ JUMPDEST DUP1 PUSH2 0x50D JUMPI POP PUSH32 0x36372B0700000000000000000000000000000000000000000000000000000000 PUSH28 0xFFFFFFFFFFFFFFFFFFFFFFFFFFFFFFFFFFFFFFFFFFFFFFFFFFFFFFFF NOT AND DUP3 PUSH28 0xFFFFFFFFFFFFFFFFFFFFFFFFFFFFFFFFFFFFFFFFFFFFFFFFFFFFFFFF NOT AND EQ JUMPDEST DUP1 PUSH2 0x51D JUMPI POP PUSH2 0x51C DUP3 PUSH2 0x1ED7 JUMP JUMPDEST JUMPDEST SWAP1 POP SWAP2 SWAP1 POP JUMP JUMPDEST PUSH1 0x60 PUSH1 0x2 PUSH0 SWAP1 SLOAD SWAP1 PUSH2 0x100 EXP SWAP1 DIV PUSH20 0xFFFFFFFFFFFFFFFFFFFFFFFFFFFFFFFFFFFFFFFF AND PUSH20 0xFFFFFFFFFFFFFFFFFFFFFFFFFFFFFFFFFFFFFFFF AND PUSH4 0xED3B559F ADDRESS PUSH1 0x40 MLOAD DUP3 PUSH4 0xFFFFFFFF AND PUSH1 0xE0 SHL DUP2 MSTORE PUSH1 0x4 ADD PUSH2 0x580 SWAP2 SWAP1 PUSH2 0x32E4 JUMP JUMPDEST PUSH0 PUSH1 0x40 MLOAD DUP1 DUP4 SUB DUP2 DUP7 GAS STATICCALL ISZERO DUP1 ISZERO PUSH2 0x59A JUMPI RETURNDATASIZE PUSH0 DUP1 RETURNDATACOPY RETURNDATASIZE PUSH0 REVERT JUMPDEST POP POP POP POP PUSH1 0x40 MLOAD RETURNDATASIZE PUSH0 DUP3 RETURNDATACOPY RETURNDATASIZE PUSH1 0x1F NOT PUSH1 0x1F DUP3 ADD AND DUP3 ADD DUP1 PUSH1 0x40 MSTORE POP DUP2 ADD SWAP1 PUSH2 0x5C2 SWAP2 SWAP1 PUSH2 0x374D JUMP JUMPDEST SWAP1 POP SWAP1 JUMP JUMPDEST PUSH0 DUP1 PUSH2 0x5D1 PUSH2 0x1F40 JUMP JUMPDEST SWAP1 POP PUSH2 0x5DE DUP2 DUP6 DUP6 PUSH2 0x1F47 JUMP JUMPDEST PUSH1 0x1 SWAP2 POP POP SWAP3 SWAP2 POP POP JUMP JUMPDEST PUSH0 PUSH1 0xB SLOAD SWAP1 POP SWAP1 JUMP JUMPDEST PUSH0 DUP1 PUSH2 0x5FC PUSH2 0x1F40 JUMP JUMPDEST SWAP1 POP PUSH2 0x609 DUP6 DUP3 DUP6 PUSH2 0x1F59 JUMP JUMPDEST PUSH2 0x614 DUP6 DUP6 DUP6 PUSH2 0x1FEC JUMP JUMPDEST PUSH1 0x1 SWAP2 POP POP SWAP4 SWAP3 POP POP POP JUMP JUMPDEST PUSH1 0x1 PUSH0 SWAP1 SLOAD SWAP1 PUSH2 0x100 EXP SWAP1 DIV PUSH20 0xFFFFFFFFFFFFFFFFFFFFFFFFFFFFFFFFFFFFFFFF AND DUP2 JUMP JUMPDEST PUSH0 PUSH1 0x12 SWAP1 POP SWAP1 JUMP JUMPDEST PUSH0 PUSH2 0x656 PUSH2 0x2092 JUMP JUMPDEST SWAP1 POP SWAP1 JUMP JUMPDEST PUSH0 PUSH1 0x2 PUSH0 SWAP1 SLOAD SWAP1 PUSH2 0x100 EXP SWAP1 DIV PUSH20 0xFFFFFFFFFFFFFFFFFFFFFFFFFFFFFFFFFFFFFFFF AND PUSH20 0xFFFFFFFFFFFFFFFFFFFFFFFFFFFFFFFFFFFFFFFF AND PUSH4 0xAE2E933B PUSH1 0x40 MLOAD DUP2 PUSH4 0xFFFFFFFF AND PUSH1 0xE0 SHL DUP2 MSTORE PUSH1 0x4 ADD PUSH1 0x20 PUSH1 0x40 MLOAD DUP1 DUP4 SUB DUP2 DUP7 GAS STATICCALL ISZERO DUP1 ISZERO PUSH2 0x6C6 JUMPI RETURNDATASIZE PUSH0 DUP1 RETURNDATACOPY RETURNDATASIZE PUSH0 REVERT JUMPDEST POP POP POP POP PUSH1 0x40 MLOAD RETURNDATASIZE PUSH1 0x1F NOT PUSH1 0x1F DUP3 ADD AND DUP3 ADD DUP1 PUSH1 0x40 MSTORE POP DUP2 ADD SWAP1 PUSH2 0x6EA SWAP2 SWAP1 PUSH2 0x37A8 JUMP JUMPDEST SWAP1 POP PUSH2 0x6F5 DUP2 PUSH2 0x2148 JUMP JUMPDEST PUSH0 PUSH1 0x2 PUSH0 SWAP1 SLOAD SWAP1 PUSH2 0x100 EXP SWAP1 DIV PUSH20 0xFFFFFFFFFFFFFFFFFFFFFFFFFFFFFFFFFFFFFFFF AND PUSH20 0xFFFFFFFFFFFFFFFFFFFFFFFFFFFFFFFFFFFFFFFF AND PUSH4 0x2630C12F PUSH1 0x40 MLOAD DUP2 PUSH4 0xFFFFFFFF AND PUSH1 0xE0 SHL DUP2 MSTORE PUSH1 0x4 ADD PUSH1 0x20 PUSH1 0x40 MLOAD DUP1 DUP4 SUB DUP2 DUP7 GAS STATICCALL ISZERO DUP1 ISZERO PUSH2 0x760 JUMPI RETURNDATASIZE PUSH0 DUP1 RETURNDATACOPY RETURNDATASIZE PUSH0 REVERT JUMPDEST POP POP POP POP PUSH1 0x40 MLOAD RETURNDATASIZE PUSH1 0x1F NOT PUSH1 0x1F DUP3 ADD AND DUP3 ADD DUP1 PUSH1 0x40 MSTORE POP DUP2 ADD SWAP1 PUSH2 0x784 SWAP2 SWAP1 PUSH2 0x37A8 JUMP JUMPDEST SWAP1 POP PUSH0 DUP1 PUSH32 0xFFFFFFFFFFFFFFFFFFFFFFFFFFFFFFFFFFFFFFFFFFFFFFFFFFFFFFFFFFFFFFFF SWAP1 POP PUSH0 JUMPDEST PUSH2 0x7B7 PUSH1 0x4 PUSH2 0x2297 JUMP JUMPDEST DUP2 LT ISZERO PUSH2 0xD57 JUMPI PUSH1 0x2 PUSH0 SWAP1 SLOAD SWAP1 PUSH2 0x100 EXP SWAP1 DIV PUSH20 0xFFFFFFFFFFFFFFFFFFFFFFFFFFFFFFFFFFFFFFFF AND PUSH20 0xFFFFFFFFFFFFFFFFFFFFFFFFFFFFFFFFFFFFFFFF AND PUSH4 0x91D14854 PUSH32 0x86D5CF0A6BDC8D859BA3BDC97043337C82A0E609035F378E419298B6A3E00AE6 PUSH2 0x830 DUP5 PUSH1 0x4 PUSH2 0x22AA SWAP1 SWAP2 SWAP1 PUSH4 0xFFFFFFFF AND JUMP JUMPDEST PUSH1 0x40 MLOAD DUP4 PUSH4 0xFFFFFFFF AND PUSH1 0xE0 SHL DUP2 MSTORE PUSH1 0x4 ADD PUSH2 0x84D SWAP3 SWAP2 SWAP1 PUSH2 0x37D3 JUMP JUMPDEST PUSH1 0x20 PUSH1 0x40 MLOAD DUP1 DUP4 SUB DUP2 DUP7 GAS STATICCALL ISZERO DUP1 ISZERO PUSH2 0x868 JUMPI RETURNDATASIZE PUSH0 DUP1 RETURNDATACOPY RETURNDATASIZE PUSH0 REVERT JUMPDEST POP POP POP POP PUSH1 0x40 MLOAD RETURNDATASIZE PUSH1 0x1F NOT PUSH1 0x1F DUP3 ADD AND DUP3 ADD DUP1 PUSH1 0x40 MSTORE POP DUP2 ADD SWAP1 PUSH2 0x88C SWAP2 SWAP1 PUSH2 0x3824 JUMP JUMPDEST PUSH2 0x8CB JUMPI PUSH1 0x40 MLOAD PUSH32 0x8C379A000000000000000000000000000000000000000000000000000000000 DUP2 MSTORE PUSH1 0x4 ADD PUSH2 0x8C2 SWAP1 PUSH2 0x3899 JUMP JUMPDEST PUSH1 0x40 MLOAD DUP1 SWAP2 SUB SWAP1 REVERT JUMPDEST PUSH0 PUSH1 0x8 PUSH0 PUSH2 0x8E3 DUP5 PUSH1 0x4 PUSH2 0x22AA SWAP1 SWAP2 SWAP1 PUSH4 0xFFFFFFFF AND JUMP JUMPDEST PUSH20 0xFFFFFFFFFFFFFFFFFFFFFFFFFFFFFFFFFFFFFFFF AND PUSH20 0xFFFFFFFFFFFFFFFFFFFFFFFFFFFFFFFFFFFFFFFF AND DUP2 MSTORE PUSH1 0x20 ADD SWAP1 DUP2 MSTORE PUSH1 0x20 ADD PUSH0 KECCAK256 PUSH0 SWAP1 SLOAD SWAP1 PUSH2 0x100 EXP SWAP1 DIV PUSH1 0xFF AND PUSH1 0xFF AND SUB ISZERO PUSH2 0xD4C JUMPI PUSH0 DUP5 PUSH20 0xFFFFFFFFFFFFFFFFFFFFFFFFFFFFFFFFFFFFFFFF AND PUSH4 0xDA0449BE PUSH2 0x963 DUP5 PUSH1 0x4 PUSH2 0x22AA SWAP1 SWAP2 SWAP1 PUSH4 0xFFFFFFFF AND JUMP JUMPDEST PUSH1 0x40 MLOAD DUP3 PUSH4 0xFFFFFFFF AND PUSH1 0xE0 SHL DUP2 MSTORE PUSH1 0x4 ADD PUSH2 0x97F SWAP2 SWAP1 PUSH2 0x32E4 JUMP JUMPDEST PUSH1 0x20 PUSH1 0x40 MLOAD DUP1 DUP4 SUB DUP2 PUSH0 DUP8 GAS CALL ISZERO DUP1 ISZERO PUSH2 0x99B JUMPI RETURNDATASIZE PUSH0 DUP1 RETURNDATACOPY RETURNDATASIZE PUSH0 REVERT JUMPDEST POP POP POP POP PUSH1 0x40 MLOAD RETURNDATASIZE PUSH1 0x1F NOT PUSH1 0x1F DUP3 ADD AND DUP3 ADD DUP1 PUSH1 0x40 MSTORE POP DUP2 ADD SWAP1 PUSH2 0x9BF SWAP2 SWAP1 PUSH2 0x38CB JUMP JUMPDEST SWAP1 POP PUSH0 PUSH1 0x1 PUSH0 SWAP1 SLOAD SWAP1 PUSH2 0x100 EXP SWAP1 DIV PUSH20 0xFFFFFFFFFFFFFFFFFFFFFFFFFFFFFFFFFFFFFFFF AND PUSH20 0xFFFFFFFFFFFFFFFFFFFFFFFFFFFFFFFFFFFFFFFF AND PUSH4 0x5E12B644 PUSH2 0xA13 DUP6 PUSH1 0x4 PUSH2 0x22AA SWAP1 SWAP2 SWAP1 PUSH4 0xFFFFFFFF AND JUMP JUMPDEST PUSH1 0x40 MLOAD DUP3 PUSH4 0xFFFFFFFF AND PUSH1 0xE0 SHL DUP2 MSTORE PUSH1 0x4 ADD PUSH2 0xA2F SWAP2 SWAP1 PUSH2 0x32E4 JUMP JUMPDEST PUSH1 0x20 PUSH1 0x40 MLOAD DUP1 DUP4 SUB DUP2 PUSH0 DUP8 GAS CALL ISZERO DUP1 ISZERO PUSH2 0xA4B JUMPI RETURNDATASIZE PUSH0 DUP1 RETURNDATACOPY RETURNDATASIZE PUSH0 REVERT JUMPDEST POP POP POP POP PUSH1 0x40 MLOAD RETURNDATASIZE PUSH1 0x1F NOT PUSH1 0x1F DUP3 ADD AND DUP3 ADD DUP1 PUSH1 0x40 MSTORE POP DUP2 ADD SWAP1 PUSH2 0xA6F SWAP2 SWAP1 PUSH2 0x37A8 JUMP JUMPDEST SWAP1 POP PUSH0 DUP2 PUSH20 0xFFFFFFFFFFFFFFFFFFFFFFFFFFFFFFFFFFFFFFFF AND PUSH4 0x8F1C56BD PUSH1 0x40 MLOAD DUP2 PUSH4 0xFFFFFFFF AND PUSH1 0xE0 SHL DUP2 MSTORE PUSH1 0x4 ADD PUSH1 0x20 PUSH1 0x40 MLOAD DUP1 DUP4 SUB DUP2 DUP7 GAS STATICCALL ISZERO DUP1 ISZERO PUSH2 0xABB JUMPI RETURNDATASIZE PUSH0 DUP1 RETURNDATACOPY RETURNDATASIZE PUSH0 REVERT JUMPDEST POP POP POP POP PUSH1 0x40 MLOAD RETURNDATASIZE PUSH1 0x1F NOT PUSH1 0x1F DUP3 ADD AND DUP3 ADD DUP1 PUSH1 0x40 MSTORE POP DUP2 ADD SWAP1 PUSH2 0xADF SWAP2 SWAP1 PUSH2 0x38CB JUMP JUMPDEST PUSH2 0xAF3 DUP6 PUSH1 0x4 PUSH2 0x22AA SWAP1 SWAP2 SWAP1 PUSH4 0xFFFFFFFF AND JUMP JUMPDEST PUSH20 0xFFFFFFFFFFFFFFFFFFFFFFFFFFFFFFFFFFFFFFFF AND PUSH4 0x70A08231 DUP5 PUSH1 0x40 MLOAD DUP3 PUSH4 0xFFFFFFFF AND PUSH1 0xE0 SHL DUP2 MSTORE PUSH1 0x4 ADD PUSH2 0xB2B SWAP2 SWAP1 PUSH2 0x32E4 JUMP JUMPDEST PUSH1 0x20 PUSH1 0x40 MLOAD DUP1 DUP4 SUB DUP2 DUP7 GAS STATICCALL ISZERO DUP1 ISZERO PUSH2 0xB46 JUMPI RETURNDATASIZE PUSH0 DUP1 RETURNDATACOPY RETURNDATASIZE PUSH0 REVERT JUMPDEST POP POP POP POP PUSH1 0x40 MLOAD RETURNDATASIZE PUSH1 0x1F NOT PUSH1 0x1F DUP3 ADD AND DUP3 ADD DUP1 PUSH1 0x40 MSTORE POP DUP2 ADD SWAP1 PUSH2 0xB6A SWAP2 SWAP1 PUSH2 0x38CB JUMP JUMPDEST PUSH2 0xB74 SWAP2 SWAP1 PUSH2 0x3923 JUMP JUMPDEST SWAP1 POP PUSH0 PUSH1 0x8 PUSH0 PUSH2 0xB8E DUP8 PUSH1 0x4 PUSH2 0x22AA SWAP1 SWAP2 SWAP1 PUSH4 0xFFFFFFFF AND JUMP JUMPDEST PUSH20 0xFFFFFFFFFFFFFFFFFFFFFFFFFFFFFFFFFFFFFFFF AND PUSH20 0xFFFFFFFFFFFFFFFFFFFFFFFFFFFFFFFFFFFFFFFF AND DUP2 MSTORE PUSH1 0x20 ADD SWAP1 DUP2 MSTORE PUSH1 0x20 ADD PUSH0 KECCAK256 PUSH0 SWAP1 SLOAD SWAP1 PUSH2 0x100 EXP SWAP1 DIV PUSH1 0xFF AND PUSH1 0xFF AND DUP5 PUSH2 0xBE2 SWAP2 SWAP1 PUSH2 0x3956 JUMP JUMPDEST SWAP1 POP PUSH0 PUSH2 0xC17 PUSH1 0xFF DUP1 AND PUSH15 0x10000000000000000000000000000 PUSH2 0xC06 SWAP2 SWAP1 PUSH2 0x3956 JUMP JUMPDEST DUP4 DUP6 PUSH2 0x22C1 SWAP1 SWAP3 SWAP2 SWAP1 PUSH4 0xFFFFFFFF AND JUMP JUMPDEST SWAP1 POP DUP7 DUP2 LT ISZERO PUSH2 0xC25 JUMPI DUP1 SWAP7 POP JUMPDEST PUSH0 DUP5 PUSH20 0xFFFFFFFFFFFFFFFFFFFFFFFFFFFFFFFFFFFFFFFF AND PUSH4 0xBD3C3C00 ADDRESS PUSH1 0x40 MLOAD DUP3 PUSH4 0xFFFFFFFF AND PUSH1 0xE0 SHL DUP2 MSTORE PUSH1 0x4 ADD PUSH2 0xC5F SWAP2 SWAP1 PUSH2 0x32E4 JUMP JUMPDEST PUSH1 0x20 PUSH1 0x40 MLOAD DUP1 DUP4 SUB DUP2 DUP7 GAS STATICCALL ISZERO DUP1 ISZERO PUSH2 0xC7A JUMPI RETURNDATASIZE PUSH0 DUP1 RETURNDATACOPY RETURNDATASIZE PUSH0 REVERT JUMPDEST POP POP POP POP PUSH1 0x40 MLOAD RETURNDATASIZE PUSH1 0x1F NOT PUSH1 0x1F DUP3 ADD AND DUP3 ADD DUP1 PUSH1 0x40 MSTORE POP DUP2 ADD SWAP1 PUSH2 0xC9E SWAP2 SWAP1 PUSH2 0x38CB JUMP JUMPDEST SWAP1 POP DUP5 PUSH20 0xFFFFFFFFFFFFFFFFFFFFFFFFFFFFFFFFFFFFFFFF AND PUSH4 0x1249C58B PUSH1 0x40 MLOAD DUP2 PUSH4 0xFFFFFFFF AND PUSH1 0xE0 SHL DUP2 MSTORE PUSH1 0x4 ADD PUSH1 0x20 PUSH1 0x40 MLOAD DUP1 DUP4 SUB DUP2 PUSH0 DUP8 GAS CALL ISZERO DUP1 ISZERO PUSH2 0xCEA JUMPI RETURNDATASIZE PUSH0 DUP1 RETURNDATACOPY RETURNDATASIZE PUSH0 REVERT JUMPDEST POP POP POP POP PUSH1 0x40 MLOAD RETURNDATASIZE PUSH1 0x1F NOT PUSH1 0x1F DUP3 ADD AND DUP3 ADD DUP1 PUSH1 0x40 MSTORE POP DUP2 ADD SWAP1 PUSH2 0xD0E SWAP2 SWAP1 PUSH2 0x38CB JUMP JUMPDEST POP PUSH0 PUSH2 0xD34 PUSH15 0x10000000000000000000000000000 DUP9 DUP5 PUSH2 0x22C1 SWAP1 SWAP3 SWAP2 SWAP1 PUSH4 0xFFFFFFFF AND JUMP JUMPDEST SWAP1 POP DUP1 DUP11 PUSH2 0xD42 SWAP2 SWAP1 PUSH2 0x3997 JUMP JUMPDEST SWAP10 POP POP POP POP POP POP POP POP JUMPDEST DUP1 PUSH1 0x1 ADD SWAP1 POP PUSH2 0x7AD JUMP JUMPDEST POP PUSH0 JUMPDEST PUSH2 0xD64 PUSH1 0x6 PUSH2 0x2297 JUMP JUMPDEST DUP2 LT ISZERO PUSH2 0x102D JUMPI PUSH1 0x2 PUSH0 SWAP1 SLOAD SWAP1 PUSH2 0x100 EXP SWAP1 DIV PUSH20 0xFFFFFFFFFFFFFFFFFFFFFFFFFFFFFFFFFFFFFFFF AND PUSH20 0xFFFFFFFFFFFFFFFFFFFFFFFFFFFFFFFFFFFFFFFF AND PUSH4 0x91D14854 PUSH32 0x4963DCFD342C3F63BD1B992AFC723AE72706277470D47567F30DFC6DCEE9F11E PUSH2 0xDDD DUP5 PUSH1 0x6 PUSH2 0x22AA SWAP1 SWAP2 SWAP1 PUSH4 0xFFFFFFFF AND JUMP JUMPDEST PUSH1 0x40 MLOAD DUP4 PUSH4 0xFFFFFFFF AND PUSH1 0xE0 SHL DUP2 MSTORE PUSH1 0x4 ADD PUSH2 0xDFA SWAP3 SWAP2 SWAP1 PUSH2 0x37D3 JUMP JUMPDEST PUSH1 0x20 PUSH1 0x40 MLOAD DUP1 DUP4 SUB DUP2 DUP7 GAS STATICCALL ISZERO DUP1 ISZERO PUSH2 0xE15 JUMPI RETURNDATASIZE PUSH0 DUP1 RETURNDATACOPY RETURNDATASIZE PUSH0 REVERT JUMPDEST POP POP POP POP PUSH1 0x40 MLOAD RETURNDATASIZE PUSH1 0x1F NOT PUSH1 0x1F DUP3 ADD AND DUP3 ADD DUP1 PUSH1 0x40 MSTORE POP DUP2 ADD SWAP1 PUSH2 0xE39 SWAP2 SWAP1 PUSH2 0x3824 JUMP JUMPDEST PUSH2 0x1022 JUMPI PUSH0 PUSH1 0x1 PUSH0 SWAP1 SLOAD SWAP1 PUSH2 0x100 EXP SWAP1 DIV PUSH20 0xFFFFFFFFFFFFFFFFFFFFFFFFFFFFFFFFFFFFFFFF AND PUSH20 0xFFFFFFFFFFFFFFFFFFFFFFFFFFFFFFFFFFFFFFFF AND PUSH4 0x5E12B644 PUSH2 0xE8F DUP5 PUSH1 0x6 PUSH2 0x22AA SWAP1 SWAP2 SWAP1 PUSH4 0xFFFFFFFF AND JUMP JUMPDEST PUSH1 0x40 MLOAD DUP3 PUSH4 0xFFFFFFFF AND PUSH1 0xE0 SHL DUP2 MSTORE PUSH1 0x4 ADD PUSH2 0xEAB SWAP2 SWAP1 PUSH2 0x32E4 JUMP JUMPDEST PUSH1 0x20 PUSH1 0x40 MLOAD DUP1 DUP4 SUB DUP2 PUSH0 DUP8 GAS CALL ISZERO DUP1 ISZERO PUSH2 0xEC7 JUMPI RETURNDATASIZE PUSH0 DUP1 RETURNDATACOPY RETURNDATASIZE PUSH0 REVERT JUMPDEST POP POP POP POP PUSH1 0x40 MLOAD RETURNDATASIZE PUSH1 0x1F NOT PUSH1 0x1F DUP3 ADD AND DUP3 ADD DUP1 PUSH1 0x40 MSTORE POP DUP2 ADD SWAP1 PUSH2 0xEEB SWAP2 SWAP1 PUSH2 0x37A8 JUMP JUMPDEST PUSH20 0xFFFFFFFFFFFFFFFFFFFFFFFFFFFFFFFFFFFFFFFF AND PUSH4 0xBD3C3C00 ADDRESS PUSH1 0x40 MLOAD DUP3 PUSH4 0xFFFFFFFF AND PUSH1 0xE0 SHL DUP2 MSTORE PUSH1 0x4 ADD PUSH2 0xF23 SWAP2 SWAP1 PUSH2 0x32E4 JUMP JUMPDEST PUSH1 0x20 PUSH1 0x40 MLOAD DUP1 DUP4 SUB DUP2 DUP7 GAS STATICCALL ISZERO DUP1 ISZERO PUSH2 0xF3E JUMPI RETURNDATASIZE PUSH0 DUP1 RETURNDATACOPY RETURNDATASIZE PUSH0 REVERT JUMPDEST POP POP POP POP PUSH1 0x40 MLOAD RETURNDATASIZE PUSH1 0x1F NOT PUSH1 0x1F DUP3 ADD AND DUP3 ADD DUP1 PUSH1 0x40 MSTORE POP DUP2 ADD SWAP1 PUSH2 0xF62 SWAP2 SWAP1 PUSH2 0x38CB JUMP JUMPDEST SWAP1 POP PUSH2 0x1013 PUSH15 0x10000000000000000000000000000 DUP7 PUSH20 0xFFFFFFFFFFFFFFFFFFFFFFFFFFFFFFFFFFFFFFFF AND PUSH4 0xDA0449BE PUSH2 0xFA7 DUP7 PUSH1 0x6 PUSH2 0x22AA SWAP1 SWAP2 SWAP1 PUSH4 0xFFFFFFFF AND JUMP JUMPDEST PUSH1 0x40 MLOAD DUP3 PUSH4 0xFFFFFFFF AND PUSH1 0xE0 SHL DUP2 MSTORE PUSH1 0x4 ADD PUSH2 0xFC3 SWAP2 SWAP1 PUSH2 0x32E4 JUMP JUMPDEST PUSH1 0x20 PUSH1 0x40 MLOAD DUP1 DUP4 SUB DUP2 PUSH0 DUP8 GAS CALL ISZERO DUP1 ISZERO PUSH2 0xFDF JUMPI RETURNDATASIZE PUSH0 DUP1 RETURNDATACOPY RETURNDATASIZE PUSH0 REVERT JUMPDEST POP POP POP POP PUSH1 0x40 MLOAD RETURNDATASIZE PUSH1 0x1F NOT PUSH1 0x1F DUP3 ADD AND DUP3 ADD DUP1 PUSH1 0x40 MSTORE POP DUP2 ADD SWAP1 PUSH2 0x1003 SWAP2 SWAP1 PUSH2 0x38CB JUMP JUMPDEST DUP4 PUSH2 0x22C1 SWAP1 SWAP3 SWAP2 SWAP1 PUSH4 0xFFFFFFFF AND JUMP JUMPDEST DUP5 PUSH2 0x101E SWAP2 SWAP1 PUSH2 0x3997 JUMP JUMPDEST SWAP4 POP POP JUMPDEST DUP1 PUSH1 0x1 ADD SWAP1 POP PUSH2 0xD5A JUMP JUMPDEST POP PUSH32 0xFFFFFFFFFFFFFFFFFFFFFFFFFFFFFFFFFFFFFFFFFFFFFFFFFFFFFFFFFFFFFFFF DUP2 SUB PUSH2 0x105E JUMPI PUSH2 0x105D PUSH2 0x39CA JUMP JUMPDEST JUMPDEST PUSH0 DUP1 PUSH2 0x1068 PUSH2 0x5E9 JUMP JUMPDEST EQ PUSH2 0x11D4 JUMPI PUSH0 DUP4 GT PUSH2 0x10AF JUMPI PUSH1 0x40 MLOAD PUSH32 0x8C379A000000000000000000000000000000000000000000000000000000000 DUP2 MSTORE PUSH1 0x4 ADD PUSH2 0x10A6 SWAP1 PUSH2 0x3A41 JUMP JUMPDEST PUSH1 0x40 MLOAD DUP1 SWAP2 SUB SWAP1 REVERT JUMPDEST DUP4 PUSH20 0xFFFFFFFFFFFFFFFFFFFFFFFFFFFFFFFFFFFFFFFF AND PUSH4 0xB8AA4124 DUP5 PUSH2 0x10D4 PUSH2 0x645 JUMP JUMPDEST PUSH1 0x40 MLOAD DUP4 PUSH4 0xFFFFFFFF AND PUSH1 0xE0 SHL DUP2 MSTORE PUSH1 0x4 ADD PUSH2 0x10F1 SWAP3 SWAP2 SWAP1 PUSH2 0x3A5F JUMP JUMPDEST PUSH1 0x20 PUSH1 0x40 MLOAD DUP1 DUP4 SUB DUP2 DUP7 GAS STATICCALL ISZERO DUP1 ISZERO PUSH2 0x110C JUMPI RETURNDATASIZE PUSH0 DUP1 RETURNDATACOPY RETURNDATASIZE PUSH0 REVERT JUMPDEST POP POP POP POP PUSH1 0x40 MLOAD RETURNDATASIZE PUSH1 0x1F NOT PUSH1 0x1F DUP3 ADD AND DUP3 ADD DUP1 PUSH1 0x40 MSTORE POP DUP2 ADD SWAP1 PUSH2 0x1130 SWAP2 SWAP1 PUSH2 0x38CB JUMP JUMPDEST PUSH2 0x1138 PUSH2 0x5E9 JUMP JUMPDEST DUP6 PUSH20 0xFFFFFFFFFFFFFFFFFFFFFFFFFFFFFFFFFFFFFFFF AND PUSH4 0xB8AA4124 DUP6 PUSH2 0x115D PUSH2 0x645 JUMP JUMPDEST PUSH1 0x40 MLOAD DUP4 PUSH4 0xFFFFFFFF AND PUSH1 0xE0 SHL DUP2 MSTORE PUSH1 0x4 ADD PUSH2 0x117A SWAP3 SWAP2 SWAP1 PUSH2 0x3A5F JUMP JUMPDEST PUSH1 0x20 PUSH1 0x40 MLOAD DUP1 DUP4 SUB DUP2 DUP7 GAS STATICCALL ISZERO DUP1 ISZERO PUSH2 0x1195 JUMPI RETURNDATASIZE PUSH0 DUP1 RETURNDATACOPY RETURNDATASIZE PUSH0 REVERT JUMPDEST POP POP POP POP PUSH1 0x40 MLOAD RETURNDATASIZE PUSH1 0x1F NOT PUSH1 0x1F DUP3 ADD AND DUP3 ADD DUP1 PUSH1 0x40 MSTORE POP DUP2 ADD SWAP1 PUSH2 0x11B9 SWAP2 SWAP1 PUSH2 0x38CB JUMP JUMPDEST PUSH2 0x11C3 SWAP2 SWAP1 PUSH2 0x3956 JUMP JUMPDEST PUSH2 0x11CD SWAP2 SWAP1 PUSH2 0x3AB3 JUMP JUMPDEST SWAP1 POP PUSH2 0x1273 JUMP JUMPDEST PUSH2 0x2710 DUP5 PUSH20 0xFFFFFFFFFFFFFFFFFFFFFFFFFFFFFFFFFFFFFFFF AND PUSH4 0xB8AA4124 DUP5 PUSH2 0x11FC PUSH2 0x645 JUMP JUMPDEST PUSH1 0x40 MLOAD DUP4 PUSH4 0xFFFFFFFF AND PUSH1 0xE0 SHL DUP2 MSTORE PUSH1 0x4 ADD PUSH2 0x1219 SWAP3 SWAP2 SWAP1 PUSH2 0x3A5F JUMP JUMPDEST PUSH1 0x20 PUSH1 0x40 MLOAD DUP1 DUP4 SUB DUP2 DUP7 GAS STATICCALL ISZERO DUP1 ISZERO PUSH2 0x1234 JUMPI RETURNDATASIZE PUSH0 DUP1 RETURNDATACOPY RETURNDATASIZE PUSH0 REVERT JUMPDEST POP POP POP POP PUSH1 0x40 MLOAD RETURNDATASIZE PUSH1 0x1F NOT PUSH1 0x1F DUP3 ADD AND DUP3 ADD DUP1 PUSH1 0x40 MSTORE POP DUP2 ADD SWAP1 PUSH2 0x1258 SWAP2 SWAP1 PUSH2 0x38CB JUMP JUMPDEST PUSH2 0x1262 SWAP2 SWAP1 PUSH2 0x3923 JUMP JUMPDEST SWAP1 POP PUSH2 0x1272 PUSH2 0xDEAD PUSH2 0x2710 PUSH2 0x2391 JUMP JUMPDEST JUMPDEST PUSH0 PUSH2 0x2710 PUSH2 0xFFFF AND DUP7 PUSH20 0xFFFFFFFFFFFFFFFFFFFFFFFFFFFFFFFFFFFFFFFF AND PUSH4 0x5AD88C1A ADDRESS PUSH1 0x40 MLOAD DUP3 PUSH4 0xFFFFFFFF AND PUSH1 0xE0 SHL DUP2 MSTORE PUSH1 0x4 ADD PUSH2 0x12B4 SWAP2 SWAP1 PUSH2 0x32E4 JUMP JUMPDEST PUSH1 0x20 PUSH1 0x40 MLOAD DUP1 DUP4 SUB DUP2 DUP7 GAS STATICCALL ISZERO DUP1 ISZERO PUSH2 0x12CF JUMPI RETURNDATASIZE PUSH0 DUP1 RETURNDATACOPY RETURNDATASIZE PUSH0 REVERT JUMPDEST POP POP POP POP PUSH1 0x40 MLOAD RETURNDATASIZE PUSH1 0x1F NOT PUSH1 0x1F DUP3 ADD AND DUP3 ADD DUP1 PUSH1 0x40 MSTORE POP DUP2 ADD SWAP1 PUSH2 0x12F3 SWAP2 SWAP1 PUSH2 0x3B1A JUMP JUMPDEST PUSH2 0xFFFF AND DUP4 PUSH2 0x1302 SWAP2 SWAP1 PUSH2 0x3956 JUMP JUMPDEST PUSH2 0x130C SWAP2 SWAP1 PUSH2 0x3AB3 JUMP JUMPDEST SWAP1 POP PUSH0 DUP2 GT ISZERO PUSH2 0x132F JUMPI PUSH2 0x1320 DUP7 DUP3 PUSH2 0x2391 JUMP JUMPDEST DUP1 DUP3 PUSH2 0x132C SWAP2 SWAP1 PUSH2 0x3923 JUMP JUMPDEST SWAP2 POP JUMPDEST PUSH2 0x1339 DUP8 DUP4 PUSH2 0x2391 JUMP JUMPDEST POP POP POP POP POP POP POP JUMP JUMPDEST PUSH0 PUSH1 0x9 PUSH0 DUP4 PUSH20 0xFFFFFFFFFFFFFFFFFFFFFFFFFFFFFFFFFFFFFFFF AND PUSH20 0xFFFFFFFFFFFFFFFFFFFFFFFFFFFFFFFFFFFFFFFF AND DUP2 MSTORE PUSH1 0x20 ADD SWAP1 DUP2 MSTORE PUSH1 0x20 ADD PUSH0 KECCAK256 SLOAD SWAP1 POP SWAP2 SWAP1 POP JUMP JUMPDEST PUSH1 0x2 PUSH0 SWAP1 SLOAD SWAP1 PUSH2 0x100 EXP SWAP1 DIV PUSH20 0xFFFFFFFFFFFFFFFFFFFFFFFFFFFFFFFFFFFFFFFF AND DUP2 JUMP JUMPDEST PUSH0 PUSH2 0x13B7 DUP3 PUSH2 0x2410 JUMP JUMPDEST SWAP1 POP SWAP2 SWAP1 POP JUMP JUMPDEST PUSH0 PUSH1 0x60 DUP1 PUSH0 DUP1 PUSH0 PUSH1 0x60 PUSH2 0x13CF PUSH2 0x2456 JUMP JUMPDEST PUSH2 0x13D7 PUSH2 0x2491 JUMP JUMPDEST CHAINID ADDRESS PUSH0 DUP1 SHL PUSH0 PUSH8 0xFFFFFFFFFFFFFFFF DUP2 GT ISZERO PUSH2 0x13F6 JUMPI PUSH2 0x13F5 PUSH2 0x3637 JUMP JUMPDEST JUMPDEST PUSH1 0x40 MLOAD SWAP1 DUP1 DUP3 MSTORE DUP1 PUSH1 0x20 MUL PUSH1 0x20 ADD DUP3 ADD PUSH1 0x40 MSTORE DUP1 ISZERO PUSH2 0x1424 JUMPI DUP2 PUSH1 0x20 ADD PUSH1 0x20 DUP3 MUL DUP1 CALLDATASIZE DUP4 CALLDATACOPY DUP1 DUP3 ADD SWAP2 POP POP SWAP1 POP JUMPDEST POP PUSH32 0xF00000000000000000000000000000000000000000000000000000000000000 SWAP6 SWAP5 SWAP4 SWAP3 SWAP2 SWAP1 SWAP7 POP SWAP7 POP SWAP7 POP SWAP7 POP SWAP7 POP SWAP7 POP SWAP7 POP SWAP1 SWAP2 SWAP3 SWAP4 SWAP5 SWAP6 SWAP7 JUMP JUMPDEST PUSH0 PUSH2 0x146D ADDRESS PUSH2 0x1342 JUMP JUMPDEST SWAP1 POP PUSH0 DUP2 GT PUSH2 0x14B1 JUMPI PUSH1 0x40 MLOAD PUSH32 0x8C379A000000000000000000000000000000000000000000000000000000000 DUP2 MSTORE PUSH1 0x4 ADD PUSH2 0x14A8 SWAP1 PUSH2 0x3A41 JUMP JUMPDEST PUSH1 0x40 MLOAD DUP1 SWAP2 SUB SWAP1 REVERT JUMPDEST PUSH0 PUSH2 0x14BC PUSH1 0x4 PUSH2 0x2297 JUMP JUMPDEST SWAP1 POP PUSH0 DUP1 JUMPDEST DUP3 DUP2 LT ISZERO PUSH2 0x15AF JUMPI PUSH1 0x2 PUSH0 SWAP1 SLOAD SWAP1 PUSH2 0x100 EXP SWAP1 DIV PUSH20 0xFFFFFFFFFFFFFFFFFFFFFFFFFFFFFFFFFFFFFFFF AND PUSH20 0xFFFFFFFFFFFFFFFFFFFFFFFFFFFFFFFFFFFFFFFF AND PUSH4 0x91D14854 PUSH32 0x86D5CF0A6BDC8D859BA3BDC97043337C82A0E609035F378E419298B6A3E00AE6 PUSH2 0x153B DUP5 PUSH1 0x4 PUSH2 0x22AA SWAP1 SWAP2 SWAP1 PUSH4 0xFFFFFFFF AND JUMP JUMPDEST PUSH1 0x40 MLOAD DUP4 PUSH4 0xFFFFFFFF AND PUSH1 0xE0 SHL DUP2 MSTORE PUSH1 0x4 ADD PUSH2 0x1558 SWAP3 SWAP2 SWAP1 PUSH2 0x37D3 JUMP JUMPDEST PUSH1 0x20 PUSH1 0x40 MLOAD DUP1 DUP4 SUB DUP2 DUP7 GAS STATICCALL ISZERO DUP1 ISZERO PUSH2 0x1573 JUMPI RETURNDATASIZE PUSH0 DUP1 RETURNDATACOPY RETURNDATASIZE PUSH0 REVERT JUMPDEST POP POP POP POP PUSH1 0x40 MLOAD RETURNDATASIZE PUSH1 0x1F NOT PUSH1 0x1F DUP3 ADD AND DUP3 ADD DUP1 PUSH1 0x40 MSTORE POP DUP2 ADD SWAP1 PUSH2 0x1597 SWAP2 SWAP1 PUSH2 0x3824 JUMP JUMPDEST PUSH2 0x15A4 JUMPI PUSH1 0x1 SWAP2 POP PUSH2 0x15AF JUMP JUMPDEST DUP1 PUSH1 0x1 ADD SWAP1 POP PUSH2 0x14C1 JUMP JUMPDEST POP DUP1 PUSH2 0x1714 JUMPI PUSH0 PUSH1 0x2 PUSH0 SWAP1 SLOAD SWAP1 PUSH2 0x100 EXP SWAP1 DIV PUSH20 0xFFFFFFFFFFFFFFFFFFFFFFFFFFFFFFFFFFFFFFFF AND PUSH20 0xFFFFFFFFFFFFFFFFFFFFFFFFFFFFFFFFFFFFFFFF AND PUSH4 0xAE2E933B PUSH1 0x40 MLOAD DUP2 PUSH4 0xFFFFFFFF AND PUSH1 0xE0 SHL DUP2 MSTORE PUSH1 0x4 ADD PUSH1 0x20 PUSH1 0x40 MLOAD DUP1 DUP4 SUB DUP2 DUP7 GAS STATICCALL ISZERO DUP1 ISZERO PUSH2 0x1620 JUMPI RETURNDATASIZE PUSH0 DUP1 RETURNDATACOPY RETURNDATASIZE PUSH0 REVERT JUMPDEST POP POP POP POP PUSH1 0x40 MLOAD RETURNDATASIZE PUSH1 0x1F NOT PUSH1 0x1F DUP3 ADD AND DUP3 ADD DUP1 PUSH1 0x40 MSTORE POP DUP2 ADD SWAP1 PUSH2 0x1644 SWAP2 SWAP1 PUSH2 0x37A8 JUMP JUMPDEST SWAP1 POP PUSH0 PUSH2 0x2710 PUSH2 0xFFFF AND DUP3 PUSH20 0xFFFFFFFFFFFFFFFFFFFFFFFFFFFFFFFFFFFFFFFF AND PUSH4 0xA7853436 ADDRESS PUSH1 0x40 MLOAD DUP3 PUSH4 0xFFFFFFFF AND PUSH1 0xE0 SHL DUP2 MSTORE PUSH1 0x4 ADD PUSH2 0x1687 SWAP2 SWAP1 PUSH2 0x32E4 JUMP JUMPDEST PUSH1 0x20 PUSH1 0x40 MLOAD DUP1 DUP4 SUB DUP2 DUP7 GAS STATICCALL ISZERO DUP1 ISZERO PUSH2 0x16A2 JUMPI RETURNDATASIZE PUSH0 DUP1 RETURNDATACOPY RETURNDATASIZE PUSH0 REVERT JUMPDEST POP POP POP POP PUSH1 0x40 MLOAD RETURNDATASIZE PUSH1 0x1F NOT PUSH1 0x1F DUP3 ADD AND DUP3 ADD DUP1 PUSH1 0x40 MSTORE POP DUP2 ADD SWAP1 PUSH2 0x16C6 SWAP2 SWAP1 PUSH2 0x3B1A JUMP JUMPDEST PUSH2 0xFFFF AND DUP7 PUSH2 0x16D5 SWAP2 SWAP1 PUSH2 0x3956 JUMP JUMPDEST PUSH2 0x16DF SWAP2 SWAP1 PUSH2 0x3AB3 JUMP JUMPDEST SWAP1 POP PUSH0 DUP2 GT ISZERO PUSH2 0x1707 JUMPI PUSH2 0x16F4 ADDRESS DUP4 DUP4 PUSH2 0x1FEC JUMP JUMPDEST DUP1 DUP6 PUSH2 0x1700 SWAP2 SWAP1 PUSH2 0x3923 JUMP JUMPDEST SWAP5 POP PUSH2 0x1711 JUMP JUMPDEST PUSH2 0x1710 DUP3 PUSH2 0x2148 JUMP JUMPDEST JUMPDEST POP POP JUMPDEST PUSH0 PUSH1 0x2 PUSH0 SWAP1 SLOAD SWAP1 PUSH2 0x100 EXP SWAP1 DIV PUSH20 0xFFFFFFFFFFFFFFFFFFFFFFFFFFFFFFFFFFFFFFFF AND PUSH20 0xFFFFFFFFFFFFFFFFFFFFFFFFFFFFFFFFFFFFFFFF AND PUSH4 0x628CF32F PUSH1 0x40 MLOAD DUP2 PUSH4 0xFFFFFFFF AND PUSH1 0xE0 SHL DUP2 MSTORE PUSH1 0x4 ADD PUSH1 0x20 PUSH1 0x40 MLOAD DUP1 DUP4 SUB DUP2 DUP7 GAS STATICCALL ISZERO DUP1 ISZERO PUSH2 0x177F JUMPI RETURNDATASIZE PUSH0 DUP1 RETURNDATACOPY RETURNDATASIZE PUSH0 REVERT JUMPDEST POP POP POP POP PUSH1 0x40 MLOAD RETURNDATASIZE PUSH1 0x1F NOT PUSH1 0x1F DUP3 ADD AND DUP3 ADD DUP1 PUSH1 0x40 MSTORE POP DUP2 ADD SWAP1 PUSH2 0x17A3 SWAP2 SWAP1 PUSH2 0x37A8 JUMP JUMPDEST SWAP1 POP PUSH0 DUP2 PUSH20 0xFFFFFFFFFFFFFFFFFFFFFFFFFFFFFFFFFFFFFFFF AND PUSH3 0xA2E792 ADDRESS PUSH1 0x40 MLOAD DUP3 PUSH4 0xFFFFFFFF AND PUSH1 0xE0 SHL DUP2 MSTORE PUSH1 0x4 ADD PUSH2 0x17DE SWAP2 SWAP1 PUSH2 0x32E4 JUMP JUMPDEST PUSH1 0x20 PUSH1 0x40 MLOAD DUP1 DUP4 SUB DUP2 DUP7 GAS STATICCALL ISZERO DUP1 ISZERO PUSH2 0x17F9 JUMPI RETURNDATASIZE PUSH0 DUP1 RETURNDATACOPY RETURNDATASIZE PUSH0 REVERT JUMPDEST POP POP POP POP PUSH1 0x40 MLOAD RETURNDATASIZE PUSH1 0x1F NOT PUSH1 0x1F DUP3 ADD AND DUP3 ADD DUP1 PUSH1 0x40 MSTORE POP DUP2 ADD SWAP1 PUSH2 0x181D SWAP2 SWAP1 PUSH2 0x38CB JUMP JUMPDEST SWAP1 POP PUSH0 JUMPDEST PUSH2 0x182B PUSH1 0x6 PUSH2 0x2297 JUMP JUMPDEST DUP6 PUSH2 0x1836 SWAP2 SWAP1 PUSH2 0x3997 JUMP JUMPDEST DUP2 LT ISZERO PUSH2 0x1C15 JUMPI PUSH0 DUP6 DUP3 LT PUSH2 0x1869 JUMPI PUSH2 0x1864 DUP7 DUP4 PUSH2 0x1854 SWAP2 SWAP1 PUSH2 0x3923 JUMP JUMPDEST PUSH1 0x6 PUSH2 0x22AA SWAP1 SWAP2 SWAP1 PUSH4 0xFFFFFFFF AND JUMP JUMPDEST PUSH2 0x187E JUMP JUMPDEST PUSH2 0x187D DUP3 PUSH1 0x4 PUSH2 0x22AA SWAP1 SWAP2 SWAP1 PUSH4 0xFFFFFFFF AND JUMP JUMPDEST JUMPDEST SWAP1 POP DUP5 DUP1 ISZERO PUSH2 0x1944 JUMPI POP PUSH1 0x2 PUSH0 SWAP1 SLOAD SWAP1 PUSH2 0x100 EXP SWAP1 DIV PUSH20 0xFFFFFFFFFFFFFFFFFFFFFFFFFFFFFFFFFFFFFFFF AND PUSH20 0xFFFFFFFFFFFFFFFFFFFFFFFFFFFFFFFFFFFFFFFF AND PUSH4 0x91D14854 PUSH32 0x4963DCFD342C3F63BD1B992AFC723AE72706277470D47567F30DFC6DCEE9F11E DUP4 PUSH1 0x40 MLOAD DUP4 PUSH4 0xFFFFFFFF AND PUSH1 0xE0 SHL DUP2 MSTORE PUSH1 0x4 ADD PUSH2 0x1904 SWAP3 SWAP2 SWAP1 PUSH2 0x37D3 JUMP JUMPDEST PUSH1 0x20 PUSH1 0x40 MLOAD DUP1 DUP4 SUB DUP2 DUP7 GAS STATICCALL ISZERO DUP1 ISZERO PUSH2 0x191F JUMPI RETURNDATASIZE PUSH0 DUP1 RETURNDATACOPY RETURNDATASIZE PUSH0 REVERT JUMPDEST POP POP POP POP PUSH1 0x40 MLOAD RETURNDATASIZE PUSH1 0x1F NOT PUSH1 0x1F DUP3 ADD AND DUP3 ADD DUP1 PUSH1 0x40 MSTORE POP DUP2 ADD SWAP1 PUSH2 0x1943 SWAP2 SWAP1 PUSH2 0x3824 JUMP JUMPDEST JUMPDEST ISZERO PUSH2 0x194F JUMPI POP PUSH2 0x1C0A JUMP JUMPDEST PUSH0 PUSH1 0x1 PUSH0 SWAP1 SLOAD SWAP1 PUSH2 0x100 EXP SWAP1 DIV PUSH20 0xFFFFFFFFFFFFFFFFFFFFFFFFFFFFFFFFFFFFFFFF AND PUSH20 0xFFFFFFFFFFFFFFFFFFFFFFFFFFFFFFFFFFFFFFFF AND PUSH4 0x9748E5CA DUP4 PUSH1 0x40 MLOAD DUP3 PUSH4 0xFFFFFFFF AND PUSH1 0xE0 SHL DUP2 MSTORE PUSH1 0x4 ADD PUSH2 0x19AA SWAP2 SWAP1 PUSH2 0x32E4 JUMP JUMPDEST PUSH1 0x20 PUSH1 0x40 MLOAD DUP1 DUP4 SUB DUP2 DUP7 GAS STATICCALL ISZERO DUP1 ISZERO PUSH2 0x19C5 JUMPI RETURNDATASIZE PUSH0 DUP1 RETURNDATACOPY RETURNDATASIZE PUSH0 REVERT JUMPDEST POP POP POP POP PUSH1 0x40 MLOAD RETURNDATASIZE PUSH1 0x1F NOT PUSH1 0x1F DUP3 ADD AND DUP3 ADD DUP1 PUSH1 0x40 MSTORE POP DUP2 ADD SWAP1 PUSH2 0x19E9 SWAP2 SWAP1 PUSH2 0x37A8 JUMP JUMPDEST SWAP1 POP PUSH0 DUP2 PUSH20 0xFFFFFFFFFFFFFFFFFFFFFFFFFFFFFFFFFFFFFFFF AND PUSH4 0x70A08231 ADDRESS PUSH1 0x40 MLOAD DUP3 PUSH4 0xFFFFFFFF AND PUSH1 0xE0 SHL DUP2 MSTORE PUSH1 0x4 ADD PUSH2 0x1A25 SWAP2 SWAP1 PUSH2 0x32E4 JUMP JUMPDEST PUSH1 0x20 PUSH1 0x40 MLOAD DUP1 DUP4 SUB DUP2 DUP7 GAS STATICCALL ISZERO DUP1 ISZERO PUSH2 0x1A40 JUMPI RETURNDATASIZE PUSH0 DUP1 RETURNDATACOPY RETURNDATASIZE PUSH0 REVERT JUMPDEST POP POP POP POP PUSH1 0x40 MLOAD RETURNDATASIZE PUSH1 0x1F NOT PUSH1 0x1F DUP3 ADD AND DUP3 ADD DUP1 PUSH1 0x40 MSTORE POP DUP2 ADD SWAP1 PUSH2 0x1A64 SWAP2 SWAP1 PUSH2 0x38CB JUMP JUMPDEST SWAP1 POP PUSH0 PUSH2 0x1A6F PUSH2 0x5E9 JUMP JUMPDEST DUP3 DUP12 PUSH2 0x1A7B SWAP2 SWAP1 PUSH2 0x3956 JUMP JUMPDEST PUSH2 0x1A85 SWAP2 SWAP1 PUSH2 0x3AB3 JUMP JUMPDEST SWAP1 POP PUSH0 DUP2 SUB PUSH2 0x1A97 JUMPI POP POP POP POP PUSH2 0x1C0A JUMP JUMPDEST DUP3 PUSH20 0xFFFFFFFFFFFFFFFFFFFFFFFFFFFFFFFFFFFFFFFF AND PUSH4 0xA9059CBB DUP5 DUP4 PUSH1 0x40 MLOAD DUP4 PUSH4 0xFFFFFFFF AND PUSH1 0xE0 SHL DUP2 MSTORE PUSH1 0x4 ADD PUSH2 0x1AD2 SWAP3 SWAP2 SWAP1 PUSH2 0x3B45 JUMP JUMPDEST PUSH0 PUSH1 0x40 MLOAD DUP1 DUP4 SUB DUP2 PUSH0 DUP8 DUP1 EXTCODESIZE ISZERO DUP1 ISZERO PUSH2 0x1AE9 JUMPI PUSH0 DUP1 REVERT JUMPDEST POP GAS CALL ISZERO DUP1 ISZERO PUSH2 0x1AFB JUMPI RETURNDATASIZE PUSH0 DUP1 RETURNDATACOPY RETURNDATASIZE PUSH0 REVERT JUMPDEST POP POP POP POP DUP3 PUSH20 0xFFFFFFFFFFFFFFFFFFFFFFFFFFFFFFFFFFFFFFFF AND PUSH4 0x89AFCB44 DUP13 PUSH1 0x40 MLOAD DUP3 PUSH4 0xFFFFFFFF AND PUSH1 0xE0 SHL DUP2 MSTORE PUSH1 0x4 ADD PUSH2 0x1B38 SWAP2 SWAP1 PUSH2 0x32E4 JUMP JUMPDEST PUSH1 0x20 PUSH1 0x40 MLOAD DUP1 DUP4 SUB DUP2 PUSH0 DUP8 GAS CALL ISZERO DUP1 ISZERO PUSH2 0x1B54 JUMPI RETURNDATASIZE PUSH0 DUP1 RETURNDATACOPY RETURNDATASIZE PUSH0 REVERT JUMPDEST POP POP POP POP PUSH1 0x40 MLOAD RETURNDATASIZE PUSH1 0x1F NOT PUSH1 0x1F DUP3 ADD AND DUP3 ADD DUP1 PUSH1 0x40 MSTORE POP DUP2 ADD SWAP1 PUSH2 0x1B78 SWAP2 SWAP1 PUSH2 0x38CB JUMP JUMPDEST POP PUSH0 DUP7 GT ISZERO PUSH2 0x1C05 JUMPI DUP7 PUSH20 0xFFFFFFFFFFFFFFFFFFFFFFFFFFFFFFFFFFFFFFFF AND PUSH4 0xCABFB7E3 DUP6 DUP13 PUSH2 0x1BA7 PUSH2 0x5E9 JUMP JUMPDEST PUSH2 0x1BB1 SWAP2 SWAP1 PUSH2 0x3923 JUMP JUMPDEST PUSH2 0x1BB9 PUSH2 0x5E9 JUMP JUMPDEST PUSH1 0x40 MLOAD DUP5 PUSH4 0xFFFFFFFF AND PUSH1 0xE0 SHL DUP2 MSTORE PUSH1 0x4 ADD PUSH2 0x1BD7 SWAP4 SWAP3 SWAP2 SWAP1 PUSH2 0x3B6C JUMP JUMPDEST PUSH0 PUSH1 0x40 MLOAD DUP1 DUP4 SUB DUP2 PUSH0 DUP8 DUP1 EXTCODESIZE ISZERO DUP1 ISZERO PUSH2 0x1BEE JUMPI PUSH0 DUP1 REVERT JUMPDEST POP GAS CALL ISZERO DUP1 ISZERO PUSH2 0x1C00 JUMPI RETURNDATASIZE PUSH0 DUP1 RETURNDATACOPY RETURNDATASIZE PUSH0 REVERT JUMPDEST POP POP POP POP JUMPDEST POP POP POP POP JUMPDEST DUP1 PUSH1 0x1 ADD SWAP1 POP PUSH2 0x1821 JUMP JUMPDEST POP PUSH2 0x1C20 ADDRESS DUP7 PUSH2 0x24CC JUMP JUMPDEST POP POP POP POP POP POP JUMP JUMPDEST PUSH1 0x60 PUSH1 0x2 PUSH0 SWAP1 SLOAD SWAP1 PUSH2 0x100 EXP SWAP1 DIV PUSH20 0xFFFFFFFFFFFFFFFFFFFFFFFFFFFFFFFFFFFFFFFF AND PUSH20 0xFFFFFFFFFFFFFFFFFFFFFFFFFFFFFFFFFFFFFFFF AND PUSH4 0x554F94AB ADDRESS PUSH1 0x40 MLOAD DUP3 PUSH4 0xFFFFFFFF AND PUSH1 0xE0 SHL DUP2 MSTORE PUSH1 0x4 ADD PUSH2 0x1C84 SWAP2 SWAP1 PUSH2 0x32E4 JUMP JUMPDEST PUSH0 PUSH1 0x40 MLOAD DUP1 DUP4 SUB DUP2 DUP7 GAS STATICCALL ISZERO DUP1 ISZERO PUSH2 0x1C9E JUMPI RETURNDATASIZE PUSH0 DUP1 RETURNDATACOPY RETURNDATASIZE PUSH0 REVERT JUMPDEST POP POP POP POP PUSH1 0x40 MLOAD RETURNDATASIZE PUSH0 DUP3 RETURNDATACOPY RETURNDATASIZE PUSH1 0x1F NOT PUSH1 0x1F DUP3 ADD AND DUP3 ADD DUP1 PUSH1 0x40 MSTORE POP DUP2 ADD SWAP1 PUSH2 0x1CC6 SWAP2 SWAP1 PUSH2 0x374D JUMP JUMPDEST SWAP1 POP SWAP1 JUMP JUMPDEST PUSH0 DUP1 PUSH2 0x1CD5 PUSH2 0x1F40 JUMP JUMPDEST SWAP1 POP PUSH2 0x1CE2 DUP2 DUP6 DUP6 PUSH2 0x1FEC JUMP JUMPDEST PUSH1 0x1 SWAP2 POP POP SWAP3 SWAP2 POP POP JUMP JUMPDEST PUSH0 DUP1 SLOAD SWAP1 PUSH2 0x100 EXP SWAP1 DIV PUSH20 0xFFFFFFFFFFFFFFFFFFFFFFFFFFFFFFFFFFFFFFFF AND DUP2 JUMP JUMPDEST DUP4 TIMESTAMP GT ISZERO PUSH2 0x1D55 JUMPI DUP4 PUSH1 0x40 MLOAD PUSH32 0x6279130200000000000000000000000000000000000000000000000000000000 DUP2 MSTORE PUSH1 0x4 ADD PUSH2 0x1D4C SWAP2 SWAP1 PUSH2 0x326C JUMP JUMPDEST PUSH1 0x40 MLOAD DUP1 SWAP2 SUB SWAP1 REVERT JUMPDEST PUSH0 PUSH32 0x6E71EDAE12B1B97F4D1F60370FEF10105FA2FAAE0126114A169C64845D6126C9 DUP9 DUP9 DUP9 PUSH2 0x1D83 DUP13 PUSH2 0x254B JUMP JUMPDEST DUP10 PUSH1 0x40 MLOAD PUSH1 0x20 ADD PUSH2 0x1D99 SWAP7 SWAP6 SWAP5 SWAP4 SWAP3 SWAP2 SWAP1 PUSH2 0x3BA1 JUMP JUMPDEST PUSH1 0x40 MLOAD PUSH1 0x20 DUP2 DUP4 SUB SUB DUP2 MSTORE SWAP1 PUSH1 0x40 MSTORE DUP1 MLOAD SWAP1 PUSH1 0x20 ADD KECCAK256 SWAP1 POP PUSH0 PUSH2 0x1DBB DUP3 PUSH2 0x259E JUMP JUMPDEST SWAP1 POP PUSH0 PUSH2 0x1DCA DUP3 DUP8 DUP8 DUP8 PUSH2 0x25B7 JUMP JUMPDEST SWAP1 POP DUP10 PUSH20 0xFFFFFFFFFFFFFFFFFFFFFFFFFFFFFFFFFFFFFFFF AND DUP2 PUSH20 0xFFFFFFFFFFFFFFFFFFFFFFFFFFFFFFFFFFFFFFFF AND EQ PUSH2 0x1E3E JUMPI DUP1 DUP11 PUSH1 0x40 MLOAD PUSH32 0x4B800E4600000000000000000000000000000000000000000000000000000000 DUP2 MSTORE PUSH1 0x4 ADD PUSH2 0x1E35 SWAP3 SWAP2 SWAP1 PUSH2 0x3C00 JUMP JUMPDEST PUSH1 0x40 MLOAD DUP1 SWAP2 SUB SWAP1 REVERT JUMPDEST PUSH2 0x1E49 DUP11 DUP11 DUP11 PUSH2 0x1F47 JUMP JUMPDEST POP POP POP POP POP POP POP POP POP POP JUMP JUMPDEST PUSH0 PUSH1 0xA PUSH0 DUP5 PUSH20 0xFFFFFFFFFFFFFFFFFFFFFFFFFFFFFFFFFFFFFFFF AND PUSH20 0xFFFFFFFFFFFFFFFFFFFFFFFFFFFFFFFFFFFFFFFF AND DUP2 MSTORE PUSH1 0x20 ADD SWAP1 DUP2 MSTORE PUSH1 0x20 ADD PUSH0 KECCAK256 PUSH0 DUP4 PUSH20 0xFFFFFFFFFFFFFFFFFFFFFFFFFFFFFFFFFFFFFFFF AND PUSH20 0xFFFFFFFFFFFFFFFFFFFFFFFFFFFFFFFFFFFFFFFF AND DUP2 MSTORE PUSH1 0x20 ADD SWAP1 DUP2 MSTORE PUSH1 0x20 ADD PUSH0 KECCAK256 SLOAD SWAP1 POP SWAP3 SWAP2 POP POP JUMP JUMPDEST PUSH0 PUSH32 0x1FFC9A700000000000000000000000000000000000000000000000000000000 PUSH28 0xFFFFFFFFFFFFFFFFFFFFFFFFFFFFFFFFFFFFFFFFFFFFFFFFFFFFFFFF NOT AND DUP3 PUSH28 0xFFFFFFFFFFFFFFFFFFFFFFFFFFFFFFFFFFFFFFFFFFFFFFFFFFFFFFFF NOT AND EQ SWAP1 POP SWAP2 SWAP1 POP JUMP JUMPDEST PUSH0 CALLER SWAP1 POP SWAP1 JUMP JUMPDEST PUSH2 0x1F54 DUP4 DUP4 DUP4 PUSH1 0x1 PUSH2 0x25E5 JUMP JUMPDEST POP POP POP JUMP JUMPDEST PUSH0 PUSH2 0x1F64 DUP5 DUP5 PUSH2 0x1E55 JUMP JUMPDEST SWAP1 POP PUSH32 0xFFFFFFFFFFFFFFFFFFFFFFFFFFFFFFFFFFFFFFFFFFFFFFFFFFFFFFFFFFFFFFFF DUP2 LT ISZERO PUSH2 0x1FE6 JUMPI DUP2 DUP2 LT ISZERO PUSH2 0x1FD7 JUMPI DUP3 DUP2 DUP4 PUSH1 0x40 MLOAD PUSH32 0xFB8F41B200000000000000000000000000000000000000000000000000000000 DUP2 MSTORE PUSH1 0x4 ADD PUSH2 0x1FCE SWAP4 SWAP3 SWAP2 SWAP1 PUSH2 0x3B6C JUMP JUMPDEST PUSH1 0x40 MLOAD DUP1 SWAP2 SUB SWAP1 REVERT JUMPDEST PUSH2 0x1FE5 DUP5 DUP5 DUP5 DUP5 SUB PUSH0 PUSH2 0x25E5 JUMP JUMPDEST JUMPDEST POP POP POP POP JUMP JUMPDEST PUSH2 0x2082 PUSH1 0x2 PUSH0 SWAP1 SLOAD SWAP1 PUSH2 0x100 EXP SWAP1 DIV PUSH20 0xFFFFFFFFFFFFFFFFFFFFFFFFFFFFFFFFFFFFFFFF AND PUSH20 0xFFFFFFFFFFFFFFFFFFFFFFFFFFFFFFFFFFFFFFFF AND PUSH4 0xAE2E933B PUSH1 0x40 MLOAD DUP2 PUSH4 0xFFFFFFFF AND PUSH1 0xE0 SHL DUP2 MSTORE PUSH1 0x4 ADD PUSH1 0x20 PUSH1 0x40 MLOAD DUP1 DUP4 SUB DUP2 DUP7 GAS STATICCALL ISZERO DUP1 ISZERO PUSH2 0x2059 JUMPI RETURNDATASIZE PUSH0 DUP1 RETURNDATACOPY RETURNDATASIZE PUSH0 REVERT JUMPDEST POP POP POP POP PUSH1 0x40 MLOAD RETURNDATASIZE PUSH1 0x1F NOT PUSH1 0x1F DUP3 ADD AND DUP3 ADD DUP1 PUSH1 0x40 MSTORE POP DUP2 ADD SWAP1 PUSH2 0x207D SWAP2 SWAP1 PUSH2 0x37A8 JUMP JUMPDEST PUSH2 0x2148 JUMP JUMPDEST PUSH2 0x208D DUP4 DUP4 DUP4 PUSH2 0x27B4 JUMP JUMPDEST POP POP POP JUMP JUMPDEST PUSH0 PUSH32 0x0 PUSH20 0xFFFFFFFFFFFFFFFFFFFFFFFFFFFFFFFFFFFFFFFF AND ADDRESS PUSH20 0xFFFFFFFFFFFFFFFFFFFFFFFFFFFFFFFFFFFFFFFF AND EQ DUP1 ISZERO PUSH2 0x210D JUMPI POP PUSH32 0x0 CHAINID EQ JUMPDEST ISZERO PUSH2 0x213A JUMPI PUSH32 0x0 SWAP1 POP PUSH2 0x2145 JUMP JUMPDEST PUSH2 0x2142 PUSH2 0x28A4 JUMP JUMPDEST SWAP1 POP JUMPDEST SWAP1 JUMP JUMPDEST PUSH0 PUSH1 0x3 SLOAD TIMESTAMP PUSH2 0x2157 SWAP2 SWAP1 PUSH2 0x3923 JUMP JUMPDEST SWAP1 POP PUSH0 DUP2 GT ISZERO PUSH2 0x2293 JUMPI PUSH0 PUSH12 0x33B2E3C9FD0803CE8000000 DUP1 PUSH2 0x21FE DUP6 PUSH20 0xFFFFFFFFFFFFFFFFFFFFFFFFFFFFFFFFFFFFFFFF AND PUSH4 0x5612E00B ADDRESS PUSH1 0x40 MLOAD DUP3 PUSH4 0xFFFFFFFF AND PUSH1 0xE0 SHL DUP2 MSTORE PUSH1 0x4 ADD PUSH2 0x21AC SWAP2 SWAP1 PUSH2 0x32E4 JUMP JUMPDEST PUSH1 0x20 PUSH1 0x40 MLOAD DUP1 DUP4 SUB DUP2 DUP7 GAS STATICCALL ISZERO DUP1 ISZERO PUSH2 0x21C7 JUMPI RETURNDATASIZE PUSH0 DUP1 RETURNDATACOPY RETURNDATASIZE PUSH0 REVERT JUMPDEST POP POP POP POP PUSH1 0x40 MLOAD RETURNDATASIZE PUSH1 0x1F NOT PUSH1 0x1F DUP3 ADD AND DUP3 ADD DUP1 PUSH1 0x40 MSTORE POP DUP2 ADD SWAP1 PUSH2 0x21EB SWAP2 SWAP1 PUSH2 0x38CB JUMP JUMPDEST DUP6 PUSH12 0x33B2E3C9FD0803CE8000000 PUSH2 0x2939 JUMP JUMPDEST PUSH2 0x2208 SWAP2 SWAP1 PUSH2 0x3923 JUMP JUMPDEST PUSH2 0x2230 PUSH0 DUP1 SLOAD SWAP1 PUSH2 0x100 EXP SWAP1 DIV PUSH20 0xFFFFFFFFFFFFFFFFFFFFFFFFFFFFFFFFFFFFFFFF AND PUSH2 0x1342 JUMP JUMPDEST PUSH2 0x2238 PUSH2 0x5E9 JUMP JUMPDEST PUSH2 0x2242 SWAP2 SWAP1 PUSH2 0x3923 JUMP JUMPDEST PUSH2 0x224C SWAP2 SWAP1 PUSH2 0x3956 JUMP JUMPDEST PUSH2 0x2256 SWAP2 SWAP1 PUSH2 0x3AB3 JUMP JUMPDEST SWAP1 POP PUSH0 DUP2 GT ISZERO PUSH2 0x2291 JUMPI PUSH2 0x2289 PUSH0 DUP1 SLOAD SWAP1 PUSH2 0x100 EXP SWAP1 DIV PUSH20 0xFFFFFFFFFFFFFFFFFFFFFFFFFFFFFFFFFFFFFFFF AND DUP3 PUSH2 0x2391 JUMP JUMPDEST TIMESTAMP PUSH1 0x3 DUP2 SWAP1 SSTORE POP JUMPDEST POP JUMPDEST POP POP JUMP JUMPDEST PUSH0 PUSH2 0x22A3 DUP3 PUSH0 ADD PUSH2 0x29F6 JUMP JUMPDEST SWAP1 POP SWAP2 SWAP1 POP JUMP JUMPDEST PUSH0 PUSH2 0x22B7 DUP4 PUSH0 ADD DUP4 PUSH2 0x2A05 JUMP JUMPDEST PUSH0 SHR SWAP1 POP SWAP3 SWAP2 POP POP JUMP JUMPDEST PUSH0 DUP1 PUSH0 DUP1 NOT DUP6 DUP8 MULMOD DUP6 DUP8 MUL SWAP3 POP DUP3 DUP2 LT DUP4 DUP3 SUB SUB SWAP2 POP POP PUSH0 DUP2 SUB PUSH2 0x22F6 JUMPI PUSH0 DUP5 GT PUSH2 0x22EA JUMPI PUSH0 DUP1 REVERT JUMPDEST DUP4 DUP3 DIV SWAP3 POP POP POP PUSH2 0x238A JUMP JUMPDEST DUP1 DUP5 GT PUSH2 0x2301 JUMPI PUSH0 DUP1 REVERT JUMPDEST PUSH0 DUP5 DUP7 DUP9 MULMOD SWAP1 POP DUP3 DUP2 GT DUP3 SUB SWAP2 POP DUP1 DUP4 SUB SWAP3 POP PUSH0 DUP6 PUSH1 0x1 DUP8 NOT ADD AND SWAP1 POP DUP1 DUP7 DIV SWAP6 POP DUP1 DUP5 DIV SWAP4 POP PUSH1 0x1 DUP2 DUP3 PUSH0 SUB DIV ADD SWAP1 POP DUP1 DUP4 MUL DUP5 OR SWAP4 POP PUSH0 PUSH1 0x2 DUP8 PUSH1 0x3 MUL XOR SWAP1 POP DUP1 DUP8 MUL PUSH1 0x2 SUB DUP2 MUL SWAP1 POP DUP1 DUP8 MUL PUSH1 0x2 SUB DUP2 MUL SWAP1 POP DUP1 DUP8 MUL PUSH1 0x2 SUB DUP2 MUL SWAP1 POP DUP1 DUP8 MUL PUSH1 0x2 SUB DUP2 MUL SWAP1 POP DUP1 DUP8 MUL PUSH1 0x2 SUB DUP2 MUL SWAP1 POP DUP1 DUP8 MUL PUSH1 0x2 SUB DUP2 MUL SWAP1 POP DUP1 DUP6 MUL SWAP6 POP POP POP POP POP POP JUMPDEST SWAP4 SWAP3 POP POP POP JUMP JUMPDEST PUSH0 PUSH20 0xFFFFFFFFFFFFFFFFFFFFFFFFFFFFFFFFFFFFFFFF AND DUP3 PUSH20 0xFFFFFFFFFFFFFFFFFFFFFFFFFFFFFFFFFFFFFFFF AND SUB PUSH2 0x2401 JUMPI PUSH0 PUSH1 0x40 MLOAD PUSH32 0xEC442F0500000000000000000000000000000000000000000000000000000000 DUP2 MSTORE PUSH1 0x4 ADD PUSH2 0x23F8 SWAP2 SWAP1 PUSH2 0x32E4 JUMP JUMPDEST PUSH1 0x40 MLOAD DUP1 SWAP2 SUB SWAP1 REVERT JUMPDEST PUSH2 0x240C PUSH0 DUP4 DUP4 PUSH2 0x2A2C JUMP JUMPDEST POP POP JUMP JUMPDEST PUSH0 PUSH1 0x10 PUSH0 DUP4 PUSH20 0xFFFFFFFFFFFFFFFFFFFFFFFFFFFFFFFFFFFFFFFF AND PUSH20 0xFFFFFFFFFFFFFFFFFFFFFFFFFFFFFFFFFFFFFFFF AND DUP2 MSTORE PUSH1 0x20 ADD SWAP1 DUP2 MSTORE PUSH1 0x20 ADD PUSH0 KECCAK256 SLOAD SWAP1 POP SWAP2 SWAP1 POP JUMP JUMPDEST PUSH1 0x60 PUSH2 0x248C PUSH1 0xE PUSH32 0x0 PUSH2 0x2C48 SWAP1 SWAP2 SWAP1 PUSH4 0xFFFFFFFF AND JUMP JUMPDEST SWAP1 POP SWAP1 JUMP JUMPDEST PUSH1 0x60 PUSH2 0x24C7 PUSH1 0xF PUSH32 0x0 PUSH2 0x2C48 SWAP1 SWAP2 SWAP1 PUSH4 0xFFFFFFFF AND JUMP JUMPDEST SWAP1 POP SWAP1 JUMP JUMPDEST PUSH0 PUSH20 0xFFFFFFFFFFFFFFFFFFFFFFFFFFFFFFFFFFFFFFFF AND DUP3 PUSH20 0xFFFFFFFFFFFFFFFFFFFFFFFFFFFFFFFFFFFFFFFF AND SUB PUSH2 0x253C JUMPI PUSH0 PUSH1 0x40 MLOAD PUSH32 0x96C6FD1E00000000000000000000000000000000000000000000000000000000 DUP2 MSTORE PUSH1 0x4 ADD PUSH2 0x2533 SWAP2 SWAP1 PUSH2 0x32E4 JUMP JUMPDEST PUSH1 0x40 MLOAD DUP1 SWAP2 SUB SWAP1 REVERT JUMPDEST PUSH2 0x2547 DUP3 PUSH0 DUP4 PUSH2 0x2A2C JUMP JUMPDEST POP POP JUMP JUMPDEST PUSH0 PUSH1 0x10 PUSH0 DUP4 PUSH20 0xFFFFFFFFFFFFFFFFFFFFFFFFFFFFFFFFFFFFFFFF AND PUSH20 0xFFFFFFFFFFFFFFFFFFFFFFFFFFFFFFFFFFFFFFFF AND DUP2 MSTORE PUSH1 0x20 ADD SWAP1 DUP2 MSTORE PUSH1 0x20 ADD PUSH0 KECCAK256 PUSH0 DUP2 SLOAD DUP1 SWAP3 SWAP2 SWAP1 PUSH1 0x1 ADD SWAP2 SWAP1 POP SSTORE SWAP1 POP SWAP2 SWAP1 POP JUMP JUMPDEST PUSH0 PUSH2 0x25B0 PUSH2 0x25AA PUSH2 0x2092 JUMP JUMPDEST DUP4 PUSH2 0x2CF5 JUMP JUMPDEST SWAP1 POP SWAP2 SWAP1 POP JUMP JUMPDEST PUSH0 DUP1 PUSH0 DUP1 PUSH2 0x25C7 DUP9 DUP9 DUP9 DUP9 PUSH2 0x2D35 JUMP JUMPDEST SWAP3 POP SWAP3 POP SWAP3 POP PUSH2 0x25D7 DUP3 DUP3 PUSH2 0x2E1C JUMP JUMPDEST DUP3 SWAP4 POP POP POP POP SWAP5 SWAP4 POP POP POP POP JUMP JUMPDEST PUSH0 PUSH20 0xFFFFFFFFFFFFFFFFFFFFFFFFFFFFFFFFFFFFFFFF AND DUP5 PUSH20 0xFFFFFFFFFFFFFFFFFFFFFFFFFFFFFFFFFFFFFFFF AND SUB PUSH2 0x2655 JUMPI PUSH0 PUSH1 0x40 MLOAD PUSH32 0xE602DF0500000000000000000000000000000000000000000000000000000000 DUP2 MSTORE PUSH1 0x4 ADD PUSH2 0x264C SWAP2 SWAP1 PUSH2 0x32E4 JUMP JUMPDEST PUSH1 0x40 MLOAD DUP1 SWAP2 SUB SWAP1 REVERT JUMPDEST PUSH0 PUSH20 0xFFFFFFFFFFFFFFFFFFFFFFFFFFFFFFFFFFFFFFFF AND DUP4 PUSH20 0xFFFFFFFFFFFFFFFFFFFFFFFFFFFFFFFFFFFFFFFF AND SUB PUSH2 0x26C5 JUMPI PUSH0 PUSH1 0x40 MLOAD PUSH32 0x94280D6200000000000000000000000000000000000000000000000000000000 DUP2 MSTORE PUSH1 0x4 ADD PUSH2 0x26BC SWAP2 SWAP1 PUSH2 0x32E4 JUMP JUMPDEST PUSH1 0x40 MLOAD DUP1 SWAP2 SUB SWAP1 REVERT JUMPDEST DUP2 PUSH1 0xA PUSH0 DUP7 PUSH20 0xFFFFFFFFFFFFFFFFFFFFFFFFFFFFFFFFFFFFFFFF AND PUSH20 0xFFFFFFFFFFFFFFFFFFFFFFFFFFFFFFFFFFFFFFFF AND DUP2 MSTORE PUSH1 0x20 ADD SWAP1 DUP2 MSTORE PUSH1 0x20 ADD PUSH0 KECCAK256 PUSH0 DUP6 PUSH20 0xFFFFFFFFFFFFFFFFFFFFFFFFFFFFFFFFFFFFFFFF AND PUSH20 0xFFFFFFFFFFFFFFFFFFFFFFFFFFFFFFFFFFFFFFFF AND DUP2 MSTORE PUSH1 0x20 ADD SWAP1 DUP2 MSTORE PUSH1 0x20 ADD PUSH0 KECCAK256 DUP2 SWAP1 SSTORE POP DUP1 ISZERO PUSH2 0x27AE JUMPI DUP3 PUSH20 0xFFFFFFFFFFFFFFFFFFFFFFFFFFFFFFFFFFFFFFFF AND DUP5 PUSH20 0xFFFFFFFFFFFFFFFFFFFFFFFFFFFFFFFFFFFFFFFF AND PUSH32 0x8C5BE1E5EBEC7D5BD14F71427D1E84F3DD0314C0F7B2291E5B200AC8C7C3B925 DUP5 PUSH1 0x40 MLOAD PUSH2 0x27A5 SWAP2 SWAP1 PUSH2 0x326C JUMP JUMPDEST PUSH1 0x40 MLOAD DUP1 SWAP2 SUB SWAP1 LOG3 JUMPDEST POP POP POP POP JUMP JUMPDEST PUSH0 PUSH20 0xFFFFFFFFFFFFFFFFFFFFFFFFFFFFFFFFFFFFFFFF AND DUP4 PUSH20 0xFFFFFFFFFFFFFFFFFFFFFFFFFFFFFFFFFFFFFFFF AND SUB PUSH2 0x2824 JUMPI PUSH0 PUSH1 0x40 MLOAD PUSH32 0x96C6FD1E00000000000000000000000000000000000000000000000000000000 DUP2 MSTORE PUSH1 0x4 ADD PUSH2 0x281B SWAP2 SWAP1 PUSH2 0x32E4 JUMP JUMPDEST PUSH1 0x40 MLOAD DUP1 SWAP2 SUB SWAP1 REVERT JUMPDEST PUSH0 PUSH20 0xFFFFFFFFFFFFFFFFFFFFFFFFFFFFFFFFFFFFFFFF AND DUP3 PUSH20 0xFFFFFFFFFFFFFFFFFFFFFFFFFFFFFFFFFFFFFFFF AND SUB PUSH2 0x2894 JUMPI PUSH0 PUSH1 0x40 MLOAD PUSH32 0xEC442F0500000000000000000000000000000000000000000000000000000000 DUP2 MSTORE PUSH1 0x4 ADD PUSH2 0x288B SWAP2 SWAP1 PUSH2 0x32E4 JUMP JUMPDEST PUSH1 0x40 MLOAD DUP1 SWAP2 SUB SWAP1 REVERT JUMPDEST PUSH2 0x289F DUP4 DUP4 DUP4 PUSH2 0x2A2C JUMP JUMPDEST POP POP POP JUMP JUMPDEST PUSH0 PUSH32 0x8B73C3C69BB8FE3D512ECC4CF759CC79239F7B179B0FFACAA9A75D522B39400F PUSH32 0x0 PUSH32 0x0 CHAINID ADDRESS PUSH1 0x40 MLOAD PUSH1 0x20 ADD PUSH2 0x291E SWAP6 SWAP5 SWAP4 SWAP3 SWAP2 SWAP1 PUSH2 0x3C27 JUMP JUMPDEST PUSH1 0x40 MLOAD PUSH1 0x20 DUP2 DUP4 SUB SUB DUP2 MSTORE SWAP1 PUSH1 0x40 MSTORE DUP1 MLOAD SWAP1 PUSH1 0x20 ADD KECCAK256 SWAP1 POP SWAP1 JUMP JUMPDEST PUSH0 DUP4 PUSH0 DUP2 EQ PUSH2 0x29D8 JUMPI PUSH1 0x2 DUP5 MOD PUSH0 DUP2 EQ PUSH2 0x2955 JUMPI DUP6 SWAP3 POP PUSH2 0x2959 JUMP JUMPDEST DUP4 SWAP3 POP JUMPDEST POP PUSH1 0x2 DUP4 DIV PUSH1 0x2 DUP6 DIV SWAP5 POP JUMPDEST DUP5 ISZERO PUSH2 0x29D2 JUMPI DUP6 DUP7 MUL DUP7 DUP8 DUP3 DIV EQ PUSH2 0x297B JUMPI PUSH0 DUP1 REVERT JUMPDEST DUP2 DUP2 ADD DUP2 DUP2 LT ISZERO PUSH2 0x298A JUMPI PUSH0 DUP1 REVERT JUMPDEST DUP6 DUP2 DIV SWAP8 POP PUSH1 0x2 DUP8 MOD ISZERO PUSH2 0x29C5 JUMPI DUP8 DUP6 MUL DUP6 DUP10 DUP3 DIV EQ ISZERO DUP10 ISZERO ISZERO AND ISZERO PUSH2 0x29AE JUMPI PUSH0 DUP1 REVERT JUMPDEST DUP4 DUP2 ADD DUP2 DUP2 LT ISZERO PUSH2 0x29BD JUMPI PUSH0 DUP1 REVERT JUMPDEST DUP8 DUP2 DIV SWAP7 POP POP POP JUMPDEST POP POP PUSH1 0x2 DUP6 DIV SWAP5 POP PUSH2 0x2965 JUMP JUMPDEST POP PUSH2 0x29EE JUMP JUMPDEST DUP4 PUSH0 DUP2 EQ PUSH2 0x29E8 JUMPI PUSH0 SWAP3 POP PUSH2 0x29EC JUMP JUMPDEST DUP4 SWAP3 POP JUMPDEST POP JUMPDEST POP SWAP4 SWAP3 POP POP POP JUMP JUMPDEST PUSH0 DUP2 PUSH0 ADD DUP1 SLOAD SWAP1 POP SWAP1 POP SWAP2 SWAP1 POP JUMP JUMPDEST PUSH0 DUP3 PUSH0 ADD DUP3 DUP2 SLOAD DUP2 LT PUSH2 0x2A1B JUMPI PUSH2 0x2A1A PUSH2 0x3C78 JUMP JUMPDEST JUMPDEST SWAP1 PUSH0 MSTORE PUSH1 0x20 PUSH0 KECCAK256 ADD SLOAD SWAP1 POP SWAP3 SWAP2 POP POP JUMP JUMPDEST PUSH0 PUSH20 0xFFFFFFFFFFFFFFFFFFFFFFFFFFFFFFFFFFFFFFFF AND DUP4 PUSH20 0xFFFFFFFFFFFFFFFFFFFFFFFFFFFFFFFFFFFFFFFF AND SUB PUSH2 0x2A7C JUMPI DUP1 PUSH1 0xB PUSH0 DUP3 DUP3 SLOAD PUSH2 0x2A70 SWAP2 SWAP1 PUSH2 0x3997 JUMP JUMPDEST SWAP3 POP POP DUP2 SWAP1 SSTORE POP PUSH2 0x2B4C JUMP JUMPDEST PUSH0 PUSH1 0x9 PUSH0 DUP6 PUSH20 0xFFFFFFFFFFFFFFFFFFFFFFFFFFFFFFFFFFFFFFFF AND PUSH20 0xFFFFFFFFFFFFFFFFFFFFFFFFFFFFFFFFFFFFFFFF AND DUP2 MSTORE PUSH1 0x20 ADD SWAP1 DUP2 MSTORE PUSH1 0x20 ADD PUSH0 KECCAK256 SLOAD SWAP1 POP DUP2 DUP2 LT ISZERO PUSH2 0x2B06 JUMPI DUP4 DUP2 DUP4 PUSH1 0x40 MLOAD PUSH32 0xE450D38C00000000000000000000000000000000000000000000000000000000 DUP2 MSTORE PUSH1 0x4 ADD PUSH2 0x2AFD SWAP4 SWAP3 SWAP2 SWAP1 PUSH2 0x3B6C JUMP JUMPDEST PUSH1 0x40 MLOAD DUP1 SWAP2 SUB SWAP1 REVERT JUMPDEST DUP2 DUP2 SUB PUSH1 0x9 PUSH0 DUP7 PUSH20 0xFFFFFFFFFFFFFFFFFFFFFFFFFFFFFFFFFFFFFFFF AND PUSH20 0xFFFFFFFFFFFFFFFFFFFFFFFFFFFFFFFFFFFFFFFF AND DUP2 MSTORE PUSH1 0x20 ADD SWAP1 DUP2 MSTORE PUSH1 0x20 ADD PUSH0 KECCAK256 DUP2 SWAP1 SSTORE POP POP JUMPDEST PUSH0 PUSH20 0xFFFFFFFFFFFFFFFFFFFFFFFFFFFFFFFFFFFFFFFF AND DUP3 PUSH20 0xFFFFFFFFFFFFFFFFFFFFFFFFFFFFFFFFFFFFFFFF AND SUB PUSH2 0x2B93 JUMPI DUP1 PUSH1 0xB PUSH0 DUP3 DUP3 SLOAD SUB SWAP3 POP POP DUP2 SWAP1 SSTORE POP PUSH2 0x2BDE JUMP JUMPDEST DUP1 PUSH1 0x9 PUSH0 DUP5 PUSH20 0xFFFFFFFFFFFFFFFFFFFFFFFFFFFFFFFFFFFFFFFF AND PUSH20 0xFFFFFFFFFFFFFFFFFFFFFFFFFFFFFFFFFFFFFFFF AND DUP2 MSTORE PUSH1 0x20 ADD SWAP1 DUP2 MSTORE PUSH1 0x20 ADD PUSH0 KECCAK256 PUSH0 DUP3 DUP3 SLOAD ADD SWAP3 POP POP DUP2 SWAP1 SSTORE POP JUMPDEST DUP2 PUSH20 0xFFFFFFFFFFFFFFFFFFFFFFFFFFFFFFFFFFFFFFFF AND DUP4 PUSH20 0xFFFFFFFFFFFFFFFFFFFFFFFFFFFFFFFFFFFFFFFF AND PUSH32 0xDDF252AD1BE2C89B69C2B068FC378DAA952BA7F163C4A11628F55A4DF523B3EF DUP4 PUSH1 0x40 MLOAD PUSH2 0x2C3B SWAP2 SWAP1 PUSH2 0x326C JUMP JUMPDEST PUSH1 0x40 MLOAD DUP1 SWAP2 SUB SWAP1 LOG3 POP POP POP JUMP JUMPDEST PUSH1 0x60 PUSH1 0xFF PUSH0 SHL DUP4 EQ PUSH2 0x2C64 JUMPI PUSH2 0x2C5D DUP4 PUSH2 0x2F7E JUMP JUMPDEST SWAP1 POP PUSH2 0x2CEF JUMP JUMPDEST DUP2 DUP1 SLOAD PUSH2 0x2C70 SWAP1 PUSH2 0x3CD2 JUMP JUMPDEST DUP1 PUSH1 0x1F ADD PUSH1 0x20 DUP1 SWAP2 DIV MUL PUSH1 0x20 ADD PUSH1 0x40 MLOAD SWAP1 DUP2 ADD PUSH1 0x40 MSTORE DUP1 SWAP3 SWAP2 SWAP1 DUP2 DUP2 MSTORE PUSH1 0x20 ADD DUP3 DUP1 SLOAD PUSH2 0x2C9C SWAP1 PUSH2 0x3CD2 JUMP JUMPDEST DUP1 ISZERO PUSH2 0x2CE7 JUMPI DUP1 PUSH1 0x1F LT PUSH2 0x2CBE JUMPI PUSH2 0x100 DUP1 DUP4 SLOAD DIV MUL DUP4 MSTORE SWAP2 PUSH1 0x20 ADD SWAP2 PUSH2 0x2CE7 JUMP JUMPDEST DUP3 ADD SWAP2 SWAP1 PUSH0 MSTORE PUSH1 0x20 PUSH0 KECCAK256 SWAP1 JUMPDEST DUP2 SLOAD DUP2 MSTORE SWAP1 PUSH1 0x1 ADD SWAP1 PUSH1 0x20 ADD DUP1 DUP4 GT PUSH2 0x2CCA JUMPI DUP3 SWAP1 SUB PUSH1 0x1F AND DUP3 ADD SWAP2 JUMPDEST POP POP POP POP POP SWAP1 POP JUMPDEST SWAP3 SWAP2 POP POP JUMP JUMPDEST PUSH0 PUSH1 0x40 MLOAD PUSH32 0x1901000000000000000000000000000000000000000000000000000000000000 DUP2 MSTORE DUP4 PUSH1 0x2 DUP3 ADD MSTORE DUP3 PUSH1 0x22 DUP3 ADD MSTORE PUSH1 0x42 DUP2 KECCAK256 SWAP2 POP POP SWAP3 SWAP2 POP POP JUMP JUMPDEST PUSH0 DUP1 PUSH0 PUSH32 0x7FFFFFFFFFFFFFFFFFFFFFFFFFFFFFFF5D576E7357A4501DDFE92F46681B20A0 DUP5 PUSH0 SHR GT ISZERO PUSH2 0x2D71 JUMPI PUSH0 PUSH1 0x3 DUP6 SWAP3 POP SWAP3 POP SWAP3 POP PUSH2 0x2E12 JUMP JUMPDEST PUSH0 PUSH1 0x1 DUP9 DUP9 DUP9 DUP9 PUSH1 0x40 MLOAD PUSH0 DUP2 MSTORE PUSH1 0x20 ADD PUSH1 0x40 MSTORE PUSH1 0x40 MLOAD PUSH2 0x2D94 SWAP5 SWAP4 SWAP3 SWAP2 SWAP1 PUSH2 0x3D02 JUMP JUMPDEST PUSH1 0x20 PUSH1 0x40 MLOAD PUSH1 0x20 DUP2 SUB SWAP1 DUP1 DUP5 SUB SWAP1 DUP6 GAS STATICCALL ISZERO DUP1 ISZERO PUSH2 0x2DB4 JUMPI RETURNDATASIZE PUSH0 DUP1 RETURNDATACOPY RETURNDATASIZE PUSH0 REVERT JUMPDEST POP POP POP PUSH1 0x20 PUSH1 0x40 MLOAD SUB MLOAD SWAP1 POP PUSH0 PUSH20 0xFFFFFFFFFFFFFFFFFFFFFFFFFFFFFFFFFFFFFFFF AND DUP2 PUSH20 0xFFFFFFFFFFFFFFFFFFFFFFFFFFFFFFFFFFFFFFFF AND SUB PUSH2 0x2E05 JUMPI PUSH0 PUSH1 0x1 PUSH0 DUP1 SHL SWAP4 POP SWAP4 POP SWAP4 POP POP PUSH2 0x2E12 JUMP JUMPDEST DUP1 PUSH0 DUP1 PUSH0 SHL SWAP4 POP SWAP4 POP SWAP4 POP POP JUMPDEST SWAP5 POP SWAP5 POP SWAP5 SWAP2 POP POP JUMP JUMPDEST PUSH0 PUSH1 0x3 DUP2 GT ISZERO PUSH2 0x2E2F JUMPI PUSH2 0x2E2E PUSH2 0x3D45 JUMP JUMPDEST JUMPDEST DUP3 PUSH1 0x3 DUP2 GT ISZERO PUSH2 0x2E42 JUMPI PUSH2 0x2E41 PUSH2 0x3D45 JUMP JUMPDEST JUMPDEST SUB ISZERO PUSH2 0x2F7A JUMPI PUSH1 0x1 PUSH1 0x3 DUP2 GT ISZERO PUSH2 0x2E5C JUMPI PUSH2 0x2E5B PUSH2 0x3D45 JUMP JUMPDEST JUMPDEST DUP3 PUSH1 0x3 DUP2 GT ISZERO PUSH2 0x2E6F JUMPI PUSH2 0x2E6E PUSH2 0x3D45 JUMP JUMPDEST JUMPDEST SUB PUSH2 0x2EA6 JUMPI PUSH1 0x40 MLOAD PUSH32 0xF645EEDF00000000000000000000000000000000000000000000000000000000 DUP2 MSTORE PUSH1 0x4 ADD PUSH1 0x40 MLOAD DUP1 SWAP2 SUB SWAP1 REVERT JUMPDEST PUSH1 0x2 PUSH1 0x3 DUP2 GT ISZERO PUSH2 0x2EBA JUMPI PUSH2 0x2EB9 PUSH2 0x3D45 JUMP JUMPDEST JUMPDEST DUP3 PUSH1 0x3 DUP2 GT ISZERO PUSH2 0x2ECD JUMPI PUSH2 0x2ECC PUSH2 0x3D45 JUMP JUMPDEST JUMPDEST SUB PUSH2 0x2F11 JUMPI DUP1 PUSH0 SHR PUSH1 0x40 MLOAD PUSH32 0xFCE698F700000000000000000000000000000000000000000000000000000000 DUP2 MSTORE PUSH1 0x4 ADD PUSH2 0x2F08 SWAP2 SWAP1 PUSH2 0x326C JUMP JUMPDEST PUSH1 0x40 MLOAD DUP1 SWAP2 SUB SWAP1 REVERT JUMPDEST PUSH1 0x3 DUP1 DUP2 GT ISZERO PUSH2 0x2F24 JUMPI PUSH2 0x2F23 PUSH2 0x3D45 JUMP JUMPDEST JUMPDEST DUP3 PUSH1 0x3 DUP2 GT ISZERO PUSH2 0x2F37 JUMPI PUSH2 0x2F36 PUSH2 0x3D45 JUMP JUMPDEST JUMPDEST SUB PUSH2 0x2F79 JUMPI DUP1 PUSH1 0x40 MLOAD PUSH32 0xD78BCE0C00000000000000000000000000000000000000000000000000000000 DUP2 MSTORE PUSH1 0x4 ADD PUSH2 0x2F70 SWAP2 SWAP1 PUSH2 0x3349 JUMP JUMPDEST PUSH1 0x40 MLOAD DUP1 SWAP2 SUB SWAP1 REVERT JUMPDEST JUMPDEST POP POP JUMP JUMPDEST PUSH1 0x60 PUSH0 PUSH2 0x2F8A DUP4 PUSH2 0x2FF0 JUMP JUMPDEST SWAP1 POP PUSH0 PUSH1 0x20 PUSH8 0xFFFFFFFFFFFFFFFF DUP2 GT ISZERO PUSH2 0x2FA8 JUMPI PUSH2 0x2FA7 PUSH2 0x3637 JUMP JUMPDEST JUMPDEST PUSH1 0x40 MLOAD SWAP1 DUP1 DUP3 MSTORE DUP1 PUSH1 0x1F ADD PUSH1 0x1F NOT AND PUSH1 0x20 ADD DUP3 ADD PUSH1 0x40 MSTORE DUP1 ISZERO PUSH2 0x2FDA JUMPI DUP2 PUSH1 0x20 ADD PUSH1 0x1 DUP3 MUL DUP1 CALLDATASIZE DUP4 CALLDATACOPY DUP1 DUP3 ADD SWAP2 POP POP SWAP1 POP JUMPDEST POP SWAP1 POP DUP2 DUP2 MSTORE DUP4 PUSH1 0x20 DUP3 ADD MSTORE DUP1 SWAP3 POP POP POP SWAP2 SWAP1 POP JUMP JUMPDEST PUSH0 DUP1 PUSH1 0xFF DUP4 PUSH0 SHR AND SWAP1 POP PUSH1 0x1F DUP2 GT ISZERO PUSH2 0x3035 JUMPI PUSH1 0x40 MLOAD PUSH32 0xB3512B0C00000000000000000000000000000000000000000000000000000000 DUP2 MSTORE PUSH1 0x4 ADD PUSH1 0x40 MLOAD DUP1 SWAP2 SUB SWAP1 REVERT JUMPDEST DUP1 SWAP2 POP POP SWAP2 SWAP1 POP JUMP JUMPDEST PUSH0 PUSH1 0x40 MLOAD SWAP1 POP SWAP1 JUMP JUMPDEST PUSH0 DUP1 REVERT JUMPDEST PUSH0 DUP1 REVERT JUMPDEST PUSH0 PUSH32 0xFFFFFFFF00000000000000000000000000000000000000000000000000000000 DUP3 AND SWAP1 POP SWAP2 SWAP1 POP JUMP JUMPDEST PUSH2 0x3083 DUP2 PUSH2 0x304F JUMP JUMPDEST DUP2 EQ PUSH2 0x308D JUMPI PUSH0 DUP1 REVERT JUMPDEST POP JUMP JUMPDEST PUSH0 DUP2 CALLDATALOAD SWAP1 POP PUSH2 0x309E DUP2 PUSH2 0x307A JUMP JUMPDEST SWAP3 SWAP2 POP POP JUMP JUMPDEST PUSH0 PUSH1 0x20 DUP3 DUP5 SUB SLT ISZERO PUSH2 0x30B9 JUMPI PUSH2 0x30B8 PUSH2 0x3047 JUMP JUMPDEST JUMPDEST PUSH0 PUSH2 0x30C6 DUP5 DUP3 DUP6 ADD PUSH2 0x3090 JUMP JUMPDEST SWAP2 POP POP SWAP3 SWAP2 POP POP JUMP JUMPDEST PUSH0 DUP2 ISZERO ISZERO SWAP1 POP SWAP2 SWAP1 POP JUMP JUMPDEST PUSH2 0x30E3 DUP2 PUSH2 0x30CF JUMP JUMPDEST DUP3 MSTORE POP POP JUMP JUMPDEST PUSH0 PUSH1 0x20 DUP3 ADD SWAP1 POP PUSH2 0x30FC PUSH0 DUP4 ADD DUP5 PUSH2 0x30DA JUMP JUMPDEST SWAP3 SWAP2 POP POP JUMP JUMPDEST PUSH0 DUP2 MLOAD SWAP1 POP SWAP2 SWAP1 POP JUMP JUMPDEST PUSH0 DUP3 DUP3 MSTORE PUSH1 0x20 DUP3 ADD SWAP1 POP SWAP3 SWAP2 POP POP JUMP JUMPDEST DUP3 DUP2 DUP4 MCOPY PUSH0 DUP4 DUP4 ADD MSTORE POP POP POP JUMP JUMPDEST PUSH0 PUSH1 0x1F NOT PUSH1 0x1F DUP4 ADD AND SWAP1 POP SWAP2 SWAP1 POP JUMP JUMPDEST PUSH0 PUSH2 0x3144 DUP3 PUSH2 0x3102 JUMP JUMPDEST PUSH2 0x314E DUP2 DUP6 PUSH2 0x310C JUMP JUMPDEST SWAP4 POP PUSH2 0x315E DUP2 DUP6 PUSH1 0x20 DUP7 ADD PUSH2 0x311C JUMP JUMPDEST PUSH2 0x3167 DUP2 PUSH2 0x312A JUMP JUMPDEST DUP5 ADD SWAP2 POP POP SWAP3 SWAP2 POP POP JUMP JUMPDEST PUSH0 PUSH1 0x20 DUP3 ADD SWAP1 POP DUP2 DUP2 SUB PUSH0 DUP4 ADD MSTORE PUSH2 0x318A DUP2 DUP5 PUSH2 0x313A JUMP JUMPDEST SWAP1 POP SWAP3 SWAP2 POP POP JUMP JUMPDEST PUSH0 PUSH20 0xFFFFFFFFFFFFFFFFFFFFFFFFFFFFFFFFFFFFFFFF DUP3 AND SWAP1 POP SWAP2 SWAP1 POP JUMP JUMPDEST PUSH0 PUSH2 0x31BB DUP3 PUSH2 0x3192 JUMP JUMPDEST SWAP1 POP SWAP2 SWAP1 POP JUMP JUMPDEST PUSH2 0x31CB DUP2 PUSH2 0x31B1 JUMP JUMPDEST DUP2 EQ PUSH2 0x31D5 JUMPI PUSH0 DUP1 REVERT JUMPDEST POP JUMP JUMPDEST PUSH0 DUP2 CALLDATALOAD SWAP1 POP PUSH2 0x31E6 DUP2 PUSH2 0x31C2 JUMP JUMPDEST SWAP3 SWAP2 POP POP JUMP JUMPDEST PUSH0 DUP2 SWAP1 POP SWAP2 SWAP1 POP JUMP JUMPDEST PUSH2 0x31FE DUP2 PUSH2 0x31EC JUMP JUMPDEST DUP2 EQ PUSH2 0x3208 JUMPI PUSH0 DUP1 REVERT JUMPDEST POP JUMP JUMPDEST PUSH0 DUP2 CALLDATALOAD SWAP1 POP PUSH2 0x3219 DUP2 PUSH2 0x31F5 JUMP JUMPDEST SWAP3 SWAP2 POP POP JUMP JUMPDEST PUSH0 DUP1 PUSH1 0x40 DUP4 DUP6 SUB SLT ISZERO PUSH2 0x3235 JUMPI PUSH2 0x3234 PUSH2 0x3047 JUMP JUMPDEST JUMPDEST PUSH0 PUSH2 0x3242 DUP6 DUP3 DUP7 ADD PUSH2 0x31D8 JUMP JUMPDEST SWAP3 POP POP PUSH1 0x20 PUSH2 0x3253 DUP6 DUP3 DUP7 ADD PUSH2 0x320B JUMP JUMPDEST SWAP2 POP POP SWAP3 POP SWAP3 SWAP1 POP JUMP JUMPDEST PUSH2 0x3266 DUP2 PUSH2 0x31EC JUMP JUMPDEST DUP3 MSTORE POP POP JUMP JUMPDEST PUSH0 PUSH1 0x20 DUP3 ADD SWAP1 POP PUSH2 0x327F PUSH0 DUP4 ADD DUP5 PUSH2 0x325D JUMP JUMPDEST SWAP3 SWAP2 POP POP JUMP JUMPDEST PUSH0 DUP1 PUSH0 PUSH1 0x60 DUP5 DUP7 SUB SLT ISZERO PUSH2 0x329C JUMPI PUSH2 0x329B PUSH2 0x3047 JUMP JUMPDEST JUMPDEST PUSH0 PUSH2 0x32A9 DUP7 DUP3 DUP8 ADD PUSH2 0x31D8 JUMP JUMPDEST SWAP4 POP POP PUSH1 0x20 PUSH2 0x32BA DUP7 DUP3 DUP8 ADD PUSH2 0x31D8 JUMP JUMPDEST SWAP3 POP POP PUSH1 0x40 PUSH2 0x32CB DUP7 DUP3 DUP8 ADD PUSH2 0x320B JUMP JUMPDEST SWAP2 POP POP SWAP3 POP SWAP3 POP SWAP3 JUMP JUMPDEST PUSH2 0x32DE DUP2 PUSH2 0x31B1 JUMP JUMPDEST DUP3 MSTORE POP POP JUMP JUMPDEST PUSH0 PUSH1 0x20 DUP3 ADD SWAP1 POP PUSH2 0x32F7 PUSH0 DUP4 ADD DUP5 PUSH2 0x32D5 JUMP JUMPDEST SWAP3 SWAP2 POP POP JUMP JUMPDEST PUSH0 PUSH1 0xFF DUP3 AND SWAP1 POP SWAP2 SWAP1 POP JUMP JUMPDEST PUSH2 0x3312 DUP2 PUSH2 0x32FD JUMP JUMPDEST DUP3 MSTORE POP POP JUMP JUMPDEST PUSH0 PUSH1 0x20 DUP3 ADD SWAP1 POP PUSH2 0x332B PUSH0 DUP4 ADD DUP5 PUSH2 0x3309 JUMP JUMPDEST SWAP3 SWAP2 POP POP JUMP JUMPDEST PUSH0 DUP2 SWAP1 POP SWAP2 SWAP1 POP JUMP JUMPDEST PUSH2 0x3343 DUP2 PUSH2 0x3331 JUMP JUMPDEST DUP3 MSTORE POP POP JUMP JUMPDEST PUSH0 PUSH1 0x20 DUP3 ADD SWAP1 POP PUSH2 0x335C PUSH0 DUP4 ADD DUP5 PUSH2 0x333A JUMP JUMPDEST SWAP3 SWAP2 POP POP JUMP JUMPDEST PUSH0 PUSH1 0x20 DUP3 DUP5 SUB SLT ISZERO PUSH2 0x3377 JUMPI PUSH2 0x3376 PUSH2 0x3047 JUMP JUMPDEST JUMPDEST PUSH0 PUSH2 0x3384 DUP5 DUP3 DUP6 ADD PUSH2 0x31D8 JUMP JUMPDEST SWAP2 POP POP SWAP3 SWAP2 POP POP JUMP JUMPDEST PUSH0 PUSH32 0xFF00000000000000000000000000000000000000000000000000000000000000 DUP3 AND SWAP1 POP SWAP2 SWAP1 POP JUMP JUMPDEST PUSH2 0x33C1 DUP2 PUSH2 0x338D JUMP JUMPDEST DUP3 MSTORE POP POP JUMP JUMPDEST PUSH0 DUP2 MLOAD SWAP1 POP SWAP2 SWAP1 POP JUMP JUMPDEST PUSH0 DUP3 DUP3 MSTORE PUSH1 0x20 DUP3 ADD SWAP1 POP SWAP3 SWAP2 POP POP JUMP JUMPDEST PUSH0 DUP2 SWAP1 POP PUSH1 0x20 DUP3 ADD SWAP1 POP SWAP2 SWAP1 POP JUMP JUMPDEST PUSH2 0x33F9 DUP2 PUSH2 0x31EC JUMP JUMPDEST DUP3 MSTORE POP POP JUMP JUMPDEST PUSH0 PUSH2 0x340A DUP4 DUP4 PUSH2 0x33F0 JUMP JUMPDEST PUSH1 0x20 DUP4 ADD SWAP1 POP SWAP3 SWAP2 POP POP JUMP JUMPDEST PUSH0 PUSH1 0x20 DUP3 ADD SWAP1 POP SWAP2 SWAP1 POP JUMP JUMPDEST PUSH0 PUSH2 0x342C DUP3 PUSH2 0x33C7 JUMP JUMPDEST PUSH2 0x3436 DUP2 DUP6 PUSH2 0x33D1 JUMP JUMPDEST SWAP4 POP PUSH2 0x3441 DUP4 PUSH2 0x33E1 JUMP JUMPDEST DUP1 PUSH0 JUMPDEST DUP4 DUP2 LT ISZERO PUSH2 0x3471 JUMPI DUP2 MLOAD PUSH2 0x3458 DUP9 DUP3 PUSH2 0x33FF JUMP JUMPDEST SWAP8 POP PUSH2 0x3463 DUP4 PUSH2 0x3416 JUMP JUMPDEST SWAP3 POP POP PUSH1 0x1 DUP2 ADD SWAP1 POP PUSH2 0x3444 JUMP JUMPDEST POP DUP6 SWAP4 POP POP POP POP SWAP3 SWAP2 POP POP JUMP JUMPDEST PUSH0 PUSH1 0xE0 DUP3 ADD SWAP1 POP PUSH2 0x3491 PUSH0 DUP4 ADD DUP11 PUSH2 0x33B8 JUMP JUMPDEST DUP2 DUP2 SUB PUSH1 0x20 DUP4 ADD MSTORE PUSH2 0x34A3 DUP2 DUP10 PUSH2 0x313A JUMP JUMPDEST SWAP1 POP DUP2 DUP2 SUB PUSH1 0x40 DUP4 ADD MSTORE PUSH2 0x34B7 DUP2 DUP9 PUSH2 0x313A JUMP JUMPDEST SWAP1 POP PUSH2 0x34C6 PUSH1 0x60 DUP4 ADD DUP8 PUSH2 0x325D JUMP JUMPDEST PUSH2 0x34D3 PUSH1 0x80 DUP4 ADD DUP7 PUSH2 0x32D5 JUMP JUMPDEST PUSH2 0x34E0 PUSH1 0xA0 DUP4 ADD DUP6 PUSH2 0x333A JUMP JUMPDEST DUP2 DUP2 SUB PUSH1 0xC0 DUP4 ADD MSTORE PUSH2 0x34F2 DUP2 DUP5 PUSH2 0x3422 JUMP JUMPDEST SWAP1 POP SWAP9 SWAP8 POP POP POP POP POP POP POP POP JUMP JUMPDEST PUSH2 0x3509 DUP2 PUSH2 0x32FD JUMP JUMPDEST DUP2 EQ PUSH2 0x3513 JUMPI PUSH0 DUP1 REVERT JUMPDEST POP JUMP JUMPDEST PUSH0 DUP2 CALLDATALOAD SWAP1 POP PUSH2 0x3524 DUP2 PUSH2 0x3500 JUMP JUMPDEST SWAP3 SWAP2 POP POP JUMP JUMPDEST PUSH2 0x3533 DUP2 PUSH2 0x3331 JUMP JUMPDEST DUP2 EQ PUSH2 0x353D JUMPI PUSH0 DUP1 REVERT JUMPDEST POP JUMP JUMPDEST PUSH0 DUP2 CALLDATALOAD SWAP1 POP PUSH2 0x354E DUP2 PUSH2 0x352A JUMP JUMPDEST SWAP3 SWAP2 POP POP JUMP JUMPDEST PUSH0 DUP1 PUSH0 DUP1 PUSH0 DUP1 PUSH0 PUSH1 0xE0 DUP9 DUP11 SUB SLT ISZERO PUSH2 0x356F JUMPI PUSH2 0x356E PUSH2 0x3047 JUMP JUMPDEST JUMPDEST PUSH0 PUSH2 0x357C DUP11 DUP3 DUP12 ADD PUSH2 0x31D8 JUMP JUMPDEST SWAP8 POP POP PUSH1 0x20 PUSH2 0x358D DUP11 DUP3 DUP12 ADD PUSH2 0x31D8 JUMP JUMPDEST SWAP7 POP POP PUSH1 0x40 PUSH2 0x359E DUP11 DUP3 DUP12 ADD PUSH2 0x320B JUMP JUMPDEST SWAP6 POP POP PUSH1 0x60 PUSH2 0x35AF DUP11 DUP3 DUP12 ADD PUSH2 0x320B JUMP JUMPDEST SWAP5 POP POP PUSH1 0x80 PUSH2 0x35C0 DUP11 DUP3 DUP12 ADD PUSH2 0x3516 JUMP JUMPDEST SWAP4 POP POP PUSH1 0xA0 PUSH2 0x35D1 DUP11 DUP3 DUP12 ADD PUSH2 0x3540 JUMP JUMPDEST SWAP3 POP POP PUSH1 0xC0 PUSH2 0x35E2 DUP11 DUP3 DUP12 ADD PUSH2 0x3540 JUMP JUMPDEST SWAP2 POP POP SWAP3 SWAP6 SWAP9 SWAP2 SWAP5 SWAP8 POP SWAP3 SWAP6 POP JUMP JUMPDEST PUSH0 DUP1 PUSH1 0x40 DUP4 DUP6 SUB SLT ISZERO PUSH2 0x3607 JUMPI PUSH2 0x3606 PUSH2 0x3047 JUMP JUMPDEST JUMPDEST PUSH0 PUSH2 0x3614 DUP6 DUP3 DUP7 ADD PUSH2 0x31D8 JUMP JUMPDEST SWAP3 POP POP PUSH1 0x20 PUSH2 0x3625 DUP6 DUP3 DUP7 ADD PUSH2 0x31D8 JUMP JUMPDEST SWAP2 POP POP SWAP3 POP SWAP3 SWAP1 POP JUMP JUMPDEST PUSH0 DUP1 REVERT JUMPDEST PUSH0 DUP1 REVERT JUMPDEST PUSH32 0x4E487B7100000000000000000000000000000000000000000000000000000000 PUSH0 MSTORE PUSH1 0x41 PUSH1 0x4 MSTORE PUSH1 0x24 PUSH0 REVERT JUMPDEST PUSH2 0x366D DUP3 PUSH2 0x312A JUMP JUMPDEST DUP2 ADD DUP2 DUP2 LT PUSH8 0xFFFFFFFFFFFFFFFF DUP3 GT OR ISZERO PUSH2 0x368C JUMPI PUSH2 0x368B PUSH2 0x3637 JUMP JUMPDEST JUMPDEST DUP1 PUSH1 0x40 MSTORE POP POP POP JUMP JUMPDEST PUSH0 PUSH2 0x369E PUSH2 0x303E JUMP JUMPDEST SWAP1 POP PUSH2 0x36AA DUP3 DUP3 PUSH2 0x3664 JUMP JUMPDEST SWAP2 SWAP1 POP JUMP JUMPDEST PUSH0 PUSH8 0xFFFFFFFFFFFFFFFF DUP3 GT ISZERO PUSH2 0x36C9 JUMPI PUSH2 0x36C8 PUSH2 0x3637 JUMP JUMPDEST JUMPDEST PUSH2 0x36D2 DUP3 PUSH2 0x312A JUMP JUMPDEST SWAP1 POP PUSH1 0x20 DUP2 ADD SWAP1 POP SWAP2 SWAP1 POP JUMP JUMPDEST PUSH0 PUSH2 0x36F1 PUSH2 0x36EC DUP5 PUSH2 0x36AF JUMP JUMPDEST PUSH2 0x3695 JUMP JUMPDEST SWAP1 POP DUP3 DUP2 MSTORE PUSH1 0x20 DUP2 ADD DUP5 DUP5 DUP5 ADD GT ISZERO PUSH2 0x370D JUMPI PUSH2 0x370C PUSH2 0x3633 JUMP JUMPDEST JUMPDEST PUSH2 0x3718 DUP5 DUP3 DUP6 PUSH2 0x311C JUMP JUMPDEST POP SWAP4 SWAP3 POP POP POP JUMP JUMPDEST PUSH0 DUP3 PUSH1 0x1F DUP4 ADD SLT PUSH2 0x3734 JUMPI PUSH2 0x3733 PUSH2 0x362F JUMP JUMPDEST JUMPDEST DUP2 MLOAD PUSH2 0x3744 DUP5 DUP3 PUSH1 0x20 DUP7 ADD PUSH2 0x36DF JUMP JUMPDEST SWAP2 POP POP SWAP3 SWAP2 POP POP JUMP JUMPDEST PUSH0 PUSH1 0x20 DUP3 DUP5 SUB SLT ISZERO PUSH2 0x3762 JUMPI PUSH2 0x3761 PUSH2 0x3047 JUMP JUMPDEST JUMPDEST PUSH0 DUP3 ADD MLOAD PUSH8 0xFFFFFFFFFFFFFFFF DUP2 GT ISZERO PUSH2 0x377F JUMPI PUSH2 0x377E PUSH2 0x304B JUMP JUMPDEST JUMPDEST PUSH2 0x378B DUP5 DUP3 DUP6 ADD PUSH2 0x3720 JUMP JUMPDEST SWAP2 POP POP SWAP3 SWAP2 POP POP JUMP JUMPDEST PUSH0 DUP2 MLOAD SWAP1 POP PUSH2 0x37A2 DUP2 PUSH2 0x31C2 JUMP JUMPDEST SWAP3 SWAP2 POP POP JUMP JUMPDEST PUSH0 PUSH1 0x20 DUP3 DUP5 SUB SLT ISZERO PUSH2 0x37BD JUMPI PUSH2 0x37BC PUSH2 0x3047 JUMP JUMPDEST JUMPDEST PUSH0 PUSH2 0x37CA DUP5 DUP3 DUP6 ADD PUSH2 0x3794 JUMP JUMPDEST SWAP2 POP POP SWAP3 SWAP2 POP POP JUMP JUMPDEST PUSH0 PUSH1 0x40 DUP3 ADD SWAP1 POP PUSH2 0x37E6 PUSH0 DUP4 ADD DUP6 PUSH2 0x333A JUMP JUMPDEST PUSH2 0x37F3 PUSH1 0x20 DUP4 ADD DUP5 PUSH2 0x32D5 JUMP JUMPDEST SWAP4 SWAP3 POP POP POP JUMP JUMPDEST PUSH2 0x3803 DUP2 PUSH2 0x30CF JUMP JUMPDEST DUP2 EQ PUSH2 0x380D JUMPI PUSH0 DUP1 REVERT JUMPDEST POP JUMP JUMPDEST PUSH0 DUP2 MLOAD SWAP1 POP PUSH2 0x381E DUP2 PUSH2 0x37FA JUMP JUMPDEST SWAP3 SWAP2 POP POP JUMP JUMPDEST PUSH0 PUSH1 0x20 DUP3 DUP5 SUB SLT ISZERO PUSH2 0x3839 JUMPI PUSH2 0x3838 PUSH2 0x3047 JUMP JUMPDEST JUMPDEST PUSH0 PUSH2 0x3846 DUP5 DUP3 DUP6 ADD PUSH2 0x3810 JUMP JUMPDEST SWAP2 POP POP SWAP3 SWAP2 POP POP JUMP JUMPDEST PUSH32 0x496E6465783A20494E56414C49445F4153534554000000000000000000000000 PUSH0 DUP3 ADD MSTORE POP JUMP JUMPDEST PUSH0 PUSH2 0x3883 PUSH1 0x14 DUP4 PUSH2 0x310C JUMP JUMPDEST SWAP2 POP PUSH2 0x388E DUP3 PUSH2 0x384F JUMP JUMPDEST PUSH1 0x20 DUP3 ADD SWAP1 POP SWAP2 SWAP1 POP JUMP JUMPDEST PUSH0 PUSH1 0x20 DUP3 ADD SWAP1 POP DUP2 DUP2 SUB PUSH0 DUP4 ADD MSTORE PUSH2 0x38B0 DUP2 PUSH2 0x3877 JUMP JUMPDEST SWAP1 POP SWAP2 SWAP1 POP JUMP JUMPDEST PUSH0 DUP2 MLOAD SWAP1 POP PUSH2 0x38C5 DUP2 PUSH2 0x31F5 JUMP JUMPDEST SWAP3 SWAP2 POP POP JUMP JUMPDEST PUSH0 PUSH1 0x20 DUP3 DUP5 SUB SLT ISZERO PUSH2 0x38E0 JUMPI PUSH2 0x38DF PUSH2 0x3047 JUMP JUMPDEST JUMPDEST PUSH0 PUSH2 0x38ED DUP5 DUP3 DUP6 ADD PUSH2 0x38B7 JUMP JUMPDEST SWAP2 POP POP SWAP3 SWAP2 POP POP JUMP JUMPDEST PUSH32 0x4E487B7100000000000000000000000000000000000000000000000000000000 PUSH0 MSTORE PUSH1 0x11 PUSH1 0x4 MSTORE PUSH1 0x24 PUSH0 REVERT JUMPDEST PUSH0 PUSH2 0x392D DUP3 PUSH2 0x31EC JUMP JUMPDEST SWAP2 POP PUSH2 0x3938 DUP4 PUSH2 0x31EC JUMP JUMPDEST SWAP3 POP DUP3 DUP3 SUB SWAP1 POP DUP2 DUP2 GT ISZERO PUSH2 0x3950 JUMPI PUSH2 0x394F PUSH2 0x38F6 JUMP JUMPDEST JUMPDEST SWAP3 SWAP2 POP POP JUMP JUMPDEST PUSH0 PUSH2 0x3960 DUP3 PUSH2 0x31EC JUMP JUMPDEST SWAP2 POP PUSH2 0x396B DUP4 PUSH2 0x31EC JUMP JUMPDEST SWAP3 POP DUP3 DUP3 MUL PUSH2 0x3979 DUP2 PUSH2 0x31EC JUMP JUMPDEST SWAP2 POP DUP3 DUP3 DIV DUP5 EQ DUP4 ISZERO OR PUSH2 0x3990 JUMPI PUSH2 0x398F PUSH2 0x38F6 JUMP JUMPDEST JUMPDEST POP SWAP3 SWAP2 POP POP JUMP JUMPDEST PUSH0 PUSH2 0x39A1 DUP3 PUSH2 0x31EC JUMP JUMPDEST SWAP2 POP PUSH2 0x39AC DUP4 PUSH2 0x31EC JUMP JUMPDEST SWAP3 POP DUP3 DUP3 ADD SWAP1 POP DUP1 DUP3 GT ISZERO PUSH2 0x39C4 JUMPI PUSH2 0x39C3 PUSH2 0x38F6 JUMP JUMPDEST JUMPDEST SWAP3 SWAP2 POP POP JUMP JUMPDEST PUSH32 0x4E487B7100000000000000000000000000000000000000000000000000000000 PUSH0 MSTORE PUSH1 0x1 PUSH1 0x4 MSTORE PUSH1 0x24 PUSH0 REVERT JUMPDEST PUSH32 0x496E6465783A20494E53554646494349454E545F414D4F554E54000000000000 PUSH0 DUP3 ADD MSTORE POP JUMP JUMPDEST PUSH0 PUSH2 0x3A2B PUSH1 0x1A DUP4 PUSH2 0x310C JUMP JUMPDEST SWAP2 POP PUSH2 0x3A36 DUP3 PUSH2 0x39F7 JUMP JUMPDEST PUSH1 0x20 DUP3 ADD SWAP1 POP SWAP2 SWAP1 POP JUMP JUMPDEST PUSH0 PUSH1 0x20 DUP3 ADD SWAP1 POP DUP2 DUP2 SUB PUSH0 DUP4 ADD MSTORE PUSH2 0x3A58 DUP2 PUSH2 0x3A1F JUMP JUMPDEST SWAP1 POP SWAP2 SWAP1 POP JUMP JUMPDEST PUSH0 PUSH1 0x40 DUP3 ADD SWAP1 POP PUSH2 0x3A72 PUSH0 DUP4 ADD DUP6 PUSH2 0x325D JUMP JUMPDEST PUSH2 0x3A7F PUSH1 0x20 DUP4 ADD DUP5 PUSH2 0x3309 JUMP JUMPDEST SWAP4 SWAP3 POP POP POP JUMP JUMPDEST PUSH32 0x4E487B7100000000000000000000000000000000000000000000000000000000 PUSH0 MSTORE PUSH1 0x12 PUSH1 0x4 MSTORE PUSH1 0x24 PUSH0 REVERT JUMPDEST PUSH0 PUSH2 0x3ABD DUP3 PUSH2 0x31EC JUMP JUMPDEST SWAP2 POP PUSH2 0x3AC8 DUP4 PUSH2 0x31EC JUMP JUMPDEST SWAP3 POP DUP3 PUSH2 0x3AD8 JUMPI PUSH2 0x3AD7 PUSH2 0x3A86 JUMP JUMPDEST JUMPDEST DUP3 DUP3 DIV SWAP1 POP SWAP3 SWAP2 POP POP JUMP JUMPDEST PUSH0 PUSH2 0xFFFF DUP3 AND SWAP1 POP SWAP2 SWAP1 POP JUMP JUMPDEST PUSH2 0x3AF9 DUP2 PUSH2 0x3AE3 JUMP JUMPDEST DUP2 EQ PUSH2 0x3B03 JUMPI PUSH0 DUP1 REVERT JUMPDEST POP JUMP JUMPDEST PUSH0 DUP2 MLOAD SWAP1 POP PUSH2 0x3B14 DUP2 PUSH2 0x3AF0 JUMP JUMPDEST SWAP3 SWAP2 POP POP JUMP JUMPDEST PUSH0 PUSH1 0x20 DUP3 DUP5 SUB SLT ISZERO PUSH2 0x3B2F JUMPI PUSH2 0x3B2E PUSH2 0x3047 JUMP JUMPDEST JUMPDEST PUSH0 PUSH2 0x3B3C DUP5 DUP3 DUP6 ADD PUSH2 0x3B06 JUMP JUMPDEST SWAP2 POP POP SWAP3 SWAP2 POP POP JUMP JUMPDEST PUSH0 PUSH1 0x40 DUP3 ADD SWAP1 POP PUSH2 0x3B58 PUSH0 DUP4 ADD DUP6 PUSH2 0x32D5 JUMP JUMPDEST PUSH2 0x3B65 PUSH1 0x20 DUP4 ADD DUP5 PUSH2 0x325D JUMP JUMPDEST SWAP4 SWAP3 POP POP POP JUMP JUMPDEST PUSH0 PUSH1 0x60 DUP3 ADD SWAP1 POP PUSH2 0x3B7F PUSH0 DUP4 ADD DUP7 PUSH2 0x32D5 JUMP JUMPDEST PUSH2 0x3B8C PUSH1 0x20 DUP4 ADD DUP6 PUSH2 0x325D JUMP JUMPDEST PUSH2 0x3B99 PUSH1 0x40 DUP4 ADD DUP5 PUSH2 0x325D JUMP JUMPDEST SWAP5 SWAP4 POP POP POP POP JUMP JUMPDEST PUSH0 PUSH1 0xC0 DUP3 ADD SWAP1 POP PUSH2 0x3BB4 PUSH0 DUP4 ADD DUP10 PUSH2 0x333A JUMP JUMPDEST PUSH2 0x3BC1 PUSH1 0x20 DUP4 ADD DUP9 PUSH2 0x32D5 JUMP JUMPDEST PUSH2 0x3BCE PUSH1 0x40 DUP4 ADD DUP8 PUSH2 0x32D5 JUMP JUMPDEST PUSH2 0x3BDB PUSH1 0x60 DUP4 ADD DUP7 PUSH2 0x325D JUMP JUMPDEST PUSH2 0x3BE8 PUSH1 0x80 DUP4 ADD DUP6 PUSH2 0x325D JUMP JUMPDEST PUSH2 0x3BF5 PUSH1 0xA0 DUP4 ADD DUP5 PUSH2 0x325D JUMP JUMPDEST SWAP8 SWAP7 POP POP POP POP POP POP POP JUMP JUMPDEST PUSH0 PUSH1 0x40 DUP3 ADD SWAP1 POP PUSH2 0x3C13 PUSH0 DUP4 ADD DUP6 PUSH2 0x32D5 JUMP JUMPDEST PUSH2 0x3C20 PUSH1 0x20 DUP4 ADD DUP5 PUSH2 0x32D5 JUMP JUMPDEST SWAP4 SWAP3 POP POP POP JUMP JUMPDEST PUSH0 PUSH1 0xA0 DUP3 ADD SWAP1 POP PUSH2 0x3C3A PUSH0 DUP4 ADD DUP9 PUSH2 0x333A JUMP JUMPDEST PUSH2 0x3C47 PUSH1 0x20 DUP4 ADD DUP8 PUSH2 0x333A JUMP JUMPDEST PUSH2 0x3C54 PUSH1 0x40 DUP4 ADD DUP7 PUSH2 0x333A JUMP JUMPDEST PUSH2 0x3C61 PUSH1 0x60 DUP4 ADD DUP6 PUSH2 0x325D JUMP JUMPDEST PUSH2 0x3C6E PUSH1 0x80 DUP4 ADD DUP5 PUSH2 0x32D5 JUMP JUMPDEST SWAP7 SWAP6 POP POP POP POP POP POP JUMP JUMPDEST PUSH32 0x4E487B7100000000000000000000000000000000000000000000000000000000 PUSH0 MSTORE PUSH1 0x32 PUSH1 0x4 MSTORE PUSH1 0x24 PUSH0 REVERT JUMPDEST PUSH32 0x4E487B7100000000000000000000000000000000000000000000000000000000 PUSH0 MSTORE PUSH1 0x22 PUSH1 0x4 MSTORE PUSH1 0x24 PUSH0 REVERT JUMPDEST PUSH0 PUSH1 0x2 DUP3 DIV SWAP1 POP PUSH1 0x1 DUP3 AND DUP1 PUSH2 0x3CE9 JUMPI PUSH1 0x7F DUP3 AND SWAP2 POP JUMPDEST PUSH1 0x20 DUP3 LT DUP2 SUB PUSH2 0x3CFC JUMPI PUSH2 0x3CFB PUSH2 0x3CA5 JUMP JUMPDEST JUMPDEST POP SWAP2 SWAP1 POP JUMP JUMPDEST PUSH0 PUSH1 0x80 DUP3 ADD SWAP1 POP PUSH2 0x3D15 PUSH0 DUP4 ADD DUP8 PUSH2 0x333A JUMP JUMPDEST PUSH2 0x3D22 PUSH1 0x20 DUP4 ADD DUP7 PUSH2 0x3309 JUMP JUMPDEST PUSH2 0x3D2F PUSH1 0x40 DUP4 ADD DUP6 PUSH2 0x333A JUMP JUMPDEST PUSH2 0x3D3C PUSH1 0x60 DUP4 ADD DUP5 PUSH2 0x333A JUMP JUMPDEST SWAP6 SWAP5 POP POP POP POP POP JUMP JUMPDEST PUSH32 0x4E487B7100000000000000000000000000000000000000000000000000000000 PUSH0 MSTORE PUSH1 0x21 PUSH1 0x4 MSTORE PUSH1 0x24 PUSH0 REVERT INVALID LOG2 PUSH5 0x6970667358 0x22 SLT KECCAK256 0x2D BLOBHASH MCOPY XOR 0xE3 RETURNDATASIZE PUSH8 0xC1079768F8B75283 0xBF PUSH7 0xD6A4EFBA7BE713 0xC8 PUSH28 0x36729299F09864736F6C634300081A00330000000000000000000000 "
		},
		"gasEstimates": {
			"creation": {
				"codeDepositCost": "3156800",
				"executionCost": "infinite",
				"totalCost": "infinite"
			},
			"external": {
				"DOMAIN_SEPARATOR()": "infinite",
				"allowance(address,address)": "infinite",
				"approve(address,uint256)": "infinite",
				"balanceOf(address)": "2852",
				"burn(address)": "infinite",
				"decimals()": "405",
				"eip712Domain()": "infinite",
				"factory()": "2571",
				"mint(address)": "infinite",
				"name()": "infinite",
				"nonces(address)": "2938",
				"permit(address,address,uint256,uint256,uint8,bytes32,bytes32)": "infinite",
				"registry()": "2553",
				"supportsInterface(bytes4)": "833",
				"symbol()": "infinite",
				"totalSupply()": "2522",
				"transfer(address,uint256)": "infinite",
				"transferFrom(address,address,uint256)": "infinite",
				"vTokenFactory()": "2553"
			}
		},
		"methodIdentifiers": {
			"DOMAIN_SEPARATOR()": "3644e515",
			"allowance(address,address)": "dd62ed3e",
			"approve(address,uint256)": "095ea7b3",
			"balanceOf(address)": "70a08231",
			"burn(address)": "89afcb44",
			"decimals()": "313ce567",
			"eip712Domain()": "84b0196e",
			"factory()": "c45a0155",
			"mint(address)": "6a627842",
			"name()": "06fdde03",
			"nonces(address)": "7ecebe00",
			"permit(address,address,uint256,uint256,uint8,bytes32,bytes32)": "d505accf",
			"registry()": "7b103999",
			"supportsInterface(bytes4)": "01ffc9a7",
			"symbol()": "95d89b41",
			"totalSupply()": "18160ddd",
			"transfer(address,uint256)": "a9059cbb",
			"transferFrom(address,address,uint256)": "23b872dd",
			"vTokenFactory()": "28dd9912"
		}
	},
	"abi": [
		{
			"inputs": [],
			"name": "ECDSAInvalidSignature",
			"type": "error"
		},
		{
			"inputs": [
				{
					"internalType": "uint256",
					"name": "length",
					"type": "uint256"
				}
			],
			"name": "ECDSAInvalidSignatureLength",
			"type": "error"
		},
		{
			"inputs": [
				{
					"internalType": "bytes32",
					"name": "s",
					"type": "bytes32"
				}
			],
			"name": "ECDSAInvalidSignatureS",
			"type": "error"
		},
		{
			"inputs": [
				{
					"internalType": "address",
					"name": "spender",
					"type": "address"
				},
				{
					"internalType": "uint256",
					"name": "allowance",
					"type": "uint256"
				},
				{
					"internalType": "uint256",
					"name": "needed",
					"type": "uint256"
				}
			],
			"name": "ERC20InsufficientAllowance",
			"type": "error"
		},
		{
			"inputs": [
				{
					"internalType": "address",
					"name": "sender",
					"type": "address"
				},
				{
					"internalType": "uint256",
					"name": "balance",
					"type": "uint256"
				},
				{
					"internalType": "uint256",
					"name": "needed",
					"type": "uint256"
				}
			],
			"name": "ERC20InsufficientBalance",
			"type": "error"
		},
		{
			"inputs": [
				{
					"internalType": "address",
					"name": "approver",
					"type": "address"
				}
			],
			"name": "ERC20InvalidApprover",
			"type": "error"
		},
		{
			"inputs": [
				{
					"internalType": "address",
					"name": "receiver",
					"type": "address"
				}
			],
			"name": "ERC20InvalidReceiver",
			"type": "error"
		},
		{
			"inputs": [
				{
					"internalType": "address",
					"name": "sender",
					"type": "address"
				}
			],
			"name": "ERC20InvalidSender",
			"type": "error"
		},
		{
			"inputs": [
				{
					"internalType": "address",
					"name": "spender",
					"type": "address"
				}
			],
			"name": "ERC20InvalidSpender",
			"type": "error"
		},
		{
			"inputs": [
				{
					"internalType": "uint256",
					"name": "deadline",
					"type": "uint256"
				}
			],
			"name": "ERC2612ExpiredSignature",
			"type": "error"
		},
		{
			"inputs": [
				{
					"internalType": "address",
					"name": "signer",
					"type": "address"
				},
				{
					"internalType": "address",
					"name": "owner",
					"type": "address"
				}
			],
			"name": "ERC2612InvalidSigner",
			"type": "error"
		},
		{
			"inputs": [
				{
					"internalType": "address",
					"name": "account",
					"type": "address"
				},
				{
					"internalType": "uint256",
					"name": "currentNonce",
					"type": "uint256"
				}
			],
			"name": "InvalidAccountNonce",
			"type": "error"
		},
		{
			"inputs": [],
			"name": "InvalidShortString",
			"type": "error"
		},
		{
			"inputs": [
				{
					"internalType": "string",
					"name": "str",
					"type": "string"
				}
			],
			"name": "StringTooLong",
			"type": "error"
		},
		{
			"anonymous": false,
			"inputs": [
				{
					"indexed": true,
					"internalType": "address",
					"name": "owner",
					"type": "address"
				},
				{
					"indexed": true,
					"internalType": "address",
					"name": "spender",
					"type": "address"
				},
				{
					"indexed": false,
					"internalType": "uint256",
					"name": "value",
					"type": "uint256"
				}
			],
			"name": "Approval",
			"type": "event"
		},
		{
			"anonymous": false,
			"inputs": [],
			"name": "EIP712DomainChanged",
			"type": "event"
		},
		{
			"anonymous": false,
			"inputs": [
				{
					"indexed": true,
					"internalType": "address",
					"name": "from",
					"type": "address"
				},
				{
					"indexed": true,
					"internalType": "address",
					"name": "to",
					"type": "address"
				},
				{
					"indexed": false,
					"internalType": "uint256",
					"name": "value",
					"type": "uint256"
				}
			],
			"name": "Transfer",
			"type": "event"
		},
		{
			"inputs": [],
			"name": "DOMAIN_SEPARATOR",
			"outputs": [
				{
					"internalType": "bytes32",
					"name": "",
					"type": "bytes32"
				}
			],
			"stateMutability": "view",
			"type": "function"
		},
		{
			"inputs": [
				{
					"internalType": "address",
					"name": "owner",
					"type": "address"
				},
				{
					"internalType": "address",
					"name": "spender",
					"type": "address"
				}
			],
			"name": "allowance",
			"outputs": [
				{
					"internalType": "uint256",
					"name": "",
					"type": "uint256"
				}
			],
			"stateMutability": "view",
			"type": "function"
		},
		{
			"inputs": [
				{
					"internalType": "address",
					"name": "spender",
					"type": "address"
				},
				{
					"internalType": "uint256",
					"name": "value",
					"type": "uint256"
				}
			],
			"name": "approve",
			"outputs": [
				{
					"internalType": "bool",
					"name": "",
					"type": "bool"
				}
			],
			"stateMutability": "nonpayable",
			"type": "function"
		},
		{
			"inputs": [
				{
					"internalType": "address",
					"name": "account",
					"type": "address"
				}
			],
			"name": "balanceOf",
			"outputs": [
				{
					"internalType": "uint256",
					"name": "",
					"type": "uint256"
				}
			],
			"stateMutability": "view",
			"type": "function"
		},
		{
			"inputs": [
				{
					"internalType": "address",
					"name": "_recipient",
					"type": "address"
				}
			],
			"name": "burn",
			"outputs": [],
			"stateMutability": "nonpayable",
			"type": "function"
		},
		{
			"inputs": [],
			"name": "decimals",
			"outputs": [
				{
					"internalType": "uint8",
					"name": "",
					"type": "uint8"
				}
			],
			"stateMutability": "view",
			"type": "function"
		},
		{
			"inputs": [],
			"name": "eip712Domain",
			"outputs": [
				{
					"internalType": "bytes1",
					"name": "fields",
					"type": "bytes1"
				},
				{
					"internalType": "string",
					"name": "name",
					"type": "string"
				},
				{
					"internalType": "string",
					"name": "version",
					"type": "string"
				},
				{
					"internalType": "uint256",
					"name": "chainId",
					"type": "uint256"
				},
				{
					"internalType": "address",
					"name": "verifyingContract",
					"type": "address"
				},
				{
					"internalType": "bytes32",
					"name": "salt",
					"type": "bytes32"
				},
				{
					"internalType": "uint256[]",
					"name": "extensions",
					"type": "uint256[]"
				}
			],
			"stateMutability": "view",
			"type": "function"
		},
		{
			"inputs": [],
			"name": "factory",
			"outputs": [
				{
					"internalType": "address",
					"name": "",
					"type": "address"
				}
			],
			"stateMutability": "view",
			"type": "function"
		},
		{
			"inputs": [
				{
					"internalType": "address",
					"name": "_recipient",
					"type": "address"
				}
			],
			"name": "mint",
			"outputs": [],
			"stateMutability": "nonpayable",
			"type": "function"
		},
		{
			"inputs": [],
			"name": "name",
			"outputs": [
				{
					"internalType": "string",
					"name": "",
					"type": "string"
				}
			],
			"stateMutability": "view",
			"type": "function"
		},
		{
			"inputs": [
				{
					"internalType": "address",
					"name": "owner",
					"type": "address"
				}
			],
			"name": "nonces",
			"outputs": [
				{
					"internalType": "uint256",
					"name": "",
					"type": "uint256"
				}
			],
			"stateMutability": "view",
			"type": "function"
		},
		{
			"inputs": [
				{
					"internalType": "address",
					"name": "owner",
					"type": "address"
				},
				{
					"internalType": "address",
					"name": "spender",
					"type": "address"
				},
				{
					"internalType": "uint256",
					"name": "value",
					"type": "uint256"
				},
				{
					"internalType": "uint256",
					"name": "deadline",
					"type": "uint256"
				},
				{
					"internalType": "uint8",
					"name": "v",
					"type": "uint8"
				},
				{
					"internalType": "bytes32",
					"name": "r",
					"type": "bytes32"
				},
				{
					"internalType": "bytes32",
					"name": "s",
					"type": "bytes32"
				}
			],
			"name": "permit",
			"outputs": [],
			"stateMutability": "nonpayable",
			"type": "function"
		},
		{
			"inputs": [],
			"name": "registry",
			"outputs": [
				{
					"internalType": "address",
					"name": "",
					"type": "address"
				}
			],
			"stateMutability": "view",
			"type": "function"
		},
		{
			"inputs": [
				{
					"internalType": "bytes4",
					"name": "_interfaceId",
					"type": "bytes4"
				}
			],
			"name": "supportsInterface",
			"outputs": [
				{
					"internalType": "bool",
					"name": "",
					"type": "bool"
				}
			],
			"stateMutability": "view",
			"type": "function"
		},
		{
			"inputs": [],
			"name": "symbol",
			"outputs": [
				{
					"internalType": "string",
					"name": "",
					"type": "string"
				}
			],
			"stateMutability": "view",
			"type": "function"
		},
		{
			"inputs": [],
			"name": "totalSupply",
			"outputs": [
				{
					"internalType": "uint256",
					"name": "",
					"type": "uint256"
				}
			],
			"stateMutability": "view",
			"type": "function"
		},
		{
			"inputs": [
				{
					"internalType": "address",
					"name": "to",
					"type": "address"
				},
				{
					"internalType": "uint256",
					"name": "value",
					"type": "uint256"
				}
			],
			"name": "transfer",
			"outputs": [
				{
					"internalType": "bool",
					"name": "",
					"type": "bool"
				}
			],
			"stateMutability": "nonpayable",
			"type": "function"
		},
		{
			"inputs": [
				{
					"internalType": "address",
					"name": "from",
					"type": "address"
				},
				{
					"internalType": "address",
					"name": "to",
					"type": "address"
				},
				{
					"internalType": "uint256",
					"name": "value",
					"type": "uint256"
				}
			],
			"name": "transferFrom",
			"outputs": [
				{
					"internalType": "bool",
					"name": "",
					"type": "bool"
				}
			],
			"stateMutability": "nonpayable",
			"type": "function"
		},
		{
			"inputs": [],
			"name": "vTokenFactory",
			"outputs": [
				{
					"internalType": "address",
					"name": "",
					"type": "address"
				}
			],
			"stateMutability": "view",
			"type": "function"
		}
	]
}